{
	"abi": [
		{
			"type": "constructor",
			"inputs": [
				{
					"name": "_charityId",
					"type": "uint256",
					"internalType": "uint256"
				},
				{
					"name": "_tokenAddress",
					"type": "address",
					"internalType": "address"
				},
				{
					"name": "_startTime",
					"type": "uint256",
					"internalType": "uint256"
				},
				{
					"name": "_endTime",
					"type": "uint256",
					"internalType": "uint256"
				},
				{
					"name": "_charityGoal",
					"type": "uint256",
					"internalType": "uint256"
				}
			],
			"stateMutability": "nonpayable"
		},
		{
			"type": "function",
			"name": "charityInfo",
			"inputs": [],
			"outputs": [
				{
					"name": "charityId",
					"type": "uint256",
					"internalType": "uint256"
				},
				{
					"name": "tokenAddress",
					"type": "address",
					"internalType": "address"
				},
				{
					"name": "startTime",
					"type": "uint256",
					"internalType": "uint256"
				},
				{
					"name": "endTime",
					"type": "uint256",
					"internalType": "uint256"
				},
				{
					"name": "charityGoal",
					"type": "uint256",
					"internalType": "uint256"
				}
			],
			"stateMutability": "view"
		},
		{
			"type": "function",
			"name": "deposit",
			"inputs": [
				{
					"name": "amount",
					"type": "uint256",
					"internalType": "uint256"
				}
			],
			"outputs": [],
			"stateMutability": "payable"
		},
		{
			"type": "function",
			"name": "donatedAmount",
			"inputs": [
				{
					"name": "",
					"type": "address",
					"internalType": "address"
				}
			],
			"outputs": [
				{
					"name": "",
					"type": "uint256",
					"internalType": "uint256"
				}
			],
			"stateMutability": "view"
		},
		{
			"type": "function",
			"name": "getCharityGoal",
			"inputs": [],
			"outputs": [
				{
					"name": "",
					"type": "uint256",
					"internalType": "uint256"
				}
			],
			"stateMutability": "view"
		},
		{
			"type": "function",
			"name": "getCharityId",
			"inputs": [],
			"outputs": [
				{
					"name": "",
					"type": "uint256",
					"internalType": "uint256"
				}
			],
			"stateMutability": "view"
		},
		{
			"type": "function",
			"name": "getCharityInfo",
			"inputs": [],
			"outputs": [
				{
					"name": "charityId",
					"type": "uint256",
					"internalType": "uint256"
				},
				{
					"name": "tokenAddress",
					"type": "address",
					"internalType": "address"
				},
				{
					"name": "startTime",
					"type": "uint256",
					"internalType": "uint256"
				},
				{
					"name": "endTime",
					"type": "uint256",
					"internalType": "uint256"
				},
				{
					"name": "charityGoal",
					"type": "uint256",
					"internalType": "uint256"
				}
			],
			"stateMutability": "view"
		},
		{
			"type": "function",
			"name": "getDonatedAmount",
			"inputs": [
				{
					"name": "donator",
					"type": "address",
					"internalType": "address"
				}
			],
			"outputs": [
				{
					"name": "amount",
					"type": "uint256",
					"internalType": "uint256"
				}
			],
			"stateMutability": "view"
		},
		{
			"type": "function",
			"name": "getEndTime",
			"inputs": [],
			"outputs": [
				{
					"name": "",
					"type": "uint256",
					"internalType": "uint256"
				}
			],
			"stateMutability": "view"
		},
		{
			"type": "function",
			"name": "getStartTime",
			"inputs": [],
			"outputs": [
				{
					"name": "",
					"type": "uint256",
					"internalType": "uint256"
				}
			],
			"stateMutability": "view"
		},
		{
			"type": "function",
			"name": "getTokenAddress",
			"inputs": [],
			"outputs": [
				{
					"name": "",
					"type": "address",
					"internalType": "address"
				}
			],
			"stateMutability": "view"
		},
		{
			"type": "function",
			"name": "owner",
			"inputs": [],
			"outputs": [
				{
					"name": "",
					"type": "address",
					"internalType": "address"
				}
			],
			"stateMutability": "view"
		},
		{
			"type": "function",
			"name": "renounceOwnership",
			"inputs": [],
			"outputs": [],
			"stateMutability": "nonpayable"
		},
		{
			"type": "function",
			"name": "token",
			"inputs": [],
			"outputs": [
				{
					"name": "",
					"type": "address",
					"internalType": "contract ERC20"
				}
			],
			"stateMutability": "view"
		},
		{
			"type": "function",
			"name": "totalDonatedAmount",
			"inputs": [],
			"outputs": [
				{
					"name": "",
					"type": "uint256",
					"internalType": "uint256"
				}
			],
			"stateMutability": "view"
		},
		{
			"type": "function",
			"name": "transferOwnership",
			"inputs": [
				{
					"name": "newOwner",
					"type": "address",
					"internalType": "address"
				}
			],
			"outputs": [],
			"stateMutability": "nonpayable"
		},
		{
			"type": "function",
			"name": "withdrawFund",
			"inputs": [],
			"outputs": [],
			"stateMutability": "nonpayable"
		},
		{
			"type": "event",
			"name": "CharityDonated",
			"inputs": [
				{
					"name": "donator",
					"type": "address",
					"indexed": true,
					"internalType": "address"
				},
				{
					"name": "amount",
					"type": "uint256",
					"indexed": false,
					"internalType": "uint256"
				}
			],
			"anonymous": false
		},
		{
			"type": "event",
			"name": "OwnershipTransferred",
			"inputs": [
				{
					"name": "previousOwner",
					"type": "address",
					"indexed": true,
					"internalType": "address"
				},
				{
					"name": "newOwner",
					"type": "address",
					"indexed": true,
					"internalType": "address"
				}
			],
			"anonymous": false
		},
		{
			"type": "error",
			"name": "CharityAlreadyExists",
			"inputs": []
		},
		{
			"type": "error",
			"name": "OwnableInvalidOwner",
			"inputs": [
				{
					"name": "owner",
					"type": "address",
					"internalType": "address"
				}
			]
		},
		{
			"type": "error",
			"name": "OwnableUnauthorizedAccount",
			"inputs": [
				{
					"name": "account",
					"type": "address",
					"internalType": "address"
				}
			]
		},
		{
			"type": "error",
			"name": "ReentrancyGuardReentrantCall",
			"inputs": []
		}
	],
	"bytecode": {
		"object": "0x6080604052346100335761001d610014610156565b939290926102b0565b610025610038565b6112c26104a082396112c290f35b61003e565b60405190565b5f80fd5b601f801991011690565b634e487b7160e01b5f52604160045260245ffd5b9061006a90610042565b810190811060018060401b0382111761008257604052565b61004c565b9061009a610093610038565b9283610060565b565b5f80fd5b90565b6100ac816100a0565b036100b357565b5f80fd5b905051906100c4826100a3565b565b60018060a01b031690565b6100da906100c6565b90565b6100e6816100d1565b036100ed57565b5f80fd5b905051906100fe826100dd565b565b919060a08382031261015157610118815f85016100b7565b9261012682602083016100f1565b9261014e61013784604085016100b7565b9361014581606086016100b7565b936080016100b7565b90565b61009c565b6101746117628038038061016981610087565b928339810190610100565b9091929394565b5f1b90565b9061018c5f199161017b565b9181191691161790565b90565b6101ad6101a86101b2926100a0565b610196565b6100a0565b90565b90565b906101cd6101c86101d492610199565b6101b5565b8254610180565b9055565b906101e960018060a01b039161017b565b9181191691161790565b61020761020261020c926100c6565b610196565b6100c6565b90565b610218906101f3565b90565b6102249061020f565b90565b90565b9061023f61023a6102469261021b565b610227565b82546101d8565b9055565b90565b61026161025c6102669261024a565b610196565b6100a0565b90565b610272906101f3565b90565b61027e90610269565b90565b61028a90610269565b90565b90565b906102a56102a06102ac92610281565b61028d565b82546101d8565b9055565b936102fb61031c946102f161030494956102d9610323996102d033610351565b5f6004016101b8565b6102e787600160040161022a565b60026004016101b8565b60036004016101b8565b600480016101b8565b6103176103105f61024d565b60036101b8565b610275565b6009610290565b565b90565b61033c61033761034192610325565b610196565b6100a0565b90565b61034e6001610328565b90565b61035a906103b8565b61036c610365610344565b60016101b8565b565b61038261037d6103879261024a565b610196565b6100c6565b90565b6103939061036e565b90565b61039f906100d1565b9052565b91906103b6905f60208501940190610396565b565b806103d36103cd6103c85f61038a565b6100d1565b916100d1565b146103e3576103e190610440565b565b6104066103ef5f61038a565b5f918291631e4fbdf760e01b8352600483016103a3565b0390fd5b5f1c90565b60018060a01b031690565b61042661042b9161040a565b61040f565b90565b610438905461041a565b90565b5f0190565b6104495f61042e565b610453825f61022a565b906104876104817f8be0079c531659141344cd1fd0a4f28419497f9722a3daafe3b4186f6b6457e09361021b565b9161021b565b91610490610038565b8061049a8161043b565b0390a356fe60806040526004361015610013575b61075c565b61001d5f3561011c565b8063022f63881461011757806310fe9ae81461011257806320fa44cd1461010d57806330a67d1e14610108578063439f5ac214610103578063715018a6146100fe5780638da5cb5b146100f9578063b03b5719146100f4578063b6b55f25146100ef578063c1a66a7f146100ea578063c2ab3966146100e5578063c317362b146100e0578063c828371e146100db578063e07fa3c1146100d6578063f2fde38b146100d15763fc0c546a0361000e57610727565b610686565b610653565b61061e565b6105e9565b6105b0565b6104e6565b6104bd565b610447565b610412565b6103df565b6103a5565b61036c565b6102ea565b6102a6565b610240565b60e01c90565b60405190565b5f80fd5b5f80fd5b60018060a01b031690565b61014490610130565b90565b6101508161013b565b0361015757565b5f80fd5b9050359061016882610147565b565b9060208282031261018357610180915f0161015b565b90565b61012c565b90565b61019f61019a6101a492610130565b610188565b610130565b90565b6101b09061018b565b90565b6101bc906101a7565b90565b906101c9906101b3565b5f5260205260405f2090565b1c90565b90565b6101ec9060086101f193026101d5565b6101d9565b90565b906101ff91546101dc565b90565b610218906102136002915f926101bf565b6101f4565b90565b90565b6102279061021b565b9052565b919061023e905f6020850194019061021e565b565b346102705761026c61025b61025636600461016a565b610202565b610263610122565b9182918261022b565b0390f35b610128565b5f91031261027f57565b61012c565b61028d9061013b565b9052565b91906102a4905f60208501940190610284565b565b346102d6576102b6366004610275565b6102d26102c1610764565b6102c9610122565b91829182610291565b0390f35b610128565b6102e760035f906101f4565b90565b3461031a576102fa366004610275565b6103166103056102db565b61030d610122565b9182918261022b565b0390f35b610128565b9095949261036a946103596103639261034f60809661034560a088019c5f89019061021e565b6020870190610284565b604085019061021e565b606083019061021e565b019061021e565b565b346103a05761037c366004610275565b61039c610387610781565b91610393959395610122565b9586958661031f565b0390f35b610128565b346103d5576103b5366004610275565b6103d16103c06107f8565b6103c8610122565b9182918261022b565b0390f35b610128565b5f0190565b3461040d576103ef366004610275565b6103f7610861565b6103ff610122565b80610409816103da565b0390f35b610128565b3461044257610422366004610275565b61043e61042d61086b565b610435610122565b91829182610291565b0390f35b610128565b346104775761047361046261045d36600461016a565b610880565b61046a610122565b9182918261022b565b0390f35b610128565b6104858161021b565b0361048c57565b5f80fd5b9050359061049d8261047c565b565b906020828203126104b8576104b5915f01610490565b90565b61012c565b6104d06104cb36600461049f565b610c05565b6104d8610122565b806104e2816103da565b0390f35b34610516576104f6366004610275565b610512610501610da0565b610509610122565b9182918261022b565b0390f35b610128565b5f1c90565b61052c6105319161051b565b6101d9565b90565b61053e9054610520565b90565b60018060a01b031690565b61055861055d9161051b565b610541565b90565b61056a905461054c565b90565b600461057a5f8201610534565b9161058760018301610560565b9161059460028201610534565b916105ad60046105a660038501610534565b9301610534565b90565b346105e4576105c0366004610275565b6105e06105cb61056d565b916105d7959395610122565b9586958661031f565b0390f35b610128565b34610619576105f9366004610275565b610615610604610db8565b61060c610122565b9182918261022b565b0390f35b610128565b3461064e5761062e366004610275565b61064a610639610dd0565b610641610122565b9182918261022b565b0390f35b610128565b3461068157610663366004610275565b61066b611056565b610673610122565b8061067d816103da565b0390f35b610128565b346106b45761069e61069936600461016a565b6110c5565b6106a6610122565b806106b0816103da565b0390f35b610128565b60018060a01b031690565b6106d49060086106d993026101d5565b6106b9565b90565b906106e791546106c4565b90565b6106f660095f906106dc565b90565b610702906101a7565b90565b61070e906106f9565b9052565b9190610725905f60208501940190610705565b565b3461075757610737366004610275565b6107536107426106ea565b61074a610122565b91829182610712565b0390f35b610128565b5f80fd5b5f90565b61076c610760565b5061077a6001600401610560565b90565b5f90565b61078961077d565b50610792610760565b5061079b61077d565b506107a461077d565b506107ad61077d565b506107ba5f600401610534565b6107c76001600401610560565b916107d56002600401610534565b916107e36003600401610534565b916107f060048001610534565b919493929190565b61080061077d565b5061080e6003600401610534565b90565b6108196110d0565b61082161084e565b565b90565b61083a61083561083f92610823565b610188565b610130565b90565b61084b90610826565b90565b61085f61085a5f610842565b61115c565b565b610869610811565b565b610873610760565b5061087d5f610560565b90565b61089761089c9161088f61077d565b5060026101bf565b610534565b90565b60209181520190565b5f7f43686172697479206973206e6f74206163746976650000000000000000000000910152565b6108dc601560209261089f565b6108e5816108a8565b0190565b6108fe9060208101905f8183039101526108cf565b90565b1561090857565b610910610122565b62461bcd60e51b815280610926600482016108e9565b0390fd5b61093e61093961094392610823565b610188565b61021b565b90565b60207f7468616e20300000000000000000000000000000000000000000000000000000917f446f6e6174696f6e20616d6f756e74206d7573742062652067726561746572205f8201520152565b6109a0602660409261089f565b6109a981610946565b0190565b6109c29060208101905f818303910152610993565b90565b156109cc57565b6109d4610122565b62461bcd60e51b8152806109ea600482016109ad565b0390fd5b634e487b7160e01b5f52601160045260245ffd5b610a11610a179193929361021b565b9261021b565b8201809211610a2257565b6109ee565b5f1b90565b90610a385f1991610a27565b9181191691161790565b610a56610a51610a5b9261021b565b610188565b61021b565b90565b90565b90610a76610a71610a7d92610a42565b610a5e565b8254610a2c565b9055565b610a8d610a929161051b565b6106b9565b90565b610a9f9054610a81565b90565b610aab906101a7565b90565b601f801991011690565b634e487b7160e01b5f52604160045260245ffd5b90610ad690610aae565b810190811067ffffffffffffffff821117610af057604052565b610ab8565b60e01b90565b151590565b610b0981610afb565b03610b1057565b5f80fd5b90505190610b2182610b00565b565b90602082820312610b3c57610b39915f01610b14565b90565b61012c565b604090610b6a610b719496959396610b6060608401985f850190610284565b6020830190610284565b019061021e565b565b610b7b610122565b3d5f823e3d90fd5b5f7f5472616e73666572206661696c65640000000000000000000000000000000000910152565b610bb7600f60209261089f565b610bc081610b83565b0190565b610bd99060208101905f818303910152610baa565b90565b15610be357565b610beb610122565b62461bcd60e51b815280610c0160048201610bc4565b0390fd5b33610c384280610c29610c23610c1e6002600401610534565b61021b565b9161021b565b10159081610d78575b50610901565b610c5482610c4e610c485f61092a565b9161021b565b116109c5565b610c7c82610c76610c67600285906101bf565b91610c7183610534565b610a02565b90610a61565b610c99610c9283610c8d6003610534565b610a02565b6003610a61565b610cab610ca66009610a95565b6106f9565b60206323b872dd918390610cdb5f610cc230610aa2565b95610ce689610ccf610122565b98899788968795610af5565b855260048501610b41565b03925af18015610d7357610d01915f91610d45575b50610bdc565b610d40610d2e7fc736a00718432c0a23cbb8ec85d50415610b037ec5ad7d4bd46c9285137f35e0926101b3565b92610d37610122565b9182918261022b565b0390a2565b610d66915060203d8111610d6c575b610d5e8183610acc565b810190610b23565b5f610cfb565b503d610d54565b610b73565b9050610d98610d92610d8d6003600401610534565b61021b565b9161021b565b11155f610c32565b610da861077d565b50610db55f600401610534565b90565b610dc061077d565b50610dcd60048001610534565b90565b610dd861077d565b50610de66002600401610534565b90565b610df16110d0565b610df9610dfb565b565b610e036111e7565b610e0b610ee7565b610e1361126b565b565b90505190610e228261047c565b565b90602082820312610e3d57610e3a915f01610e15565b90565b61012c565b5f7f4368617269747920676f616c206e6f7420726561636865640000000000000000910152565b610e76601860209261089f565b610e7f81610e42565b0190565b610e989060208101905f818303910152610e69565b90565b15610ea257565b610eaa610122565b62461bcd60e51b815280610ec060048201610e83565b0390fd5b916020610ee5929493610ede60408201965f830190610284565b019061021e565b565b610f3c610ef660048001610534565b6020610f0a610f056009610a95565b6106f9565b6370a0823190610f31610f1c30610aa2565b92610f25610122565b96879485938493610af5565b835260048301610291565b03915afa801561105157610f5e610f6491610f6b945f91611023575b5061021b565b9161021b565b1115610e9b565b610f756003610534565b610f88610f815f61092a565b6003610a61565b6020610f9c610f976009610a95565b6106f9565b9163a9059cbb92610fc85f610faf61086b565b9395610fd3610fbc610122565b97889687958694610af5565b845260048401610ec4565b03925af1801561101e57610fee915f91610ff0575b50610bdc565b565b611011915060203d8111611017575b6110098183610acc565b810190610b23565b5f610fe8565b503d610fff565b610b73565b611044915060203d811161104a575b61103c8183610acc565b810190610e24565b5f610f58565b503d611032565b610b73565b61105e610de9565b565b6110719061106c6110d0565b611073565b565b8061108e6110886110835f610842565b61013b565b9161013b565b1461109e5761109c9061115c565b565b6110c16110aa5f610842565b5f918291631e4fbdf760e01b835260048301610291565b0390fd5b6110ce90611060565b565b6110d861086b565b6110f16110eb6110e661127f565b61013b565b9161013b565b036110f857565b61111a61110361127f565b5f91829163118cdaa760e01b835260048301610291565b0390fd5b9061112f60018060a01b0391610a27565b9181191691161790565b90565b9061115161114c611158926101b3565b611139565b825461111e565b9055565b6111655f610560565b61116f825f61113c565b906111a361119d7f8be0079c531659141344cd1fd0a4f28419497f9722a3daafe3b4186f6b6457e0936101b3565b916101b3565b916111ac610122565b806111b6816103da565b0390a3565b90565b6111d26111cd6111d7926111bb565b610188565b61021b565b90565b6111e460026111be565b90565b6111f16001610534565b61120a6112046111ff6111da565b61021b565b9161021b565b146112235761122161121a6111da565b6001610a61565b565b5f633ee5aeb560e01b81528061123b600482016103da565b0390fd5b90565b61125661125161125b9261123f565b610188565b61021b565b90565b6112686001611242565b90565b61127d61127661125e565b6001610a61565b565b611287610760565b50339056fea26469706673582212200ef2f3038b5ad0d8ba7a3d66b6b417c09c6bf658e0145d0551c18e93f61c587664736f6c634300081a0033",
		"linkReferences": {}
	},
	"methodIdentifiers": {
		"charityInfo()": "c2ab3966",
		"deposit(uint256)": "b6b55f25",
		"donatedAmount(address)": "022f6388",
		"getCharityGoal()": "c317362b",
		"getCharityId()": "c1a66a7f",
		"getCharityInfo()": "30a67d1e",
		"getDonatedAmount(address)": "b03b5719",
		"getEndTime()": "439f5ac2",
		"getStartTime()": "c828371e",
		"getTokenAddress()": "10fe9ae8",
		"owner()": "8da5cb5b",
		"renounceOwnership()": "715018a6",
		"token()": "fc0c546a",
		"totalDonatedAmount()": "20fa44cd",
		"transferOwnership(address)": "f2fde38b",
		"withdrawFund()": "e07fa3c1"
	},
	"id": 26
}