{
  "abi": [
    {
      "type": "constructor",
      "inputs": [],
      "stateMutability": "nonpayable"
    },
    {
      "type": "function",
      "name": "createCharity",
      "inputs": [
        {
          "name": "projectOwner",
          "type": "address",
          "internalType": "address"
        },
        {
          "name": "tokenAddress",
          "type": "address",
          "internalType": "address"
        },
        {
          "name": "startTime",
          "type": "uint256",
          "internalType": "uint256"
        },
        {
          "name": "endTime",
          "type": "uint256",
          "internalType": "uint256"
        }
      ],
      "outputs": [
        {
          "name": "",
          "type": "address",
          "internalType": "address"
        }
      ],
      "stateMutability": "nonpayable"
    },
    {
      "type": "function",
      "name": "getCharityAddress",
      "inputs": [
        {
          "name": "charityId",
          "type": "uint256",
          "internalType": "uint256"
        }
      ],
      "outputs": [
        {
          "name": "",
          "type": "address",
          "internalType": "address"
        }
      ],
      "stateMutability": "view"
    },
    {
      "type": "function",
      "name": "getCharityCount",
      "inputs": [],
      "outputs": [
        {
          "name": "",
          "type": "uint256",
          "internalType": "uint256"
        }
      ],
      "stateMutability": "view"
    },
    {
      "type": "function",
      "name": "getCurrentCharityId",
      "inputs": [],
      "outputs": [
        {
          "name": "",
          "type": "uint256",
          "internalType": "uint256"
        }
      ],
      "stateMutability": "view"
    },
    {
      "type": "function",
      "name": "isCharityValid",
      "inputs": [
        {
          "name": "charityAddress",
          "type": "address",
          "internalType": "address"
        }
      ],
      "outputs": [
        {
          "name": "",
          "type": "bool",
          "internalType": "bool"
        }
      ],
      "stateMutability": "view"
    },
    {
      "type": "event",
      "name": "CharityCreated",
      "inputs": [
        {
          "name": "charity",
          "type": "address",
          "indexed": true,
          "internalType": "address"
        }
      ],
      "anonymous": false
    },
    {
      "type": "error",
      "name": "CharityAlreadyExists",
      "inputs": []
    }
  ],
  "bytecode": {
    "object": "0x608060405234602257600e609b565b60146026565b611e956100ae8239611e9590f35b602c565b60405190565b5f80fd5b90565b90565b90565b60486044604c926030565b6036565b6033565b90565b5f1b90565b90605e5f1991604f565b9181191691161790565b60776073607b926033565b6036565b6033565b90565b90565b906091608d6097926068565b607e565b82546054565b9055565b60ab60a560016039565b60026081565b56fe60806040526004361015610013575b6102e9565b61001d5f3561006c565b80633d99bee014610067578063403df1be1461006257806369a232ac1461005d5780637185a44b146100585763c2e797140361000e576102b4565b61027f565b610215565b61019a565b6100fd565b60e01c90565b60405190565b5f80fd5b5f80fd5b90565b61008c81610080565b0361009357565b5f80fd5b905035906100a482610083565b565b906020828203126100bf576100bc915f01610097565b90565b61007c565b60018060a01b031690565b6100d8906100c4565b90565b6100e4906100cf565b9052565b91906100fb905f602085019401906100db565b565b3461012d576101296101186101133660046100a6565b610357565b610120610072565b918291826100e8565b0390f35b610078565b61013b816100cf565b0361014257565b5f80fd5b9050359061015382610132565b565b9060208282031261016e5761016b915f01610146565b90565b61007c565b151590565b61018190610173565b9052565b9190610198905f60208501940190610178565b565b346101ca576101c66101b56101b0366004610155565b6103ea565b6101bd610072565b91829182610185565b0390f35b610078565b608081830312610210576101e5825f8301610146565b9261020d6101f68460208501610146565b936102048160408601610097565b93606001610097565b90565b61007c565b346102495761024561023461022b3660046101cf565b929190916105a0565b61023c610072565b918291826100e8565b0390f35b610078565b5f91031261025857565b61007c565b61026690610080565b9052565b919061027d905f6020850194019061025d565b565b346102af5761028f36600461024e565b6102ab61029a610719565b6102a2610072565b9182918261026a565b0390f35b610078565b346102e4576102c436600461024e565b6102e06102cf610742565b6102d7610072565b9182918261026a565b0390f35b610078565b5f80fd5b5f90565b90565b61030861030361030d92610080565b6102f1565b610080565b90565b9061031a906102f4565b5f5260205260405f2090565b5f1c90565b60018060a01b031690565b61034261034791610326565b61032b565b90565b6103549054610336565b90565b61036d610372916103666102ed565b505f610310565b61034a565b90565b5f90565b61038d610388610392926100c4565b6102f1565b6100c4565b90565b61039e90610379565b90565b6103aa90610395565b90565b906103b7906103a1565b5f5260205260405f2090565b60ff1690565b6103d56103da91610326565b6103c3565b90565b6103e790546103c9565b90565b610401610406916103f9610375565b5060016103ad565b6103dd565b90565b5f0190565b90565b61041d61042291610326565b61040e565b90565b61042f9054610411565b90565b634e487b7160e01b5f52604160045260245ffd5b909594926104919461048061048a9261047660809661046c60a088019c5f89019061025d565b60208701906100db565b60408501906100db565b606083019061025d565b019061025d565b565b61049b610072565b3d5f823e3d90fd5b6104ac90610395565b90565b5f1b90565b906104c560018060a01b03916104af565b9181191691161790565b90565b906104e76104e26104ee926103a1565b6104cf565b82546104b4565b9055565b906104fe60ff916104af565b9181191691161790565b61051190610173565b90565b90565b9061052c61052761053392610508565b610514565b82546104f2565b9055565b634e487b7160e01b5f52601160045260245ffd5b61055490610080565b5f1981146105625760010190565b610537565b906105735f19916104af565b9181191691161790565b90565b9061059561059061059c926102f4565b61057d565b8254610567565b9055565b91926105aa6102ed565b506105bf6105ba600133906103ad565b6103dd565b6106b5576105cd6002610425565b9291936105d8610072565b9461170786019386851067ffffffffffffffff8611176106b0578695610605956117076107598939610446565b03905ff080156106ab57610618906104a3565b610635816106305f61062a6002610425565b90610310565b6104d2565b61064b6001610646600184906103ad565b610517565b61066761066061065b6002610425565b61054b565b6002610580565b806106927ff25ad271a3a47df6dcaf0e7c0dc31f05d2f9442be6be6544829e8d6abb6e201a916103a1565b9061069b610072565b806106a581610409565b0390a290565b610493565b610432565b5f6312219a1f60e31b8152806106cd60048201610409565b0390fd5b5f90565b90565b6106ec6106e76106f1926106d5565b6102f1565b610080565b90565b61070361070991939293610080565b92610080565b820391821161071457565b610537565b6107216106d1565b5061073f61072f6002610425565b61073960016106d8565b906106f4565b90565b61074a6106d1565b506107556002610425565b9056fe6080604052346100335761001d610014610156565b939290926102b0565b610025610038565b61125f6104a8823961125f90f35b61003e565b60405190565b5f80fd5b601f801991011690565b634e487b7160e01b5f52604160045260245ffd5b9061006a90610042565b810190811060018060401b0382111761008257604052565b61004c565b9061009a610093610038565b9283610060565b565b5f80fd5b90565b6100ac816100a0565b036100b357565b5f80fd5b905051906100c4826100a3565b565b60018060a01b031690565b6100da906100c6565b90565b6100e6816100d1565b036100ed57565b5f80fd5b905051906100fe826100dd565b565b919060a08382031261015157610118815f85016100b7565b9261012682602083016100f1565b9261014e61013784604085016100f1565b9361014581606086016100b7565b936080016100b7565b90565b61009c565b6101746117078038038061016981610087565b928339810190610100565b9091929394565b5f1b90565b9061018c5f199161017b565b9181191691161790565b90565b6101ad6101a86101b2926100a0565b610196565b6100a0565b90565b90565b906101cd6101c86101d492610199565b6101b5565b8254610180565b9055565b906101e960018060a01b039161017b565b9181191691161790565b61020761020261020c926100c6565b610196565b6100c6565b90565b610218906101f3565b90565b6102249061020f565b90565b90565b9061023f61023a6102469261021b565b610227565b82546101d8565b9055565b90565b61026161025c6102669261024a565b610196565b6100a0565b90565b610272906101f3565b90565b61027e90610269565b90565b61028a90610269565b90565b90565b906102a56102a06102ac92610281565b61028d565b82546101d8565b9055565b9061030761032b956102fe610324966102d861031f966102cf33610359565b5f6004016101b8565b6102e685600160040161022a565b6102f487600260040161022a565b60036004016101b8565b600480016101b8565b61031a6103135f61024d565b60036101b8565b610448565b610275565b6009610290565b565b90565b61034461033f6103499261032d565b610196565b6100a0565b90565b6103566001610330565b90565b610362906103c0565b61037461036d61034c565b60016101b8565b565b61038a61038561038f9261024a565b610196565b6100c6565b90565b61039b90610376565b90565b6103a7906100d1565b9052565b91906103be905f6020850194019061039e565b565b806103db6103d56103d05f610392565b6100d1565b916100d1565b146103eb576103e990610448565b565b61040e6103f75f610392565b5f918291631e4fbdf760e01b8352600483016103ab565b0390fd5b5f1c90565b60018060a01b031690565b61042e61043391610412565b610417565b90565b6104409054610422565b90565b5f0190565b6104515f610436565b61045b825f61022a565b9061048f6104897f8be0079c531659141344cd1fd0a4f28419497f9722a3daafe3b4186f6b6457e09361021b565b9161021b565b91610498610038565b806104a281610443565b0390a356fe60806040526004361015610013575b610806565b61001d5f3561012c565b8063022f63881461012757806310fe9ae81461012257806320fa44cd1461011d57806330a67d1e14610118578063439f5ac214610113578063715018a61461010e578063760f51f3146101095780638da5cb5b14610104578063a4fd6f56146100ff578063b03b5719146100fa578063b6b55f25146100f5578063c1a66a7f146100f0578063c2ab3966146100eb578063c828371e146100e6578063e07fa3c1146100e1578063f2fde38b146100dc5763fc0c546a0361000e576107d1565b610730565b6106fd565b6106c8565b61068f565b610578565b61054f565b6104d9565b6104a4565b610448565b610413565b6103e0565b6103a6565b61036d565b6102fa565b6102b6565b610250565b60e01c90565b60405190565b5f80fd5b5f80fd5b60018060a01b031690565b61015490610140565b90565b6101608161014b565b0361016757565b5f80fd5b9050359061017882610157565b565b9060208282031261019357610190915f0161016b565b90565b61013c565b90565b6101af6101aa6101b492610140565b610198565b610140565b90565b6101c09061019b565b90565b6101cc906101b7565b90565b906101d9906101c3565b5f5260205260405f2090565b1c90565b90565b6101fc90600861020193026101e5565b6101e9565b90565b9061020f91546101ec565b90565b610228906102236002915f926101cf565b610204565b90565b90565b6102379061022b565b9052565b919061024e905f6020850194019061022e565b565b346102805761027c61026b61026636600461017a565b610212565b610273610132565b9182918261023b565b0390f35b610138565b5f91031261028f57565b61013c565b61029d9061014b565b9052565b91906102b4905f60208501940190610294565b565b346102e6576102c6366004610285565b6102e26102d161080e565b6102d9610132565b918291826102a1565b0390f35b610138565b6102f760035f90610204565b90565b3461032a5761030a366004610285565b6103266103156102eb565b61031d610132565b9182918261023b565b0390f35b610138565b61036461036b9461035a606094989795610350608086019a5f87019061022e565b6020850190610294565b604083019061022e565b019061022e565b565b346103a15761037d366004610285565b61039d61038861082b565b90610394949294610132565b9485948561032f565b0390f35b610138565b346103d6576103b6366004610285565b6103d26103c161088b565b6103c9610132565b9182918261023b565b0390f35b610138565b5f0190565b3461040e576103f0366004610285565b6103f86108f3565b610400610132565b8061040a816103db565b0390f35b610138565b3461044357610423366004610285565b61043f61042e6108fd565b610436610132565b9182918261023b565b0390f35b610138565b3461047857610458366004610285565b610474610463610913565b61046b610132565b918291826102a1565b0390f35b610138565b151590565b61048b9061047d565b9052565b91906104a2905f60208501940190610482565b565b346104d4576104b4366004610285565b6104d06104bf61092c565b6104c7610132565b9182918261048f565b0390f35b610138565b34610509576105056104f46104ef36600461017a565b610957565b6104fc610132565b9182918261023b565b0390f35b610138565b6105178161022b565b0361051e57565b5f80fd5b9050359061052f8261050e565b565b9060208282031261054a57610547915f01610522565b90565b61013c565b61056261055d366004610531565b610cd7565b61056a610132565b80610574816103db565b0390f35b346105a857610588366004610285565b6105a4610593610e71565b61059b610132565b9182918261023b565b0390f35b610138565b5f1c90565b6105be6105c3916105ad565b6101e9565b90565b6105d090546105b2565b90565b60018060a01b031690565b6105ea6105ef916105ad565b6105d3565b90565b6105fc90546105de565b90565b600461060c5f82016105c6565b91610619600183016105f2565b91610626600282016105f2565b9161063f6004610638600385016105c6565b93016105c6565b90565b9095949261068d9461067c6106869261067260809661066860a088019c5f89019061022e565b6020870190610294565b6040850190610294565b606083019061022e565b019061022e565b565b346106c35761069f366004610285565b6106bf6106aa6105ff565b916106b6959395610132565b95869586610642565b0390f35b610138565b346106f8576106d8366004610285565b6106f46106e3610e89565b6106eb610132565b9182918261023b565b0390f35b610138565b3461072b5761070d366004610285565b610715610ff3565b61071d610132565b80610727816103db565b0390f35b610138565b3461075e5761074861074336600461017a565b611062565b610750610132565b8061075a816103db565b0390f35b610138565b60018060a01b031690565b61077e90600861078393026101e5565b610763565b90565b90610791915461076e565b90565b6107a060095f90610786565b90565b6107ac906101b7565b90565b6107b8906107a3565b9052565b91906107cf905f602085019401906107af565b565b34610801576107e1366004610285565b6107fd6107ec610794565b6107f4610132565b918291826107bc565b0390f35b610138565b5f80fd5b5f90565b61081661080a565b5061082460026004016105f2565b90565b5f90565b610833610827565b5061083c61080a565b50610845610827565b5061084e610827565b5061085b5f6004016105c6565b9061086960026004016105f2565b9161087760036004016105c6565b91610884600480016105c6565b9193929190565b610893610827565b506108a0600480016105c6565b90565b6108ab61106d565b6108b36108e0565b565b90565b6108cc6108c76108d1926108b5565b610198565b610140565b90565b6108dd906108b8565b90565b6108f16108ec5f6108d4565b6110f9565b565b6108fb6108a3565b565b610905610827565b5061091060036105c6565b90565b61091b61080a565b506109255f6105f2565b90565b5f90565b610934610928565b504261095361094d610948600480016105c6565b61022b565b9161022b565b1190565b61096e61097391610966610827565b5060026101cf565b6105c6565b90565b60209181520190565b5f7f43686172697479206973206e6f74206163746976650000000000000000000000910152565b6109b36015602092610976565b6109bc8161097f565b0190565b6109d59060208101905f8183039101526109a6565b90565b156109df57565b6109e7610132565b62461bcd60e51b8152806109fd600482016109c0565b0390fd5b610a15610a10610a1a926108b5565b610198565b61022b565b90565b60207f7468616e20300000000000000000000000000000000000000000000000000000917f446f6e6174696f6e20616d6f756e74206d7573742062652067726561746572205f8201520152565b610a776026604092610976565b610a8081610a1d565b0190565b610a999060208101905f818303910152610a6a565b90565b15610aa357565b610aab610132565b62461bcd60e51b815280610ac160048201610a84565b0390fd5b634e487b7160e01b5f52601160045260245ffd5b610ae8610aee9193929361022b565b9261022b565b8201809211610af957565b610ac5565b5f1b90565b90610b0f5f1991610afe565b9181191691161790565b610b2d610b28610b329261022b565b610198565b61022b565b90565b90565b90610b4d610b48610b5492610b19565b610b35565b8254610b03565b9055565b610b64610b69916105ad565b610763565b90565b610b769054610b58565b90565b610b82906101b7565b90565b601f801991011690565b634e487b7160e01b5f52604160045260245ffd5b90610bad90610b85565b810190811067ffffffffffffffff821117610bc757604052565b610b8f565b60e01b90565b610bdb8161047d565b03610be257565b5f80fd5b90505190610bf382610bd2565b565b90602082820312610c0e57610c0b915f01610be6565b90565b61013c565b604090610c3c610c439496959396610c3260608401985f850190610294565b6020830190610294565b019061022e565b565b610c4d610132565b3d5f823e3d90fd5b5f7f5472616e73666572206661696c65640000000000000000000000000000000000910152565b610c89600f602092610976565b610c9281610c55565b0190565b610cab9060208101905f818303910152610c7c565b90565b15610cb557565b610cbd610132565b62461bcd60e51b815280610cd360048201610c96565b0390fd5b33610d0a4280610cfb610cf5610cf060036004016105c6565b61022b565b9161022b565b10159081610e4a575b506109d8565b610d2682610d20610d1a5f610a01565b9161022b565b11610a9c565b610d4e82610d48610d39600285906101cf565b91610d43836105c6565b610ad9565b90610b38565b610d6b610d6483610d5f60036105c6565b610ad9565b6003610b38565b610d7d610d786009610b6c565b6107a3565b60206323b872dd918390610dad5f610d9430610b79565b95610db889610da1610132565b98899788968795610bcc565b855260048501610c13565b03925af18015610e4557610dd3915f91610e17575b50610cae565b610e12610e007fc736a00718432c0a23cbb8ec85d50415610b037ec5ad7d4bd46c9285137f35e0926101c3565b92610e09610132565b9182918261023b565b0390a2565b610e38915060203d8111610e3e575b610e308183610ba3565b810190610bf5565b5f610dcd565b503d610e26565b610c45565b9050610e69610e63610e5e600480016105c6565b61022b565b9161022b565b11155f610d04565b610e79610827565b50610e865f6004016105c6565b90565b610e91610827565b50610e9f60036004016105c6565b90565b610eaa61106d565b610eb2610eb4565b565b610ebc611184565b610ec4610ef1565b610ecc611208565b565b916020610eef929493610ee860408201965f830190610294565b019061022e565b565b610efb60036105c6565b610f0e610f075f610a01565b6003610b38565b610f20610f1b6009610b6c565b6107a3565b602063a9059cbb91610f30610913565b90610f4e5f8695610f59610f42610132565b97889687958694610bcc565b845260048401610ece565b03925af18015610fee57610f74915f91610fc0575b50610cae565b610f7c610913565b610fbb610fa97f4d84499339a08e0da27387ebfa8288f443c1ac037c612d2f2e725dd3b6db4c55926101c3565b92610fb2610132565b9182918261023b565b0390a2565b610fe1915060203d8111610fe7575b610fd98183610ba3565b810190610bf5565b5f610f6e565b503d610fcf565b610c45565b610ffb610ea2565b565b61100e9061100961106d565b611010565b565b8061102b6110256110205f6108d4565b61014b565b9161014b565b1461103b57611039906110f9565b565b61105e6110475f6108d4565b5f918291631e4fbdf760e01b8352600483016102a1565b0390fd5b61106b90610ffd565b565b611075610913565b61108e61108861108361121c565b61014b565b9161014b565b0361109557565b6110b76110a061121c565b5f91829163118cdaa760e01b8352600483016102a1565b0390fd5b906110cc60018060a01b0391610afe565b9181191691161790565b90565b906110ee6110e96110f5926101c3565b6110d6565b82546110bb565b9055565b6111025f6105f2565b61110c825f6110d9565b9061114061113a7f8be0079c531659141344cd1fd0a4f28419497f9722a3daafe3b4186f6b6457e0936101c3565b916101c3565b91611149610132565b80611153816103db565b0390a3565b90565b61116f61116a61117492611158565b610198565b61022b565b90565b611181600261115b565b90565b61118e60016105c6565b6111a76111a161119c611177565b61022b565b9161022b565b146111c0576111be6111b7611177565b6001610b38565b565b5f633ee5aeb560e01b8152806111d8600482016103db565b0390fd5b90565b6111f36111ee6111f8926111dc565b610198565b61022b565b90565b61120560016111df565b90565b61121a6112136111fb565b6001610b38565b565b61122461080a565b50339056fea264697066735822122037b23f645264f67b96b763987c96356b155febfc90c65ca4e7e510f23f4fb48764736f6c634300081d0033a2646970667358221220a51161ecdca17025e17c23231ebcce60f6a434df8d264f4e15fd6fbda0269cc964736f6c634300081d0033",
    "linkReferences": {}
  },
  "methodIdentifiers": {
    "createCharity(address,address,uint256,uint256)": "69a232ac",
    "getCharityAddress(uint256)": "3d99bee0",
    "getCharityCount()": "7185a44b",
    "getCurrentCharityId()": "c2e79714",
    "isCharityValid(address)": "403df1be"
  },
  "id": 29
}