{
	"abi": [
		{
			"type": "constructor",
			"inputs": [
				{
					"name": "_charityId",
					"type": "uint256",
					"internalType": "uint256"
				},
				{
					"name": "_tokenAddress",
					"type": "address",
					"internalType": "address"
				},
				{
					"name": "_startTime",
					"type": "uint256",
					"internalType": "uint256"
				},
				{
					"name": "_endTime",
					"type": "uint256",
					"internalType": "uint256"
				},
				{
					"name": "_charityGoal",
					"type": "uint256",
					"internalType": "uint256"
				}
			],
			"stateMutability": "nonpayable"
		},
		{
			"type": "function",
			"name": "charityInfo",
			"inputs": [],
			"outputs": [
				{
					"name": "charityId",
					"type": "uint256",
					"internalType": "uint256"
				},
				{
					"name": "tokenAddress",
					"type": "address",
					"internalType": "address"
				},
				{
					"name": "startTime",
					"type": "uint256",
					"internalType": "uint256"
				},
				{
					"name": "endTime",
					"type": "uint256",
					"internalType": "uint256"
				},
				{
					"name": "charityGoal",
					"type": "uint256",
					"internalType": "uint256"
				}
			],
			"stateMutability": "view"
		},
		{
			"type": "function",
			"name": "deposit",
			"inputs": [],
			"outputs": [],
			"stateMutability": "payable"
		},
		{
			"type": "function",
			"name": "donatedAmount",
			"inputs": [
				{
					"name": "",
					"type": "address",
					"internalType": "address"
				}
			],
			"outputs": [
				{
					"name": "",
					"type": "uint256",
					"internalType": "uint256"
				}
			],
			"stateMutability": "view"
		},
		{
			"type": "function",
			"name": "getCharityGoal",
			"inputs": [],
			"outputs": [
				{
					"name": "",
					"type": "uint256",
					"internalType": "uint256"
				}
			],
			"stateMutability": "view"
		},
		{
			"type": "function",
			"name": "getCharityId",
			"inputs": [],
			"outputs": [
				{
					"name": "",
					"type": "uint256",
					"internalType": "uint256"
				}
			],
			"stateMutability": "view"
		},
		{
			"type": "function",
			"name": "getCharityInfo",
			"inputs": [],
			"outputs": [
				{
					"name": "charityId",
					"type": "uint256",
					"internalType": "uint256"
				},
				{
					"name": "tokenAddress",
					"type": "address",
					"internalType": "address"
				},
				{
					"name": "startTime",
					"type": "uint256",
					"internalType": "uint256"
				},
				{
					"name": "endTime",
					"type": "uint256",
					"internalType": "uint256"
				},
				{
					"name": "charityGoal",
					"type": "uint256",
					"internalType": "uint256"
				}
			],
			"stateMutability": "view"
		},
		{
			"type": "function",
			"name": "getDonatedAmount",
			"inputs": [
				{
					"name": "donator",
					"type": "address",
					"internalType": "address"
				}
			],
			"outputs": [
				{
					"name": "amount",
					"type": "uint256",
					"internalType": "uint256"
				}
			],
			"stateMutability": "view"
		},
		{
			"type": "function",
			"name": "getEndTime",
			"inputs": [],
			"outputs": [
				{
					"name": "",
					"type": "uint256",
					"internalType": "uint256"
				}
			],
			"stateMutability": "view"
		},
		{
			"type": "function",
			"name": "getStartTime",
			"inputs": [],
			"outputs": [
				{
					"name": "",
					"type": "uint256",
					"internalType": "uint256"
				}
			],
			"stateMutability": "view"
		},
		{
			"type": "function",
			"name": "getTokenAddress",
			"inputs": [],
			"outputs": [
				{
					"name": "",
					"type": "address",
					"internalType": "address"
				}
			],
			"stateMutability": "view"
		},
		{
			"type": "function",
			"name": "owner",
			"inputs": [],
			"outputs": [
				{
					"name": "",
					"type": "address",
					"internalType": "address"
				}
			],
			"stateMutability": "view"
		},
		{
			"type": "function",
			"name": "renounceOwnership",
			"inputs": [],
			"outputs": [],
			"stateMutability": "nonpayable"
		},
		{
			"type": "function",
			"name": "totalDonatedAmount",
			"inputs": [],
			"outputs": [
				{
					"name": "",
					"type": "uint256",
					"internalType": "uint256"
				}
			],
			"stateMutability": "view"
		},
		{
			"type": "function",
			"name": "transferOwnership",
			"inputs": [
				{
					"name": "newOwner",
					"type": "address",
					"internalType": "address"
				}
			],
			"outputs": [],
			"stateMutability": "nonpayable"
		},
		{
			"type": "function",
			"name": "withdrawFund",
			"inputs": [],
			"outputs": [],
			"stateMutability": "nonpayable"
		},
		{
			"type": "event",
			"name": "CharityDonated",
			"inputs": [
				{
					"name": "donator",
					"type": "address",
					"indexed": true,
					"internalType": "address"
				},
				{
					"name": "amount",
					"type": "uint256",
					"indexed": false,
					"internalType": "uint256"
				}
			],
			"anonymous": false
		},
		{
			"type": "event",
			"name": "OwnershipTransferred",
			"inputs": [
				{
					"name": "previousOwner",
					"type": "address",
					"indexed": true,
					"internalType": "address"
				},
				{
					"name": "newOwner",
					"type": "address",
					"indexed": true,
					"internalType": "address"
				}
			],
			"anonymous": false
		},
		{
			"type": "error",
			"name": "CharityAlreadyExists",
			"inputs": []
		},
		{
			"type": "error",
			"name": "OwnableInvalidOwner",
			"inputs": [
				{
					"name": "owner",
					"type": "address",
					"internalType": "address"
				}
			]
		},
		{
			"type": "error",
			"name": "OwnableUnauthorizedAccount",
			"inputs": [
				{
					"name": "account",
					"type": "address",
					"internalType": "address"
				}
			]
		},
		{
			"type": "error",
			"name": "ReentrancyGuardReentrantCall",
			"inputs": []
		}
	],
	"bytecode": {
		"object": "0x6080604052346100335761001d610014610156565b93929092610269565b610025610038565b610fe76104468239610fe790f35b61003e565b60405190565b5f80fd5b601f801991011690565b634e487b7160e01b5f52604160045260245ffd5b9061006a90610042565b810190811060018060401b0382111761008257604052565b61004c565b9061009a610093610038565b9283610060565b565b5f80fd5b90565b6100ac816100a0565b036100b357565b5f80fd5b905051906100c4826100a3565b565b60018060a01b031690565b6100da906100c6565b90565b6100e6816100d1565b036100ed57565b5f80fd5b905051906100fe826100dd565b565b919060a08382031261015157610118815f85016100b7565b9261012682602083016100f1565b9261014e61013784604085016100b7565b9361014581606086016100b7565b936080016100b7565b90565b61009c565b61017461142d8038038061016981610087565b928339810190610100565b9091929394565b5f1b90565b9061018c5f199161017b565b9181191691161790565b90565b6101ad6101a86101b2926100a0565b610196565b6100a0565b90565b90565b906101cd6101c86101d492610199565b6101b5565b8254610180565b9055565b906101e960018060a01b039161017b565b9181191691161790565b61020761020261020c926100c6565b610196565b6100c6565b90565b610218906101f3565b90565b6102249061020f565b90565b90565b9061023f61023a6102469261021b565b610227565b82546101d8565b9055565b90565b61026161025c6102669261024a565b610196565b6100a0565b90565b6102ad926102996102b696959361028f6102a394610286336102f7565b5f6004016101b8565b600160040161022a565b60026004016101b8565b60036004016101b8565b600480016101b8565b6102c96102c25f61024d565b60036101b8565b565b90565b6102e26102dd6102e7926102cb565b610196565b6100a0565b90565b6102f460016102ce565b90565b6103009061035e565b61031261030b6102ea565b60016101b8565b565b61032861032361032d9261024a565b610196565b6100c6565b90565b61033990610314565b90565b610345906100d1565b9052565b919061035c905f6020850194019061033c565b565b8061037961037361036e5f610330565b6100d1565b916100d1565b1461038957610387906103e6565b565b6103ac6103955f610330565b5f918291631e4fbdf760e01b835260048301610349565b0390fd5b5f1c90565b60018060a01b031690565b6103cc6103d1916103b0565b6103b5565b90565b6103de90546103c0565b90565b5f0190565b6103ef5f6103d4565b6103f9825f61022a565b9061042d6104277f8be0079c531659141344cd1fd0a4f28419497f9722a3daafe3b4186f6b6457e09361021b565b9161021b565b91610436610038565b80610440816103e1565b0390a356fe60806040526004361015610013575b610668565b61001d5f3561010c565b8063022f63881461010757806310fe9ae81461010257806320fa44cd146100fd57806330a67d1e146100f8578063439f5ac2146100f3578063715018a6146100ee5780638da5cb5b146100e9578063b03b5719146100e4578063c1a66a7f146100df578063c2ab3966146100da578063c317362b146100d5578063c828371e146100d0578063d0e30db0146100cb578063e07fa3c1146100c65763f2fde38b0361000e57610635565b610602565b6105d9565b6105a4565b61056f565b610536565b61046c565b610437565b610402565b6103cf565b610395565b61035c565b6102da565b610296565b610230565b60e01c90565b60405190565b5f80fd5b5f80fd5b60018060a01b031690565b61013490610120565b90565b6101408161012b565b0361014757565b5f80fd5b9050359061015882610137565b565b9060208282031261017357610170915f0161014b565b90565b61011c565b90565b61018f61018a61019492610120565b610178565b610120565b90565b6101a09061017b565b90565b6101ac90610197565b90565b906101b9906101a3565b5f5260205260405f2090565b1c90565b90565b6101dc9060086101e193026101c5565b6101c9565b90565b906101ef91546101cc565b90565b610208906102036002915f926101af565b6101e4565b90565b90565b6102179061020b565b9052565b919061022e905f6020850194019061020e565b565b346102605761025c61024b61024636600461015a565b6101f2565b610253610112565b9182918261021b565b0390f35b610118565b5f91031261026f57565b61011c565b61027d9061012b565b9052565b9190610294905f60208501940190610274565b565b346102c6576102a6366004610265565b6102c26102b1610670565b6102b9610112565b91829182610281565b0390f35b610118565b6102d760035f906101e4565b90565b3461030a576102ea366004610265565b6103066102f56102cb565b6102fd610112565b9182918261021b565b0390f35b610118565b9095949261035a946103496103539261033f60809661033560a088019c5f89019061020e565b6020870190610274565b604085019061020e565b606083019061020e565b019061020e565b565b346103905761036c366004610265565b61038c61037761068d565b91610383959395610112565b9586958661030f565b0390f35b610118565b346103c5576103a5366004610265565b6103c16103b0610704565b6103b8610112565b9182918261021b565b0390f35b610118565b5f0190565b346103fd576103df366004610265565b6103e761076d565b6103ef610112565b806103f9816103ca565b0390f35b610118565b3461043257610412366004610265565b61042e61041d610777565b610425610112565b91829182610281565b0390f35b610118565b346104675761046361045261044d36600461015a565b61078c565b61045a610112565b9182918261021b565b0390f35b610118565b3461049c5761047c366004610265565b6104986104876107ab565b61048f610112565b9182918261021b565b0390f35b610118565b5f1c90565b6104b26104b7916104a1565b6101c9565b90565b6104c490546104a6565b90565b60018060a01b031690565b6104de6104e3916104a1565b6104c7565b90565b6104f090546104d2565b90565b60046105005f82016104ba565b9161050d600183016104e6565b9161051a600282016104ba565b91610533600461052c600385016104ba565b93016104ba565b90565b3461056a57610546366004610265565b6105666105516104f3565b9161055d959395610112565b9586958661030f565b0390f35b610118565b3461059f5761057f366004610265565b61059b61058a6107c3565b610592610112565b9182918261021b565b0390f35b610118565b346105d4576105b4366004610265565b6105d06105bf6107db565b6105c7610112565b9182918261021b565b0390f35b610118565b6105e4366004610265565b6105ec6109d6565b6105f4610112565b806105fe816103ca565b0390f35b3461063057610612366004610265565b61061a610d7b565b610622610112565b8061062c816103ca565b0390f35b610118565b346106635761064d61064836600461015a565b610dea565b610655610112565b8061065f816103ca565b0390f35b610118565b5f80fd5b5f90565b61067861066c565b5061068660016004016104e6565b90565b5f90565b610695610689565b5061069e61066c565b506106a7610689565b506106b0610689565b506106b9610689565b506106c65f6004016104ba565b6106d360016004016104e6565b916106e160026004016104ba565b916106ef60036004016104ba565b916106fc600480016104ba565b919493929190565b61070c610689565b5061071a60036004016104ba565b90565b610725610df5565b61072d61075a565b565b90565b61074661074161074b9261072f565b610178565b610120565b90565b61075790610732565b90565b61076b6107665f61074e565b610e81565b565b61077561071d565b565b61077f61066c565b506107895f6104e6565b90565b6107a36107a89161079b610689565b5060026101af565b6104ba565b90565b6107b3610689565b506107c05f6004016104ba565b90565b6107cb610689565b506107d8600480016104ba565b90565b6107e3610689565b506107f160026004016104ba565b90565b60209181520190565b5f7f43686172697479206973206e6f74206163746976650000000000000000000000910152565b61083160156020926107f4565b61083a816107fd565b0190565b6108539060208101905f818303910152610824565b90565b1561085d57565b610865610112565b62461bcd60e51b81528061087b6004820161083e565b0390fd5b61089361088e6108989261072f565b610178565b61020b565b90565b60207f7468616e20300000000000000000000000000000000000000000000000000000917f446f6e6174696f6e20616d6f756e74206d7573742062652067726561746572205f8201520152565b6108f560266040926107f4565b6108fe8161089b565b0190565b6109179060208101905f8183039101526108e8565b90565b1561092157565b610929610112565b62461bcd60e51b81528061093f60048201610902565b0390fd5b634e487b7160e01b5f52601160045260245ffd5b61096661096c9193929361020b565b9261020b565b820180921161097757565b610943565b5f1b90565b9061098d5f199161097c565b9181191691161790565b6109ab6109a66109b09261020b565b610178565b61020b565b90565b90565b906109cb6109c66109d292610997565b6109b3565b8254610981565b9055565b333490610a0b42806109fc6109f66109f160026004016104ba565b61020b565b9161020b565b10159081610ab0575b50610856565b610a2782610a21610a1b5f61087f565b9161020b565b1161091a565b610a4f82610a49610a3a600285906101af565b91610a44836104ba565b610957565b906109b6565b610a6c610a6583610a6060036104ba565b610957565b60036109b6565b610aab610a997fc736a00718432c0a23cbb8ec85d50415610b037ec5ad7d4bd46c9285137f35e0926101a3565b92610aa2610112565b9182918261021b565b0390a2565b9050610ad0610aca610ac560036004016104ba565b61020b565b9161020b565b11155f610a05565b610ae0610df5565b610ae8610aea565b565b610af2610f0c565b610afa610cf8565b610b02610f90565b565b610b0d90610197565b90565b5f7f4368617269747920676f616c206e6f7420726561636865640000000000000000910152565b610b4460186020926107f4565b610b4d81610b10565b0190565b610b669060208101905f818303910152610b37565b90565b15610b7057565b610b78610112565b62461bcd60e51b815280610b8e60048201610b51565b0390fd5b905090565b610ba25f8092610b92565b0190565b610baf90610b97565b90565b601f801991011690565b634e487b7160e01b5f52604160045260245ffd5b90610bda90610bb2565b810190811067ffffffffffffffff821117610bf457604052565b610bbc565b90610c0c610c05610112565b9283610bd0565b565b67ffffffffffffffff8111610c2c57610c28602091610bb2565b0190565b610bbc565b90610c43610c3e83610c0e565b610bf9565b918252565b606090565b3d5f14610c6857610c5d3d610c31565b903d5f602084013e5b565b610c70610c48565b90610c66565b5f7f5472616e73666572206661696c65640000000000000000000000000000000000910152565b610caa600f6020926107f4565b610cb381610c76565b0190565b610ccc9060208101905f818303910152610c9d565b90565b15610cd657565b610cde610112565b62461bcd60e51b815280610cf460048201610cb7565b0390fd5b610d29610d07600480016104ba565b610d22610d1c610d1630610b04565b3161020b565b9161020b565b1115610b69565b610d795f80610d3860036104ba565b610d4b610d448361087f565b60036109b6565b610d53610777565b90610d5c610112565b9081610d6781610ba6565b03925af1610d73610c4d565b50610ccf565b565b610d83610ad8565b565b610d9690610d91610df5565b610d98565b565b80610db3610dad610da85f61074e565b61012b565b9161012b565b14610dc357610dc190610e81565b565b610de6610dcf5f61074e565b5f918291631e4fbdf760e01b835260048301610281565b0390fd5b610df390610d85565b565b610dfd610777565b610e16610e10610e0b610fa4565b61012b565b9161012b565b03610e1d57565b610e3f610e28610fa4565b5f91829163118cdaa760e01b835260048301610281565b0390fd5b90610e5460018060a01b039161097c565b9181191691161790565b90565b90610e76610e71610e7d926101a3565b610e5e565b8254610e43565b9055565b610e8a5f6104e6565b610e94825f610e61565b90610ec8610ec27f8be0079c531659141344cd1fd0a4f28419497f9722a3daafe3b4186f6b6457e0936101a3565b916101a3565b91610ed1610112565b80610edb816103ca565b0390a3565b90565b610ef7610ef2610efc92610ee0565b610178565b61020b565b90565b610f096002610ee3565b90565b610f1660016104ba565b610f2f610f29610f24610eff565b61020b565b9161020b565b14610f4857610f46610f3f610eff565b60016109b6565b565b5f633ee5aeb560e01b815280610f60600482016103ca565b0390fd5b90565b610f7b610f76610f8092610f64565b610178565b61020b565b90565b610f8d6001610f67565b90565b610fa2610f9b610f83565b60016109b6565b565b610fac61066c565b50339056fea26469706673582212208a4b89556a8df1ec24076d86e36980736503ff4d9955692245f1b1161ea416ee64736f6c634300081a0033",
		"linkReferences": {}
	},
	"methodIdentifiers": {
		"charityInfo()": "c2ab3966",
		"deposit()": "d0e30db0",
		"donatedAmount(address)": "022f6388",
		"getCharityGoal()": "c317362b",
		"getCharityId()": "c1a66a7f",
		"getCharityInfo()": "30a67d1e",
		"getDonatedAmount(address)": "b03b5719",
		"getEndTime()": "439f5ac2",
		"getStartTime()": "c828371e",
		"getTokenAddress()": "10fe9ae8",
		"owner()": "8da5cb5b",
		"renounceOwnership()": "715018a6",
		"totalDonatedAmount()": "20fa44cd",
		"transferOwnership(address)": "f2fde38b",
		"withdrawFund()": "e07fa3c1"
	},
	"id": 22
}