{
  "abi": [
    {
      "type": "constructor",
      "inputs": [
        {
          "name": "_projectId",
          "type": "uint256",
          "internalType": "uint256"
        },
        {
          "name": "_projectOwner",
          "type": "address",
          "internalType": "address"
        },
        {
          "name": "_tokenAddress",
          "type": "address",
          "internalType": "address"
        },
        {
          "name": "_acceptedTokenAddress",
          "type": "address",
          "internalType": "address"
        },
        {
          "name": "_pricePerToken",
          "type": "uint256",
          "internalType": "uint256"
        },
        {
          "name": "_startTime",
          "type": "uint256",
          "internalType": "uint256"
        },
        {
          "name": "_endTime",
          "type": "uint256",
          "internalType": "uint256"
        },
        {
          "name": "_softCap",
          "type": "uint256",
          "internalType": "uint256"
        },
        {
          "name": "_hardCap",
          "type": "uint256",
          "internalType": "uint256"
        },
        {
          "name": "_minInvestment",
          "type": "uint256",
          "internalType": "uint256"
        },
        {
          "name": "_maxInvestment",
          "type": "uint256",
          "internalType": "uint256"
        },
        {
          "name": "_raisedAmount",
          "type": "uint256",
          "internalType": "uint256"
        },
        {
          "name": "_totalSupply",
          "type": "uint256",
          "internalType": "uint256"
        }
      ],
      "stateMutability": "nonpayable"
    },
    {
      "type": "function",
      "name": "PLATFORM",
      "inputs": [],
      "outputs": [
        {
          "name": "",
          "type": "address",
          "internalType": "address"
        }
      ],
      "stateMutability": "view"
    },
    {
      "type": "function",
      "name": "acceptedToken",
      "inputs": [],
      "outputs": [
        {
          "name": "",
          "type": "address",
          "internalType": "contract ERC20"
        }
      ],
      "stateMutability": "view"
    },
    {
      "type": "function",
      "name": "claimToken",
      "inputs": [],
      "outputs": [],
      "stateMutability": "nonpayable"
    },
    {
      "type": "function",
      "name": "deposit",
      "inputs": [
        {
          "name": "amount",
          "type": "uint256",
          "internalType": "uint256"
        }
      ],
      "outputs": [],
      "stateMutability": "payable"
    },
    {
      "type": "function",
      "name": "depositProjectTokens",
      "inputs": [
        {
          "name": "amount",
          "type": "uint256",
          "internalType": "uint256"
        }
      ],
      "outputs": [],
      "stateMutability": "nonpayable"
    },
    {
      "type": "function",
      "name": "fee",
      "inputs": [],
      "outputs": [
        {
          "name": "",
          "type": "uint256",
          "internalType": "uint256"
        }
      ],
      "stateMutability": "view"
    },
    {
      "type": "function",
      "name": "getAcceptedToken",
      "inputs": [],
      "outputs": [
        {
          "name": "",
          "type": "address",
          "internalType": "contract ERC20"
        }
      ],
      "stateMutability": "view"
    },
    {
      "type": "function",
      "name": "getAcceptedTokenBalance",
      "inputs": [],
      "outputs": [
        {
          "name": "",
          "type": "uint256",
          "internalType": "uint256"
        }
      ],
      "stateMutability": "view"
    },
    {
      "type": "function",
      "name": "getEndTime",
      "inputs": [],
      "outputs": [
        {
          "name": "",
          "type": "uint256",
          "internalType": "uint256"
        }
      ],
      "stateMutability": "view"
    },
    {
      "type": "function",
      "name": "getHardCap",
      "inputs": [],
      "outputs": [
        {
          "name": "",
          "type": "uint256",
          "internalType": "uint256"
        }
      ],
      "stateMutability": "view"
    },
    {
      "type": "function",
      "name": "getLaunchpadAllInfo",
      "inputs": [],
      "outputs": [
        {
          "name": "",
          "type": "tuple",
          "internalType": "struct Launchpad.LaunchpadInfo",
          "components": [
            {
              "name": "projectOwner",
              "type": "address",
              "internalType": "address"
            },
            {
              "name": "projectId",
              "type": "uint256",
              "internalType": "uint256"
            },
            {
              "name": "tokenAddress",
              "type": "address",
              "internalType": "address"
            },
            {
              "name": "acceptedTokenAddress",
              "type": "address",
              "internalType": "address"
            },
            {
              "name": "pricePerToken",
              "type": "uint256",
              "internalType": "uint256"
            },
            {
              "name": "startTime",
              "type": "uint256",
              "internalType": "uint256"
            },
            {
              "name": "endTime",
              "type": "uint256",
              "internalType": "uint256"
            },
            {
              "name": "softCap",
              "type": "uint256",
              "internalType": "uint256"
            },
            {
              "name": "hardCap",
              "type": "uint256",
              "internalType": "uint256"
            },
            {
              "name": "minInvestment",
              "type": "uint256",
              "internalType": "uint256"
            },
            {
              "name": "maxInvestment",
              "type": "uint256",
              "internalType": "uint256"
            },
            {
              "name": "raisedAmount",
              "type": "uint256",
              "internalType": "uint256"
            },
            {
              "name": "totalSupply",
              "type": "uint256",
              "internalType": "uint256"
            }
          ]
        }
      ],
      "stateMutability": "view"
    },
    {
      "type": "function",
      "name": "getLaunchpadInfo",
      "inputs": [],
      "outputs": [
        {
          "name": "",
          "type": "tuple",
          "internalType": "struct Launchpad.LaunchpadInfo",
          "components": [
            {
              "name": "projectOwner",
              "type": "address",
              "internalType": "address"
            },
            {
              "name": "projectId",
              "type": "uint256",
              "internalType": "uint256"
            },
            {
              "name": "tokenAddress",
              "type": "address",
              "internalType": "address"
            },
            {
              "name": "acceptedTokenAddress",
              "type": "address",
              "internalType": "address"
            },
            {
              "name": "pricePerToken",
              "type": "uint256",
              "internalType": "uint256"
            },
            {
              "name": "startTime",
              "type": "uint256",
              "internalType": "uint256"
            },
            {
              "name": "endTime",
              "type": "uint256",
              "internalType": "uint256"
            },
            {
              "name": "softCap",
              "type": "uint256",
              "internalType": "uint256"
            },
            {
              "name": "hardCap",
              "type": "uint256",
              "internalType": "uint256"
            },
            {
              "name": "minInvestment",
              "type": "uint256",
              "internalType": "uint256"
            },
            {
              "name": "maxInvestment",
              "type": "uint256",
              "internalType": "uint256"
            },
            {
              "name": "raisedAmount",
              "type": "uint256",
              "internalType": "uint256"
            },
            {
              "name": "totalSupply",
              "type": "uint256",
              "internalType": "uint256"
            }
          ]
        }
      ],
      "stateMutability": "view"
    },
    {
      "type": "function",
      "name": "getMaxInvestment",
      "inputs": [],
      "outputs": [
        {
          "name": "",
          "type": "uint256",
          "internalType": "uint256"
        }
      ],
      "stateMutability": "view"
    },
    {
      "type": "function",
      "name": "getMinInvestment",
      "inputs": [],
      "outputs": [
        {
          "name": "",
          "type": "uint256",
          "internalType": "uint256"
        }
      ],
      "stateMutability": "view"
    },
    {
      "type": "function",
      "name": "getPlatformProfit",
      "inputs": [],
      "outputs": [
        {
          "name": "",
          "type": "uint256",
          "internalType": "uint256"
        }
      ],
      "stateMutability": "view"
    },
    {
      "type": "function",
      "name": "getPricePerToken",
      "inputs": [],
      "outputs": [
        {
          "name": "",
          "type": "uint256",
          "internalType": "uint256"
        }
      ],
      "stateMutability": "view"
    },
    {
      "type": "function",
      "name": "getProjectId",
      "inputs": [],
      "outputs": [
        {
          "name": "",
          "type": "uint256",
          "internalType": "uint256"
        }
      ],
      "stateMutability": "view"
    },
    {
      "type": "function",
      "name": "getProjectOwnerAddress",
      "inputs": [],
      "outputs": [
        {
          "name": "",
          "type": "address",
          "internalType": "address"
        }
      ],
      "stateMutability": "view"
    },
    {
      "type": "function",
      "name": "getProjectOwnerBalance",
      "inputs": [],
      "outputs": [
        {
          "name": "",
          "type": "uint256",
          "internalType": "uint256"
        }
      ],
      "stateMutability": "view"
    },
    {
      "type": "function",
      "name": "getProjectToken",
      "inputs": [],
      "outputs": [
        {
          "name": "",
          "type": "address",
          "internalType": "contract ERC20"
        }
      ],
      "stateMutability": "view"
    },
    {
      "type": "function",
      "name": "getProjectTokenBalance",
      "inputs": [],
      "outputs": [
        {
          "name": "",
          "type": "uint256",
          "internalType": "uint256"
        }
      ],
      "stateMutability": "view"
    },
    {
      "type": "function",
      "name": "getRaisedAmount",
      "inputs": [],
      "outputs": [
        {
          "name": "",
          "type": "uint256",
          "internalType": "uint256"
        }
      ],
      "stateMutability": "view"
    },
    {
      "type": "function",
      "name": "getReceivableProjectTokenAmount",
      "inputs": [
        {
          "name": "user",
          "type": "address",
          "internalType": "address"
        }
      ],
      "outputs": [
        {
          "name": "",
          "type": "uint256",
          "internalType": "uint256"
        }
      ],
      "stateMutability": "view"
    },
    {
      "type": "function",
      "name": "getSoftCap",
      "inputs": [],
      "outputs": [
        {
          "name": "",
          "type": "uint256",
          "internalType": "uint256"
        }
      ],
      "stateMutability": "view"
    },
    {
      "type": "function",
      "name": "getStartTime",
      "inputs": [],
      "outputs": [
        {
          "name": "",
          "type": "uint256",
          "internalType": "uint256"
        }
      ],
      "stateMutability": "view"
    },
    {
      "type": "function",
      "name": "getTokenAddress",
      "inputs": [],
      "outputs": [
        {
          "name": "",
          "type": "address",
          "internalType": "address"
        }
      ],
      "stateMutability": "view"
    },
    {
      "type": "function",
      "name": "getTotalSupply",
      "inputs": [],
      "outputs": [
        {
          "name": "",
          "type": "uint256",
          "internalType": "uint256"
        }
      ],
      "stateMutability": "view"
    },
    {
      "type": "function",
      "name": "getUserDeposit",
      "inputs": [],
      "outputs": [
        {
          "name": "",
          "type": "uint256",
          "internalType": "uint256"
        }
      ],
      "stateMutability": "view"
    },
    {
      "type": "function",
      "name": "getUserDeposits",
      "inputs": [
        {
          "name": "user",
          "type": "address",
          "internalType": "address"
        }
      ],
      "outputs": [
        {
          "name": "",
          "type": "uint256",
          "internalType": "uint256"
        }
      ],
      "stateMutability": "view"
    },
    {
      "type": "function",
      "name": "isLaunchpadEnded",
      "inputs": [],
      "outputs": [
        {
          "name": "",
          "type": "bool",
          "internalType": "bool"
        }
      ],
      "stateMutability": "view"
    },
    {
      "type": "function",
      "name": "isSoftcapReached",
      "inputs": [],
      "outputs": [
        {
          "name": "",
          "type": "bool",
          "internalType": "bool"
        }
      ],
      "stateMutability": "view"
    },
    {
      "type": "function",
      "name": "launchpad",
      "inputs": [],
      "outputs": [
        {
          "name": "projectOwner",
          "type": "address",
          "internalType": "address"
        },
        {
          "name": "projectId",
          "type": "uint256",
          "internalType": "uint256"
        },
        {
          "name": "tokenAddress",
          "type": "address",
          "internalType": "address"
        },
        {
          "name": "acceptedTokenAddress",
          "type": "address",
          "internalType": "address"
        },
        {
          "name": "pricePerToken",
          "type": "uint256",
          "internalType": "uint256"
        },
        {
          "name": "startTime",
          "type": "uint256",
          "internalType": "uint256"
        },
        {
          "name": "endTime",
          "type": "uint256",
          "internalType": "uint256"
        },
        {
          "name": "softCap",
          "type": "uint256",
          "internalType": "uint256"
        },
        {
          "name": "hardCap",
          "type": "uint256",
          "internalType": "uint256"
        },
        {
          "name": "minInvestment",
          "type": "uint256",
          "internalType": "uint256"
        },
        {
          "name": "maxInvestment",
          "type": "uint256",
          "internalType": "uint256"
        },
        {
          "name": "raisedAmount",
          "type": "uint256",
          "internalType": "uint256"
        },
        {
          "name": "totalSupply",
          "type": "uint256",
          "internalType": "uint256"
        }
      ],
      "stateMutability": "view"
    },
    {
      "type": "function",
      "name": "owner",
      "inputs": [],
      "outputs": [
        {
          "name": "",
          "type": "address",
          "internalType": "address"
        }
      ],
      "stateMutability": "view"
    },
    {
      "type": "function",
      "name": "projectToken",
      "inputs": [],
      "outputs": [
        {
          "name": "",
          "type": "address",
          "internalType": "contract ERC20"
        }
      ],
      "stateMutability": "view"
    },
    {
      "type": "function",
      "name": "refundToken",
      "inputs": [],
      "outputs": [],
      "stateMutability": "nonpayable"
    },
    {
      "type": "function",
      "name": "renounceOwnership",
      "inputs": [],
      "outputs": [],
      "stateMutability": "nonpayable"
    },
    {
      "type": "function",
      "name": "setEndTime",
      "inputs": [
        {
          "name": "_endTime",
          "type": "uint256",
          "internalType": "uint256"
        }
      ],
      "outputs": [],
      "stateMutability": "nonpayable"
    },
    {
      "type": "function",
      "name": "setFee",
      "inputs": [
        {
          "name": "_fee",
          "type": "uint256",
          "internalType": "uint256"
        }
      ],
      "outputs": [],
      "stateMutability": "nonpayable"
    },
    {
      "type": "function",
      "name": "setHardCap",
      "inputs": [
        {
          "name": "_hardCap",
          "type": "uint256",
          "internalType": "uint256"
        }
      ],
      "outputs": [],
      "stateMutability": "nonpayable"
    },
    {
      "type": "function",
      "name": "setMaxInvestment",
      "inputs": [
        {
          "name": "_maxInvestment",
          "type": "uint256",
          "internalType": "uint256"
        }
      ],
      "outputs": [],
      "stateMutability": "nonpayable"
    },
    {
      "type": "function",
      "name": "setMinInvestment",
      "inputs": [
        {
          "name": "_minInvestment",
          "type": "uint256",
          "internalType": "uint256"
        }
      ],
      "outputs": [],
      "stateMutability": "nonpayable"
    },
    {
      "type": "function",
      "name": "setPlatformAddress",
      "inputs": [
        {
          "name": "_platform",
          "type": "address",
          "internalType": "address"
        }
      ],
      "outputs": [],
      "stateMutability": "nonpayable"
    },
    {
      "type": "function",
      "name": "setPricePerToken",
      "inputs": [
        {
          "name": "_pricePerToken",
          "type": "uint256",
          "internalType": "uint256"
        }
      ],
      "outputs": [],
      "stateMutability": "nonpayable"
    },
    {
      "type": "function",
      "name": "setProjectOwner",
      "inputs": [
        {
          "name": "_projectOwner",
          "type": "address",
          "internalType": "address"
        }
      ],
      "outputs": [],
      "stateMutability": "nonpayable"
    },
    {
      "type": "function",
      "name": "setSoftCap",
      "inputs": [
        {
          "name": "_softCap",
          "type": "uint256",
          "internalType": "uint256"
        }
      ],
      "outputs": [],
      "stateMutability": "nonpayable"
    },
    {
      "type": "function",
      "name": "setStartTime",
      "inputs": [
        {
          "name": "_startTime",
          "type": "uint256",
          "internalType": "uint256"
        }
      ],
      "outputs": [],
      "stateMutability": "nonpayable"
    },
    {
      "type": "function",
      "name": "setTokenAddress",
      "inputs": [
        {
          "name": "_tokenAddress",
          "type": "address",
          "internalType": "address"
        }
      ],
      "outputs": [],
      "stateMutability": "nonpayable"
    },
    {
      "type": "function",
      "name": "setUserDeposits",
      "inputs": [
        {
          "name": "user",
          "type": "address",
          "internalType": "address"
        },
        {
          "name": "amount",
          "type": "uint256",
          "internalType": "uint256"
        }
      ],
      "outputs": [],
      "stateMutability": "nonpayable"
    },
    {
      "type": "function",
      "name": "transferOwnership",
      "inputs": [
        {
          "name": "newOwner",
          "type": "address",
          "internalType": "address"
        }
      ],
      "outputs": [],
      "stateMutability": "nonpayable"
    },
    {
      "type": "function",
      "name": "userDeposits",
      "inputs": [
        {
          "name": "",
          "type": "address",
          "internalType": "address"
        }
      ],
      "outputs": [
        {
          "name": "",
          "type": "uint256",
          "internalType": "uint256"
        }
      ],
      "stateMutability": "view"
    },
    {
      "type": "function",
      "name": "withdraw",
      "inputs": [],
      "outputs": [],
      "stateMutability": "nonpayable"
    },
    {
      "type": "event",
      "name": "Claimed",
      "inputs": [
        {
          "name": "user",
          "type": "address",
          "indexed": false,
          "internalType": "address"
        },
        {
          "name": "amount",
          "type": "uint256",
          "indexed": false,
          "internalType": "uint256"
        }
      ],
      "anonymous": false
    },
    {
      "type": "event",
      "name": "Deposited",
      "inputs": [
        {
          "name": "user",
          "type": "address",
          "indexed": false,
          "internalType": "address"
        },
        {
          "name": "amount",
          "type": "uint256",
          "indexed": false,
          "internalType": "uint256"
        }
      ],
      "anonymous": false
    },
    {
      "type": "event",
      "name": "OwnershipTransferred",
      "inputs": [
        {
          "name": "previousOwner",
          "type": "address",
          "indexed": true,
          "internalType": "address"
        },
        {
          "name": "newOwner",
          "type": "address",
          "indexed": true,
          "internalType": "address"
        }
      ],
      "anonymous": false
    },
    {
      "type": "event",
      "name": "ProjectTokenDeposited",
      "inputs": [
        {
          "name": "projectOwner",
          "type": "address",
          "indexed": false,
          "internalType": "address"
        },
        {
          "name": "amount",
          "type": "uint256",
          "indexed": false,
          "internalType": "uint256"
        }
      ],
      "anonymous": false
    },
    {
      "type": "event",
      "name": "Refund",
      "inputs": [
        {
          "name": "user",
          "type": "address",
          "indexed": false,
          "internalType": "address"
        },
        {
          "name": "amount",
          "type": "uint256",
          "indexed": false,
          "internalType": "uint256"
        }
      ],
      "anonymous": false
    },
    {
      "type": "event",
      "name": "Withdraw",
      "inputs": [
        {
          "name": "projectOwner",
          "type": "address",
          "indexed": false,
          "internalType": "address"
        },
        {
          "name": "amount",
          "type": "uint256",
          "indexed": false,
          "internalType": "uint256"
        }
      ],
      "anonymous": false
    },
    {
      "type": "event",
      "name": "WithdrawProfit",
      "inputs": [
        {
          "name": "PLATFORM",
          "type": "address",
          "indexed": false,
          "internalType": "address"
        },
        {
          "name": "amount",
          "type": "uint256",
          "indexed": false,
          "internalType": "uint256"
        }
      ],
      "anonymous": false
    },
    {
      "type": "error",
      "name": "ERC20TransferFailed",
      "inputs": []
    },
    {
      "type": "error",
      "name": "HardCapOverflow",
      "inputs": []
    },
    {
      "type": "error",
      "name": "IsNotDeposited",
      "inputs": []
    },
    {
      "type": "error",
      "name": "LaunchpadNotInTimeFrame",
      "inputs": []
    },
    {
      "type": "error",
      "name": "MaxInvestOverflow",
      "inputs": []
    },
    {
      "type": "error",
      "name": "MinInvestNotExceed",
      "inputs": []
    },
    {
      "type": "error",
      "name": "OwnableInvalidOwner",
      "inputs": [
        {
          "name": "owner",
          "type": "address",
          "internalType": "address"
        }
      ]
    },
    {
      "type": "error",
      "name": "OwnableUnauthorizedAccount",
      "inputs": [
        {
          "name": "account",
          "type": "address",
          "internalType": "address"
        }
      ]
    },
    {
      "type": "error",
      "name": "ReentrancyGuardReentrantCall",
      "inputs": []
    },
    {
      "type": "error",
      "name": "SafeERC20FailedOperation",
      "inputs": [
        {
          "name": "token",
          "type": "address",
          "internalType": "address"
        }
      ]
    },
    {
      "type": "error",
      "name": "SoftCapNotReach",
      "inputs": []
    }
  ],
  "bytecode": {
    "object": "0x60806040523461003f576100296100146101d6565b9b9a909a99919998929897939796949661062c565b610031610044565b6132e0610a9f82396132e090f35b61004a565b60405190565b5f80fd5b601f801991011690565b634e487b7160e01b5f52604160045260245ffd5b906100769061004e565b810190811060018060401b0382111761008e57604052565b610058565b906100a661009f610044565b928361006c565b565b5f80fd5b90565b6100b8816100ac565b036100bf57565b5f80fd5b905051906100d0826100af565b565b60018060a01b031690565b6100e6906100d2565b90565b6100f2816100dd565b036100f957565b5f80fd5b9050519061010a826100e9565b565b6101a0818303126101d157610123825f83016100c3565b9261013183602084016100fd565b9261013f81604085016100fd565b9261014d82606083016100fd565b9261015b83608084016100c3565b926101698160a085016100c3565b926101778260c083016100c3565b926101858360e084016100c3565b926101948161010085016100c3565b926101a38261012083016100c3565b926101ce6101b58461014085016100c3565b936101c48161016086016100c3565b93610180016100c3565b90565b6100a8565b6101f4613d7f803803806101e981610093565b92833981019061010c565b909192939495969798999a9b9c565b5f1b90565b9061021960018060a01b0391610203565b9181191691161790565b90565b61023a61023561023f926100d2565b610223565b6100d2565b90565b61024b90610226565b90565b61025790610242565b90565b90565b9061027261026d6102799261024e565b61025a565b8254610208565b9055565b60209181520190565b60207f6d65000000000000000000000000000000000000000000000000000000000000917f53746172742074696d65206d757374206265206265666f726520656e642074695f8201520152565b6102e0602260409261027d565b6102e981610286565b0190565b6103029060208101905f8183039101526102d3565b90565b1561030c57565b610314610044565b62461bcd60e51b81528061032a600482016102ed565b0390fd5b60207f6361700000000000000000000000000000000000000000000000000000000000917f536f667420636170206d757374206265206c657373207468616e2068617264205f8201520152565b610388602360409261027d565b6103918161032e565b0190565b6103aa9060208101905f81830391015261037b565b90565b156103b457565b6103bc610044565b62461bcd60e51b8152806103d260048201610395565b0390fd5b60207f7468616e206d6178696d756d20696e766573746d656e74000000000000000000917f4d696e696d756d20696e766573746d656e74206d757374206265206c657373205f8201520152565b610430603760409261027d565b610439816103d6565b0190565b6104529060208101905f818303910152610423565b90565b1561045c57565b610464610044565b62461bcd60e51b81528061047a6004820161043d565b0390fd5b9061048a5f1991610203565b9181191691161790565b6104a86104a36104ad926100ac565b610223565b6100ac565b90565b90565b906104c86104c36104cf92610494565b6104b0565b825461047e565b9055565b6104dc90610226565b90565b6104e8906104d3565b90565b6104f4906104d3565b90565b90565b9061050f61050a610516926104eb565b6104f7565b8254610208565b9055565b5f1c90565b60018060a01b031690565b61053661053b9161051a565b61051f565b90565b610548905461052a565b90565b61055490610242565b90565b60e01b90565b60ff1690565b61056c8161055d565b0361057357565b5f80fd5b9050519061058482610563565b565b9060208282031261059f5761059c915f01610577565b90565b6100a8565b5f0190565b6105b1610044565b3d5f823e3d90fd5b90565b6105d06105cb6105d5926105b9565b610223565b61055d565b90565b634e487b7160e01b5f52601160045260245ffd5b6105f86105fe9161055d565b9161055d565b90039060ff821161060b57565b6105d8565b6106199061055d565b604d811161062757600a0a90565b6105d8565b8a6107648b61079f9f969d6107989f95999c8f6107939f9d61078c9f8a9f9e6107879f8f926107829f610732906107789f6107509861076e9f6107299261071561071f9261075a9f8f9c6107028f926107469f8f61073c9f8f6106fc936106ea6106e461070b9a6106de6106f6976106d86106d26106f0986106ad33610873565b6106cc73b93b321b734812fe459f22e5bde5d5f3b165d192601261025d565b926100ac565b916100ac565b10610305565b926100ac565b916100ac565b106103ad565b926100ac565b916100ac565b10610455565b5f60040161025d565b60016004016104b3565b600260040161025d565b600360040161025d565b600480016104b3565b60056004016104b3565b60066004016104b3565b60076004016104b3565b60086004016104b3565b60096004016104b3565b600a6004016104b3565b600b6004016104b3565b600c6004016104b3565b610994565b6104df565b60026104fa565b6104df565b60036104fa565b6107cc60206107b66107b1600361053e565b61054b565b63313ce567906107c4610044565b938492610557565b825281806107dc600482016105a4565b03915afa80156108455761080961080e91610815935f91610817575b5061080360016105bc565b906105ec565b610610565b60136104b3565b565b610838915060203d811161083e575b610830818361006c565b810190610586565b5f6107f8565b503d610826565b6105a9565b61085e610859610863926105b9565b610223565b6100ac565b90565b610870600161084a565b90565b61087c906108dd565b61088e610887610866565b60016104b3565b565b90565b6108a76108a26108ac92610890565b610223565b6100d2565b90565b6108b890610893565b90565b6108c4906100dd565b9052565b91906108db905f602085019401906108bb565b565b806108f86108f26108ed5f6108af565b6100dd565b916100dd565b1461090857610906906109cb565b565b61092b6109145f6108af565b5f918291631e4fbdf760e01b8352600483016108c8565b0390fd5b6109409061093b610a2a565b610942565b565b8061095d6109576109525f6108af565b6100dd565b916100dd565b1461096d5761096b906109cb565b565b6109906109795f6108af565b5f918291631e4fbdf760e01b8352600483016108c8565b0390fd5b61099d9061092f565b565b60018060a01b031690565b6109b66109bb9161051a565b61099f565b90565b6109c890546109aa565b90565b6109d45f6109be565b6109de825f61025d565b90610a12610a0c7f8be0079c531659141344cd1fd0a4f28419497f9722a3daafe3b4186f6b6457e09361024e565b9161024e565b91610a1b610044565b80610a25816105a4565b0390a3565b610a32610a7c565b610a4b610a45610a40610a91565b6100dd565b916100dd565b03610a5257565b610a74610a5d610a91565b5f91829163118cdaa760e01b8352600483016108c8565b0390fd5b5f90565b610a84610a78565b50610a8e5f6109be565b90565b610a99610a78565b50339056fe60806040526004361015610013575b61134e565b61001d5f3561034c565b806302669b521461034757806306df7a4d1461034257806307a5254e1461033d5780630ba36dcd1461033857806310fe9ae8146103335780631270e10c1461032e5780631f786b001461032957806326a4e8d21461032457806327b12bb21461031f5780632a5bf6d21461031a5780632bf2762f146103155780633ccfd60b146103105780633e0a322d1461030b578063423d26aa14610306578063439f5ac2146103015780634451d89f146102fc578063451c3d80146102f75780634837c596146102f25780634b60ce77146102ed5780634d52a512146102e857806359baf5fa146102e35780635cb732be146102de57806369fe0e2d146102d9578063715018a6146102d4578063724ae9d0146102cf5780637a6a4740146102ca5780637efc77fa146102c55780638234e0e3146102c057806383d430cd146102bb5780638da5cb5b146102b65780638e75e482146102b157806394aef7a0146102ac578063962f0215146102a7578063a18f4ba0146102a2578063a2416f741461029d578063a91098e514610298578063b6b55f2514610293578063ba7ed2ff1461028e578063bf0a07bd14610289578063c4e41b2214610284578063c828371e1461027f578063c92651a71461027a578063ca1e973814610275578063cc03c34214610270578063ccb98ffc1461026b578063d18d944b14610266578063d5cf5c7214610261578063ddca3f431461025c578063eb6d10da14610257578063f2fde38b146102525763fb76e9780361000e5761131b565b6112e8565b6112b3565b61127e565b61123c565b611209565b6111d6565b6111a3565b61116e565b61113b565b611106565b6110d1565b61109c565b611069565b611040565b61100b565b610fd8565b610fa3565b610f6e565b610f3a565b610ed8565b610ea3565b610e6e565b610e39565b610e04565b610d9a565b610d65565b610d32565b610cff565b610ccc565b610c97565b610c62565b610c2d565b610be9565b610bb4565b610b13565b610ade565b610aa9565b610a4f565b610a1c565b6109e9565b610973565b61093e565b6107e8565b6107ae565b610779565b610744565b6106fa565b610635565b6105bf565b610565565b60e01c90565b60405190565b5f80fd5b5f80fd5b5f91031261036a57565b61035c565b5f1c90565b60018060a01b031690565b61038b6103909161036f565b610374565b90565b61039d905461037f565b90565b90565b6103af6103b49161036f565b6103a0565b90565b6103c190546103a3565b90565b60046103d15f8201610393565b916103de600183016103b7565b916103eb60028201610393565b916103f860038301610393565b91610405600482016103b7565b91610412600583016103b7565b9161041f600682016103b7565b9161042c600783016103b7565b91610439600882016103b7565b91610446600983016103b7565b91610453600a82016103b7565b9161046c600c610465600b85016103b7565b93016103b7565b90565b60018060a01b031690565b6104839061046f565b90565b61048f9061047a565b9052565b90565b61049f90610493565b9052565b9a98969492909d9c9b99979593916101a08c019e5f8d016104c391610486565b60208c016104d091610496565b60408b016104dd91610486565b60608a016104ea91610486565b608089016104f791610496565b60a0880161050491610496565b60c0870161051191610496565b60e0860161051e91610496565b610100850161052c91610496565b610120840161053a91610496565b610140830161054891610496565b610160820161055691610496565b6101800161056391610496565b565b346105a557610575366004610360565b6105a16105806103c4565b996105989d9b9d999199989298979397969496610352565b9d8e9d8e6104a3565b0390f35b610358565b91906105bd905f60208501940190610496565b565b346105ef576105cf366004610360565b6105eb6105da61140d565b6105e2610352565b918291826105aa565b0390f35b610358565b6105fd8161047a565b0361060457565b5f80fd5b90503590610615826105f4565b565b906020828203126106305761062d915f01610608565b90565b61035c565b346106655761066161065061064b366004610617565b611546565b610658610352565b918291826105aa565b0390f35b610358565b90565b61068161067c6106869261046f565b61066a565b61046f565b90565b6106929061066d565b90565b61069e90610689565b90565b906106ab90610695565b5f5260205260405f2090565b1c90565b6106cb9060086106d093026106b7565b6103a0565b90565b906106de91546106bb565b90565b6106f7906106f26011915f926106a1565b6106d3565b90565b3461072a57610726610715610710366004610617565b6106e1565b61071d610352565b918291826105aa565b0390f35b610358565b9190610742905f60208501940190610486565b565b3461077457610754366004610360565b61077061075f611598565b610767610352565b9182918261072f565b0390f35b610358565b346107a957610789366004610360565b6107a56107946115b1565b61079c610352565b918291826105aa565b0390f35b610358565b346107de576107be366004610360565b6107da6107c96115ca565b6107d1610352565b918291826105aa565b0390f35b610358565b5f0190565b34610816576108006107fb366004610617565b611650565b610808610352565b80610812816107e3565b0390f35b610358565b6108249061047a565b9052565b61083190610493565b9052565b90610180806109269361084e5f8201515f86019061081b565b61086060208201516020860190610828565b6108726040820151604086019061081b565b6108846060820151606086019061081b565b61089660808201516080860190610828565b6108a860a082015160a0860190610828565b6108ba60c082015160c0860190610828565b6108cc60e082015160e0860190610828565b6108e0610100820151610100860190610828565b6108f4610120820151610120860190610828565b610908610140820151610140860190610828565b61091c610160820151610160860190610828565b0151910190610828565b565b919061093c905f6101a08501940190610835565b565b3461096e5761094e366004610360565b61096a6109596118aa565b610961610352565b91829182610928565b0390f35b610358565b346109a35761099f61098e610989366004610617565b6118c0565b610996610352565b918291826105aa565b0390f35b610358565b6109b181610493565b036109b857565b5f80fd5b905035906109c9826109a8565b565b906020828203126109e4576109e1915f016109bc565b90565b61035c565b34610a1757610a016109fc3660046109cb565b611956565b610a09610352565b80610a13816107e3565b0390f35b610358565b34610a4a57610a2c366004610360565b610a34611d8a565b610a3c610352565b80610a46816107e3565b0390f35b610358565b34610a7d57610a67610a623660046109cb565b611db7565b610a6f610352565b80610a79816107e3565b0390f35b610358565b151590565b610a9090610a82565b9052565b9190610aa7905f60208501940190610a87565b565b34610ad957610ab9366004610360565b610ad5610ac4611dc6565b610acc610352565b91829182610a94565b0390f35b610358565b34610b0e57610aee366004610360565b610b0a610af9611df2565b610b01610352565b918291826105aa565b0390f35b610358565b34610b4157610b23366004610360565b610b2b612123565b610b33610352565b80610b3d816107e3565b0390f35b610358565b60018060a01b031690565b610b61906008610b6693026106b7565b610b46565b90565b90610b749154610b51565b90565b610b8360035f90610b69565b90565b610b8f90610689565b90565b610b9b90610b86565b9052565b9190610bb2905f60208501940190610b92565b565b34610be457610bc4366004610360565b610be0610bcf610b77565b610bd7610352565b91829182610b9f565b0390f35b610358565b34610c1957610bf9366004610360565b610c15610c04612131565b610c0c610352565b91829182610b9f565b0390f35b610358565b610c2a60025f90610b69565b90565b34610c5d57610c3d366004610360565b610c59610c48610c1e565b610c50610352565b91829182610b9f565b0390f35b610358565b34610c9257610c72366004610360565b610c8e610c7d612147565b610c85610352565b918291826105aa565b0390f35b610358565b34610cc757610ca7366004610360565b610cc3610cb2612160565b610cba610352565b918291826105aa565b0390f35b610358565b34610cfa57610cdc366004610360565b610ce4612325565b610cec610352565b80610cf6816107e3565b0390f35b610358565b34610d2d57610d17610d123660046109cb565b6123b1565b610d1f610352565b80610d29816107e3565b0390f35b610358565b34610d6057610d42366004610360565b610d4a612427565b610d52610352565b80610d5c816107e3565b0390f35b610358565b34610d9557610d75366004610360565b610d91610d80612431565b610d88610352565b918291826105aa565b0390f35b610358565b34610dca57610daa366004610360565b610dc6610db561244a565b610dbd610352565b91829182610928565b0390f35b610358565b610ddf906008610de493026106b7565b610374565b90565b90610df29154610dcf565b90565b610e0160125f90610de7565b90565b34610e3457610e14366004610360565b610e30610e1f610df5565b610e27610352565b9182918261072f565b0390f35b610358565b34610e6957610e49366004610360565b610e65610e54612460565b610e5c610352565b918291826105aa565b0390f35b610358565b34610e9e57610e7e366004610360565b610e9a610e896124fb565b610e91610352565b918291826105aa565b0390f35b610358565b34610ed357610eb3366004610360565b610ecf610ebe612654565b610ec6610352565b9182918261072f565b0390f35b610358565b34610f0857610ee8366004610360565b610f04610ef3612669565b610efb610352565b918291826105aa565b0390f35b610358565b9190604083820312610f355780610f29610f32925f8601610608565b936020016109bc565b90565b61035c565b34610f6957610f53610f4d366004610f0d565b906126ac565b610f5b610352565b80610f65816107e3565b0390f35b610358565b34610f9e57610f7e366004610360565b610f9a610f896126b8565b610f91610352565b91829182610a94565b0390f35b610358565b34610fd357610fb3366004610360565b610fcf610fbe6126f1565b610fc6610352565b91829182610b9f565b0390f35b610358565b3461100657610ff0610feb366004610617565b612729565b610ff8610352565b80611002816107e3565b0390f35b610358565b3461103b5761101b366004610360565b611037611026612734565b61102e610352565b9182918261072f565b0390f35b610358565b61105361104e3660046109cb565b612c04565b61105b610352565b80611065816107e3565b0390f35b346110975761108161107c3660046109cb565b612c32565b611089610352565b80611093816107e3565b0390f35b610358565b346110cc576110ac366004610360565b6110c86110b7612c3d565b6110bf610352565b918291826105aa565b0390f35b610358565b34611101576110e1366004610360565b6110fd6110ec612c56565b6110f4610352565b918291826105aa565b0390f35b610358565b3461113657611116366004610360565b611132611121612c6f565b611129610352565b918291826105aa565b0390f35b610358565b346111695761115361114e3660046109cb565b612cab565b61115b610352565b80611165816107e3565b0390f35b610358565b3461119e5761117e366004610360565b61119a611189612cb6565b611191610352565b918291826105aa565b0390f35b610358565b346111d1576111bb6111b6366004610617565b612cce565b6111c3610352565b806111cd816107e3565b0390f35b610358565b34611204576111ee6111e93660046109cb565b612cfe565b6111f6610352565b80611200816107e3565b0390f35b610358565b346112375761122161121c3660046109cb565b612d2c565b611229610352565b80611233816107e3565b0390f35b610358565b3461126a5761125461124f3660046109cb565b612d5a565b61125c610352565b80611266816107e3565b0390f35b610358565b61127b60135f906106d3565b90565b346112ae5761128e366004610360565b6112aa61129961126f565b6112a1610352565b918291826105aa565b0390f35b610358565b346112e3576112c3366004610360565b6112df6112ce612d65565b6112d6610352565b918291826105aa565b0390f35b610358565b34611316576113006112fb366004610617565b612de3565b611308610352565b80611312816107e3565b0390f35b610358565b346113495761133361132e3660046109cb565b612f92565b61133b610352565b80611345816107e3565b0390f35b610358565b5f80fd5b5f90565b6113626113679161036f565b610b46565b90565b6113749054611356565b90565b61138090610689565b90565b601f801991011690565b634e487b7160e01b5f52604160045260245ffd5b906113ab90611383565b810190811067ffffffffffffffff8211176113c557604052565b61138d565b60e01b90565b905051906113dd826109a8565b565b906020828203126113f8576113f5915f016113d0565b90565b61035c565b611405610352565b3d5f823e3d90fd5b611415611352565b5061145f602061142d611428600361136a565b610b86565b6370a082319061145461143f30611377565b92611448610352565b958694859384936113ca565b83526004830161072f565b03915afa9081156114a3575f91611475575b5090565b611496915060203d811161149c575b61148e81836113a1565b8101906113df565b5f611471565b503d611484565b6113fd565b634e487b7160e01b5f52601160045260245ffd5b6114cb6114d191939293610493565b92610493565b916114dd838202610493565b9281840414901517156114ec57565b6114a8565b90565b61150861150361150d926114f1565b61066a565b610493565b90565b634e487b7160e01b5f52601260045260245ffd5b61153061153691610493565b91610493565b908115611541570490565b611510565b61157a6115686115636115919361155b611352565b5060116106a1565b6103b7565b611574600480016103b7565b906114bc565b61158b670de0b6b3a76400006114f4565b90611524565b90565b5f90565b6115a0611594565b506115ae6002600401610393565b90565b6115b9611352565b506115c760016004016103b7565b90565b6115d2611352565b506115e76115e2601133906106a1565b6103b7565b90565b6115fb906115f6612f9d565b611640565b565b5f1b90565b9061161360018060a01b03916115fd565b9181191691161790565b90565b9061163561163061163c92610695565b61161d565b8254611602565b9055565b61164e906002600401611620565b565b611659906115ea565b565b9061166e611667610352565b92836113a1565b565b61167b6101a061165b565b90565b5f90565b5f90565b60209081808080808080808080808061169d611670565b9d8e6116a761167e565b8152016116b2611682565b8152016116bd61167e565b8152016116c861167e565b8152016116d3611682565b8152016116de611682565b8152016116e9611682565b8152016116f4611682565b8152016116ff611682565b81520161170a611682565b815201611715611682565b815201611720611682565b81520161172b611682565b81525050565b611739611686565b90565b906117469061047a565b9052565b9061175490610493565b9052565b9061189c611892600c611769611670565b946117806117785f8301610393565b5f880161173c565b61179861178f600183016103b7565b6020880161174a565b6117b06117a760028301610393565b6040880161173c565b6117c86117bf60038301610393565b6060880161173c565b6117e06117d7600483016103b7565b6080880161174a565b6117f86117ef600583016103b7565b60a0880161174a565b611810611807600683016103b7565b60c0880161174a565b61182861181f600783016103b7565b60e0880161174a565b611841611837600883016103b7565b610100880161174a565b61185a611850600983016103b7565b610120880161174a565b611873611869600a83016103b7565b610140880161174a565b61188c611882600b83016103b7565b610160880161174a565b016103b7565b610180840161174a565b565b6118a790611758565b90565b6118b2611731565b506118bd600461189e565b90565b6118d76118dc916118cf611352565b5060116106a1565b6103b7565b90565b6118f0906118eb612f9d565b611947565b565b906118fe5f19916115fd565b9181191691161790565b61191c61191761192192610493565b61066a565b610493565b90565b90565b9061193c61193761194392611908565b611924565b82546118f2565b9055565b6119549060048001611927565b565b61195f906118df565b565b611969612f9d565b611971611973565b565b611980600b6004016103b7565b61199e61199861199360076004016103b7565b610493565b91610493565b106119ad576119ab6119c8565b565b5f6250b2a360e81b8152806119c4600482016107e3565b0390fd5b6119d0613017565b6119d8611b4f565b6119e061309b565b565b90565b6119f96119f46119fe926119e2565b61066a565b610493565b90565b60209181520190565b5f7f4e6f2066756e647320746f207769746864726177000000000000000000000000910152565b611a3e6014602092611a01565b611a4781611a0a565b0190565b611a609060208101905f818303910152611a31565b90565b15611a6a57565b611a72610352565b62461bcd60e51b815280611a8860048201611a4b565b0390fd5b60ff1690565b611a9b81611a8c565b03611aa257565b5f80fd5b90505190611ab382611a92565b565b90602082820312611ace57611acb915f01611aa6565b90565b61035c565b611adc90611a8c565b604d8111611aea57600a0a90565b6114a8565b611afe611b0491939293610493565b92610493565b8203918211611b0f57565b6114a8565b611b1d9061066d565b90565b611b2990611b14565b90565b916020611b4d929493611b4660408201965f830190610486565b0190610496565b565b611b77611b5f600b6004016103b7565b611b71611b6b5f6119e5565b91610493565b11611a63565b611bc06020611b8e611b89600361136a565b610b86565b6370a0823190611bb5611ba030611377565b92611ba9610352565b958694859384936113ca565b83526004830161072f565b03915afa908115611d85575f91611d57575b5080611c16611beb83611be560136103b7565b906114bc565b916020611c00611bfb600361136a565b610b86565b63313ce56790611c0e610352565b9485926113ca565b82528180611c26600482016107e3565b03915afa8015611d5257611c6093611c4c611c5292611c58955f91611d24575b50611ad3565b90611524565b90611aef565b918290611aef565b611c86611c75611c70600361136a565b611b20565b611c7f6012610393565b83916130ec565b611c906012610393565b907f010d214e8adbe593eebc2e78d29e88f08ddcb363fac75a9ef8c9455ba3c72dcc91611cc7611cbe610352565b92839283611b2c565b0390a133611ce8611ce0611cdb600361136a565b611b20565b8284916130ec565b907f884edad9ce6fa2440d8a54cc123490eb96d2768479d49ff9c7366125a942436491611d1f611d16610352565b92839283611b2c565b0390a1565b611d45915060203d8111611d4b575b611d3d81836113a1565b810190611ab5565b5f611c46565b503d611d33565b6113fd565b611d78915060203d8111611d7e575b611d7081836113a1565b8101906113df565b5f611bd2565b503d611d66565b6113fd565b611d92611961565b565b611da590611da0612f9d565b611da7565b565b611db5906005600401611927565b565b611dc090611d94565b565b5f90565b611dce611dc2565b5042611dee611de8611de360066004016103b7565b610493565b91610493565b1190565b611dfa611352565b50611e0860066004016103b7565b90565b42611e2a611e24611e1f60066004016103b7565b610493565b91610493565b10611e3957611e37611e55565b565b5f630762b4a760e41b815280611e51600482016107e3565b0390fd5b611e69611e64601133906106a1565b6103b7565b611e7b611e755f6119e5565b91610493565b14611e8a57611e88611ea6565b565b5f6334c9a48960e11b815280611ea2600482016107e3565b0390fd5b611eb3600b6004016103b7565b611ed1611ecb611ec660076004016103b7565b610493565b91610493565b10611ee057611ede611efb565b565b5f6250b2a360e81b815280611ef7600482016107e3565b0390fd5b611f03613017565b611f0b611fbd565b611f1361309b565b565b60207f6365000000000000000000000000000000000000000000000000000000000000917f496e73756666696369656e742070726f6a65637420746f6b656e2062616c616e5f8201520152565b611f6f6022604092611a01565b611f7881611f15565b0190565b611f919060208101905f818303910152611f62565b90565b15611f9b57565b611fa3610352565b62461bcd60e51b815280611fb960048201611f7c565b0390fd5b61201e61200733611ff5611fdb611fd6601184906106a1565b6103b7565b91611ff0611fe85f6119e5565b9160116106a1565b611927565b612001600480016103b7565b906114bc565b612018670de0b6b3a76400006114f4565b90611524565b6120676020612035612030600261136a565b610b86565b6370a082319061205c61204730611377565b92612050610352565b958694859384936113ca565b83526004830161072f565b03915afa801561211e57612096915f916120f0575b5061208f61208984610493565b91610493565b1015611f94565b6120b36120ab6120a6600261136a565b611b20565b3383916130ec565b33907fd8138f8a3f377c5259ca548e70e4c2de94f129f5a11036a15b69513cba2b426a916120eb6120e2610352565b92839283611b2c565b0390a1565b612111915060203d8111612117575b61210981836113a1565b8101906113df565b5f61207c565b503d6120ff565b6113fd565b61212b611e0b565b565b5f90565b61213961212d565b50612144600261136a565b90565b61214f611352565b5061215d60076004016103b7565b90565b612168611352565b50612176600a6004016103b7565b90565b61218d612188601133906106a1565b6103b7565b61219f6121995f6119e5565b91610493565b146121ae576121ac6121ca565b565b5f6334c9a48960e11b8152806121c6600482016107e3565b0390fd5b6121d2613017565b6121da612266565b6121e261309b565b565b5f7f536f6674636170206e6f74207265616368656400000000000000000000000000910152565b6122186013602092611a01565b612221816121e4565b0190565b61223a9060208101905f81830391015261220b565b90565b1561224457565b61224c610352565b62461bcd60e51b81528061226260048201612225565b0390fd5b61229a612276600b6004016103b7565b61229461228e61228960076004016103b7565b610493565b91610493565b1061223d565b6122ae6122a9601133906106a1565b6103b7565b6122cb6122ba5f6119e5565b6122c6601133906106a1565b611927565b6122e86122e06122db600361136a565b611b20565b3383916130ec565b33907fbb28353e4598c3b9199101a66e0989549b659a59a54d2c27fbb183f1932c8e6d91612320612317610352565b92839283611b2c565b0390a1565b61232d612179565b565b5f7f466565206d7573742062652067726561746572207468616e207a65726f000000910152565b612363601d602092611a01565b61236c8161232f565b0190565b6123859060208101905f818303910152612356565b90565b1561238f57565b612397610352565b62461bcd60e51b8152806123ad60048201612370565b0390fd5b6123d8906123d1816123cb6123c55f6119e5565b91610493565b11612388565b6013611927565b565b6123e2612f9d565b6123ea612414565b565b6124006123fb612405926119e2565b61066a565b61046f565b90565b612411906123ec565b90565b6124256124205f612408565b61313a565b565b61242f6123da565b565b612439611352565b5061244760096004016103b7565b90565b612452611731565b5061245d600461189e565b90565b612468611352565b506124b2602061248061247b600261136a565b610b86565b6370a08231906124a761249230611377565b9261249b610352565b958694859384936113ca565b83526004830161072f565b03915afa9081156124f6575f916124c8575b5090565b6124e9915060203d81116124ef575b6124e181836113a1565b8101906113df565b5f6124c4565b503d6124d7565b6113fd565b612503611352565b5061254d602061251b612516600361136a565b610b86565b6370a082319061254261252d30611377565b92612536610352565b958694859384936113ca565b83526004830161072f565b03915afa90811561264f575f91612621575b50806125a36125788261257260136103b7565b906114bc565b92602061258d612588600361136a565b610b86565b63313ce5679061259b610352565b9485926113ca565b825281806125b3600482016107e3565b03915afa801561261c576125eb946125d96125df926125e5955f916125ee575b50611ad3565b90611524565b90611aef565b90611aef565b90565b61260f915060203d8111612615575b61260781836113a1565b810190611ab5565b5f6125d3565b503d6125fd565b6113fd565b612642915060203d8111612648575b61263a81836113a1565b8101906113df565b5f61255f565b503d612630565b6113fd565b61265c611594565b506126665f610393565b90565b612671611352565b5061267f600b6004016103b7565b90565b906126949161268f612f9d565b612696565b565b6126a56126aa929160116106a1565b611927565b565b906126b691612682565b565b6126c0611dc2565b506126ce600b6004016103b7565b6126ec6126e66126e160076004016103b7565b610493565b91610493565b101590565b6126f961212d565b50612704600361136a565b90565b61271890612713612f9d565b61271a565b565b612727905f600401611620565b565b61273290612707565b565b61273c611594565b506127495f600401610393565b90565b61275d90612758613017565b612972565b61276561309b565b565b91602061278892949361278160408201965f830190610486565b0190610486565b565b60207f77616e6365000000000000000000000000000000000000000000000000000000917f496e73756666696369656e7420616363657074656420746f6b656e20616c6c6f5f8201520152565b6127e46025604092611a01565b6127ed8161278a565b0190565b6128069060208101905f8183039101526127d7565b90565b1561281057565b612818610352565b62461bcd60e51b81528061282e600482016127f1565b0390fd5b60207f6e63650000000000000000000000000000000000000000000000000000000000917f496e73756666696369656e7420616363657074656420746f6b656e2062616c615f8201520152565b61288c6023604092611a01565b61289581612832565b0190565b6128ae9060208101905f81830391015261287f565b90565b156128b857565b6128c0610352565b62461bcd60e51b8152806128d660048201612899565b0390fd5b6128e96128ef91939293610493565b92610493565b82018092116128fa57565b6114a8565b61290881610a82565b0361290f57565b5f80fd5b90505190612920826128ff565b565b9060208282031261293b57612938915f01612913565b90565b61035c565b604090612969612970949695939661295f60608401985f850190610486565b6020830190610486565b0190610496565b565b61298461297f600361136a565b610b86565b602063dd62ed3e9133906129b261299a30611377565b946129bd6129a6610352565b968795869485946113ca565b845260048401612767565b03915afa8015612bff576129ec915f91612bd1575b506129e56129df84610493565b91610493565b1015612809565b612a2d6020612a036129fe600361136a565b610b86565b6370a0823190612a223392612a16610352565b958694859384936113ca565b83526004830161072f565b03915afa8015612bcc57612a5c915f91612b9e575b50612a55612a4f84610493565b91610493565b10156128b1565b33612a8582612a7f612a70601185906106a1565b91612a7a836103b7565b6128da565b90611927565b612aa682612aa0600b60040191612a9b836103b7565b6128da565b90611927565b6020612aba612ab5600361136a565b610b86565b6323b872dd9290612ae75f612ace30611377565b95612af288612adb610352565b988997889687956113ca565b855260048501612940565b03925af18015612b9957612b0e915f91612b6b575b5015610a82565b612b4f5733907f2da466a7b24304f47e87fa2e1e5a81b9831ce54fec19055ce277ca2f39ba42c491612b4a612b41610352565b92839283611b2c565b0390a1565b5f633c9fd93960e21b815280612b67600482016107e3565b0390fd5b612b8c915060203d8111612b92575b612b8481836113a1565b810190612922565b5f612b07565b503d612b7a565b6113fd565b612bbf915060203d8111612bc5575b612bb781836113a1565b8101906113df565b5f612a42565b503d612bad565b6113fd565b612bf2915060203d8111612bf8575b612bea81836113a1565b8101906113df565b5f6129d2565b503d612be0565b6113fd565b612c0d9061274c565b565b612c2090612c1b612f9d565b612c22565b565b612c30906009600401611927565b565b612c3b90612c0f565b565b612c45611352565b50612c5360086004016103b7565b90565b612c5e611352565b50612c6c600c6004016103b7565b90565b612c77611352565b50612c8560056004016103b7565b90565b612c9990612c94612f9d565b612c9b565b565b612ca990600a600401611927565b565b612cb490612c88565b565b612cbe611352565b50612ccb600480016103b7565b90565b612cd9906012611620565b565b612cec90612ce7612f9d565b612cee565b565b612cfc906006600401611927565b565b612d0790612cdb565b565b612d1a90612d15612f9d565b612d1c565b565b612d2a906008600401611927565b565b612d3590612d09565b565b612d4890612d43612f9d565b612d4a565b565b612d58906007600401611927565b565b612d6390612d37565b565b612d6d611352565b50612d7b600b6004016103b7565b90565b612d8f90612d8a612f9d565b612d91565b565b80612dac612da6612da15f612408565b61047a565b9161047a565b14612dbc57612dba9061313a565b565b612ddf612dc85f612408565b5f918291631e4fbdf760e01b83526004830161072f565b0390fd5b612dec90612d7e565b565b612dff90612dfa612f9d565b612e83565b565b5f7f496e73756666696369656e7420746f6b656e2062616c616e6365000000000000910152565b612e35601a602092611a01565b612e3e81612e01565b0190565b612e579060208101905f818303910152612e28565b90565b15612e6157565b612e69610352565b62461bcd60e51b815280612e7f60048201612e42565b0390fd5b612eaa612e98612e93600261136a565b611b20565b33612ea230611377565b908492613199565b612ef36020612ec1612ebc600261136a565b610b86565b6370a0823190612ee8612ed330611377565b92612edc610352565b958694859384936113ca565b83526004830161072f565b03915afa8015612f8d57612f22915f91612f5f575b50612f1b612f1584610493565b91610493565b1015612e5a565b33907f9acd03d943b0536fca9a5931886b9dde4344297899de5d17558004d6157f59d391612f5a612f51610352565b92839283611b2c565b0390a1565b612f80915060203d8111612f86575b612f7881836113a1565b8101906113df565b5f612f08565b503d612f6e565b6113fd565b612f9b90612dee565b565b612fa5612654565b612fbe612fb8612fb36131e9565b61047a565b9161047a565b03612fc557565b612fe7612fd06131e9565b5f91829163118cdaa760e01b83526004830161072f565b0390fd5b90565b613002612ffd61300792612feb565b61066a565b610493565b90565b6130146002612fee565b90565b61302160016103b7565b61303a61303461302f61300a565b610493565b91610493565b146130535761305161304a61300a565b6001611927565b565b5f633ee5aeb560e01b81528061306b600482016107e3565b0390fd5b90565b61308661308161308b9261306f565b61066a565b610493565b90565b6130986001613072565b90565b6130ad6130a661308e565b6001611927565b565b6130b890610689565b90565b63ffffffff1690565b63ffffffff60e01b1690565b6130e46130df6130e9926130bb565b6113ca565b6130c4565b90565b90613133613138936131246004949361310b63a9059cbb9193916130d0565b92613114610352565b9687946020860190815201611b2c565b602082018103825203836113a1565b6131f6565b565b6131435f610393565b61314d825f611620565b9061318161317b7f8be0079c531659141344cd1fd0a4f28419497f9722a3daafe3b4186f6b6457e093610695565b91610695565b9161318a610352565b80613194816107e3565b0390a3565b6004926131d36131e795936131e293946131ba6323b872dd929491926130d0565b936131c3610352565b9788956020870190815201612940565b602082018103825203836113a1565b6131f6565b565b6131f1611594565b503390565b905f602091613203611352565b5061320c611352565b50828151910182855af11561329f573d5f519061323161322b5f6119e5565b91610493565b145f146132855750613242816130af565b3b61325561324f5f6119e5565b91610493565b145b61325e5750565b61326a613281916130af565b5f918291635274afe760e01b83526004830161072f565b0390fd5b6132986132926001613072565b91610493565b1415613257565b6040513d5f823e3d90fdfea2646970667358221220fb5781b9592816200b93fa01d2cc9bda67444023d3cf33dfef1ee5b366b43b8764736f6c634300081d0033",
    "linkReferences": {}
  },
  "methodIdentifiers": {
    "PLATFORM()": "7efc77fa",
    "acceptedToken()": "451c3d80",
    "claimToken()": "4451d89f",
    "deposit(uint256)": "b6b55f25",
    "depositProjectTokens(uint256)": "fb76e978",
    "fee()": "ddca3f43",
    "getAcceptedToken()": "a18f4ba0",
    "getAcceptedTokenBalance()": "06df7a4d",
    "getEndTime()": "439f5ac2",
    "getHardCap()": "bf0a07bd",
    "getLaunchpadAllInfo()": "7a6a4740",
    "getLaunchpadInfo()": "27b12bb2",
    "getMaxInvestment()": "59baf5fa",
    "getMinInvestment()": "724ae9d0",
    "getPlatformProfit()": "83d430cd",
    "getPricePerToken()": "ca1e9738",
    "getProjectId()": "1270e10c",
    "getProjectOwnerAddress()": "a91098e5",
    "getProjectOwnerBalance()": "eb6d10da",
    "getProjectToken()": "4837c596",
    "getProjectTokenBalance()": "8234e0e3",
    "getRaisedAmount()": "8e75e482",
    "getReceivableProjectTokenAmount(address)": "07a5254e",
    "getSoftCap()": "4d52a512",
    "getStartTime()": "c828371e",
    "getTokenAddress()": "10fe9ae8",
    "getTotalSupply()": "c4e41b22",
    "getUserDeposit()": "1f786b00",
    "getUserDeposits(address)": "2a5bf6d2",
    "isLaunchpadEnded()": "423d26aa",
    "isSoftcapReached()": "962f0215",
    "launchpad()": "02669b52",
    "owner()": "8da5cb5b",
    "projectToken()": "4b60ce77",
    "refundToken()": "5cb732be",
    "renounceOwnership()": "715018a6",
    "setEndTime(uint256)": "ccb98ffc",
    "setFee(uint256)": "69fe0e2d",
    "setHardCap(uint256)": "d18d944b",
    "setMaxInvestment(uint256)": "c92651a7",
    "setMinInvestment(uint256)": "ba7ed2ff",
    "setPlatformAddress(address)": "cc03c342",
    "setPricePerToken(uint256)": "2bf2762f",
    "setProjectOwner(address)": "a2416f74",
    "setSoftCap(uint256)": "d5cf5c72",
    "setStartTime(uint256)": "3e0a322d",
    "setTokenAddress(address)": "26a4e8d2",
    "setUserDeposits(address,uint256)": "94aef7a0",
    "transferOwnership(address)": "f2fde38b",
    "userDeposits(address)": "0ba36dcd",
    "withdraw()": "3ccfd60b"
  },
  "id": 36
}