{
	"abi": [
		{
			"type": "constructor",
			"inputs": [
				{
					"name": "_projectId",
					"type": "uint256",
					"internalType": "uint256"
				},
				{
					"name": "_projectOwner",
					"type": "address",
					"internalType": "address"
				},
				{
					"name": "_tokenAddress",
					"type": "address",
					"internalType": "address"
				},
				{
					"name": "_acceptedTokenAddress",
					"type": "address",
					"internalType": "address"
				},
				{
					"name": "_pricePerToken",
					"type": "uint256",
					"internalType": "uint256"
				},
				{
					"name": "_startTime",
					"type": "uint256",
					"internalType": "uint256"
				},
				{
					"name": "_endTime",
					"type": "uint256",
					"internalType": "uint256"
				},
				{
					"name": "_softCap",
					"type": "uint256",
					"internalType": "uint256"
				},
				{
					"name": "_hardCap",
					"type": "uint256",
					"internalType": "uint256"
				},
				{
					"name": "_minInvestment",
					"type": "uint256",
					"internalType": "uint256"
				},
				{
					"name": "_maxInvestment",
					"type": "uint256",
					"internalType": "uint256"
				},
				{
					"name": "_raisedAmount",
					"type": "uint256",
					"internalType": "uint256"
				},
				{
					"name": "_totalSupply",
					"type": "uint256",
					"internalType": "uint256"
				}
			],
			"stateMutability": "nonpayable"
		},
		{
			"type": "function",
			"name": "acceptedToken",
			"inputs": [],
			"outputs": [
				{
					"name": "",
					"type": "address",
					"internalType": "contract ERC20"
				}
			],
			"stateMutability": "view"
		},
		{
			"type": "function",
			"name": "claimToken",
			"inputs": [],
			"outputs": [],
			"stateMutability": "nonpayable"
		},
		{
			"type": "function",
			"name": "deposit",
			"inputs": [
				{
					"name": "amount",
					"type": "uint256",
					"internalType": "uint256"
				}
			],
			"outputs": [],
			"stateMutability": "payable"
		},
		{
			"type": "function",
			"name": "depositProjectTokens",
			"inputs": [
				{
					"name": "amount",
					"type": "uint256",
					"internalType": "uint256"
				}
			],
			"outputs": [],
			"stateMutability": "nonpayable"
		},
		{
			"type": "function",
			"name": "getAcceptedToken",
			"inputs": [],
			"outputs": [
				{
					"name": "",
					"type": "address",
					"internalType": "contract ERC20"
				}
			],
			"stateMutability": "view"
		},
		{
			"type": "function",
			"name": "getAcceptedTokenBalance",
			"inputs": [],
			"outputs": [
				{
					"name": "",
					"type": "uint256",
					"internalType": "uint256"
				}
			],
			"stateMutability": "view"
		},
		{
			"type": "function",
			"name": "getEndTime",
			"inputs": [],
			"outputs": [
				{
					"name": "",
					"type": "uint256",
					"internalType": "uint256"
				}
			],
			"stateMutability": "view"
		},
		{
			"type": "function",
			"name": "getHardCap",
			"inputs": [],
			"outputs": [
				{
					"name": "",
					"type": "uint256",
					"internalType": "uint256"
				}
			],
			"stateMutability": "view"
		},
		{
			"type": "function",
			"name": "getLaunchpadAllInfo",
			"inputs": [],
			"outputs": [
				{
					"name": "",
					"type": "tuple",
					"internalType": "struct Launchpad.LaunchpadInfo",
					"components": [
						{
							"name": "projectOwner",
							"type": "address",
							"internalType": "address"
						},
						{
							"name": "projectId",
							"type": "uint256",
							"internalType": "uint256"
						},
						{
							"name": "tokenAddress",
							"type": "address",
							"internalType": "address"
						},
						{
							"name": "acceptedTokenAddress",
							"type": "address",
							"internalType": "address"
						},
						{
							"name": "pricePerToken",
							"type": "uint256",
							"internalType": "uint256"
						},
						{
							"name": "startTime",
							"type": "uint256",
							"internalType": "uint256"
						},
						{
							"name": "endTime",
							"type": "uint256",
							"internalType": "uint256"
						},
						{
							"name": "softCap",
							"type": "uint256",
							"internalType": "uint256"
						},
						{
							"name": "hardCap",
							"type": "uint256",
							"internalType": "uint256"
						},
						{
							"name": "minInvestment",
							"type": "uint256",
							"internalType": "uint256"
						},
						{
							"name": "maxInvestment",
							"type": "uint256",
							"internalType": "uint256"
						},
						{
							"name": "raisedAmount",
							"type": "uint256",
							"internalType": "uint256"
						},
						{
							"name": "totalSupply",
							"type": "uint256",
							"internalType": "uint256"
						}
					]
				}
			],
			"stateMutability": "view"
		},
		{
			"type": "function",
			"name": "getLaunchpadInfo",
			"inputs": [],
			"outputs": [
				{
					"name": "",
					"type": "tuple",
					"internalType": "struct Launchpad.LaunchpadInfo",
					"components": [
						{
							"name": "projectOwner",
							"type": "address",
							"internalType": "address"
						},
						{
							"name": "projectId",
							"type": "uint256",
							"internalType": "uint256"
						},
						{
							"name": "tokenAddress",
							"type": "address",
							"internalType": "address"
						},
						{
							"name": "acceptedTokenAddress",
							"type": "address",
							"internalType": "address"
						},
						{
							"name": "pricePerToken",
							"type": "uint256",
							"internalType": "uint256"
						},
						{
							"name": "startTime",
							"type": "uint256",
							"internalType": "uint256"
						},
						{
							"name": "endTime",
							"type": "uint256",
							"internalType": "uint256"
						},
						{
							"name": "softCap",
							"type": "uint256",
							"internalType": "uint256"
						},
						{
							"name": "hardCap",
							"type": "uint256",
							"internalType": "uint256"
						},
						{
							"name": "minInvestment",
							"type": "uint256",
							"internalType": "uint256"
						},
						{
							"name": "maxInvestment",
							"type": "uint256",
							"internalType": "uint256"
						},
						{
							"name": "raisedAmount",
							"type": "uint256",
							"internalType": "uint256"
						},
						{
							"name": "totalSupply",
							"type": "uint256",
							"internalType": "uint256"
						}
					]
				}
			],
			"stateMutability": "view"
		},
		{
			"type": "function",
			"name": "getMaxInvestment",
			"inputs": [],
			"outputs": [
				{
					"name": "",
					"type": "uint256",
					"internalType": "uint256"
				}
			],
			"stateMutability": "view"
		},
		{
			"type": "function",
			"name": "getMinInvestment",
			"inputs": [],
			"outputs": [
				{
					"name": "",
					"type": "uint256",
					"internalType": "uint256"
				}
			],
			"stateMutability": "view"
		},
		{
			"type": "function",
			"name": "getPricePerToken",
			"inputs": [],
			"outputs": [
				{
					"name": "",
					"type": "uint256",
					"internalType": "uint256"
				}
			],
			"stateMutability": "view"
		},
		{
			"type": "function",
			"name": "getProjectId",
			"inputs": [],
			"outputs": [
				{
					"name": "",
					"type": "uint256",
					"internalType": "uint256"
				}
			],
			"stateMutability": "view"
		},
		{
			"type": "function",
			"name": "getProjectOwnerAddress",
			"inputs": [],
			"outputs": [
				{
					"name": "",
					"type": "address",
					"internalType": "address"
				}
			],
			"stateMutability": "view"
		},
		{
			"type": "function",
			"name": "getProjectOwnerBalance",
			"inputs": [],
			"outputs": [
				{
					"name": "",
					"type": "uint256",
					"internalType": "uint256"
				}
			],
			"stateMutability": "view"
		},
		{
			"type": "function",
			"name": "getProjectToken",
			"inputs": [],
			"outputs": [
				{
					"name": "",
					"type": "address",
					"internalType": "contract ERC20"
				}
			],
			"stateMutability": "view"
		},
		{
			"type": "function",
			"name": "getProjectTokenBalance",
			"inputs": [],
			"outputs": [
				{
					"name": "",
					"type": "uint256",
					"internalType": "uint256"
				}
			],
			"stateMutability": "view"
		},
		{
			"type": "function",
			"name": "getRaisedAmount",
			"inputs": [],
			"outputs": [
				{
					"name": "",
					"type": "uint256",
					"internalType": "uint256"
				}
			],
			"stateMutability": "view"
		},
		{
			"type": "function",
			"name": "getReceivableProjectTokenAmount",
			"inputs": [
				{
					"name": "user",
					"type": "address",
					"internalType": "address"
				}
			],
			"outputs": [
				{
					"name": "",
					"type": "uint256",
					"internalType": "uint256"
				}
			],
			"stateMutability": "view"
		},
		{
			"type": "function",
			"name": "getSoftCap",
			"inputs": [],
			"outputs": [
				{
					"name": "",
					"type": "uint256",
					"internalType": "uint256"
				}
			],
			"stateMutability": "view"
		},
		{
			"type": "function",
			"name": "getStartTime",
			"inputs": [],
			"outputs": [
				{
					"name": "",
					"type": "uint256",
					"internalType": "uint256"
				}
			],
			"stateMutability": "view"
		},
		{
			"type": "function",
			"name": "getTokenAddress",
			"inputs": [],
			"outputs": [
				{
					"name": "",
					"type": "address",
					"internalType": "address"
				}
			],
			"stateMutability": "view"
		},
		{
			"type": "function",
			"name": "getTotalSupply",
			"inputs": [],
			"outputs": [
				{
					"name": "",
					"type": "uint256",
					"internalType": "uint256"
				}
			],
			"stateMutability": "view"
		},
		{
			"type": "function",
			"name": "getUserDeposit",
			"inputs": [],
			"outputs": [
				{
					"name": "",
					"type": "uint256",
					"internalType": "uint256"
				}
			],
			"stateMutability": "view"
		},
		{
			"type": "function",
			"name": "getUserDeposits",
			"inputs": [
				{
					"name": "user",
					"type": "address",
					"internalType": "address"
				}
			],
			"outputs": [
				{
					"name": "",
					"type": "uint256",
					"internalType": "uint256"
				}
			],
			"stateMutability": "view"
		},
		{
			"type": "function",
			"name": "launchpad",
			"inputs": [],
			"outputs": [
				{
					"name": "projectOwner",
					"type": "address",
					"internalType": "address"
				},
				{
					"name": "projectId",
					"type": "uint256",
					"internalType": "uint256"
				},
				{
					"name": "tokenAddress",
					"type": "address",
					"internalType": "address"
				},
				{
					"name": "acceptedTokenAddress",
					"type": "address",
					"internalType": "address"
				},
				{
					"name": "pricePerToken",
					"type": "uint256",
					"internalType": "uint256"
				},
				{
					"name": "startTime",
					"type": "uint256",
					"internalType": "uint256"
				},
				{
					"name": "endTime",
					"type": "uint256",
					"internalType": "uint256"
				},
				{
					"name": "softCap",
					"type": "uint256",
					"internalType": "uint256"
				},
				{
					"name": "hardCap",
					"type": "uint256",
					"internalType": "uint256"
				},
				{
					"name": "minInvestment",
					"type": "uint256",
					"internalType": "uint256"
				},
				{
					"name": "maxInvestment",
					"type": "uint256",
					"internalType": "uint256"
				},
				{
					"name": "raisedAmount",
					"type": "uint256",
					"internalType": "uint256"
				},
				{
					"name": "totalSupply",
					"type": "uint256",
					"internalType": "uint256"
				}
			],
			"stateMutability": "view"
		},
		{
			"type": "function",
			"name": "owner",
			"inputs": [],
			"outputs": [
				{
					"name": "",
					"type": "address",
					"internalType": "address"
				}
			],
			"stateMutability": "view"
		},
		{
			"type": "function",
			"name": "projectToken",
			"inputs": [],
			"outputs": [
				{
					"name": "",
					"type": "address",
					"internalType": "contract ERC20"
				}
			],
			"stateMutability": "view"
		},
		{
			"type": "function",
			"name": "refundToken",
			"inputs": [],
			"outputs": [],
			"stateMutability": "nonpayable"
		},
		{
			"type": "function",
			"name": "renounceOwnership",
			"inputs": [],
			"outputs": [],
			"stateMutability": "nonpayable"
		},
		{
			"type": "function",
			"name": "setEndTime",
			"inputs": [
				{
					"name": "_endTime",
					"type": "uint256",
					"internalType": "uint256"
				}
			],
			"outputs": [],
			"stateMutability": "nonpayable"
		},
		{
			"type": "function",
			"name": "setHardCap",
			"inputs": [
				{
					"name": "_hardCap",
					"type": "uint256",
					"internalType": "uint256"
				}
			],
			"outputs": [],
			"stateMutability": "nonpayable"
		},
		{
			"type": "function",
			"name": "setMaxInvestment",
			"inputs": [
				{
					"name": "_maxInvestment",
					"type": "uint256",
					"internalType": "uint256"
				}
			],
			"outputs": [],
			"stateMutability": "nonpayable"
		},
		{
			"type": "function",
			"name": "setMinInvestment",
			"inputs": [
				{
					"name": "_minInvestment",
					"type": "uint256",
					"internalType": "uint256"
				}
			],
			"outputs": [],
			"stateMutability": "nonpayable"
		},
		{
			"type": "function",
			"name": "setPricePerToken",
			"inputs": [
				{
					"name": "_pricePerToken",
					"type": "uint256",
					"internalType": "uint256"
				}
			],
			"outputs": [],
			"stateMutability": "nonpayable"
		},
		{
			"type": "function",
			"name": "setProjectOwner",
			"inputs": [
				{
					"name": "_projectOwner",
					"type": "address",
					"internalType": "address"
				}
			],
			"outputs": [],
			"stateMutability": "nonpayable"
		},
		{
			"type": "function",
			"name": "setSoftCap",
			"inputs": [
				{
					"name": "_softCap",
					"type": "uint256",
					"internalType": "uint256"
				}
			],
			"outputs": [],
			"stateMutability": "nonpayable"
		},
		{
			"type": "function",
			"name": "setStartTime",
			"inputs": [
				{
					"name": "_startTime",
					"type": "uint256",
					"internalType": "uint256"
				}
			],
			"outputs": [],
			"stateMutability": "nonpayable"
		},
		{
			"type": "function",
			"name": "setTokenAddress",
			"inputs": [
				{
					"name": "_tokenAddress",
					"type": "address",
					"internalType": "address"
				}
			],
			"outputs": [],
			"stateMutability": "nonpayable"
		},
		{
			"type": "function",
			"name": "setUserDeposits",
			"inputs": [
				{
					"name": "user",
					"type": "address",
					"internalType": "address"
				},
				{
					"name": "amount",
					"type": "uint256",
					"internalType": "uint256"
				}
			],
			"outputs": [],
			"stateMutability": "nonpayable"
		},
		{
			"type": "function",
			"name": "transferOwnership",
			"inputs": [
				{
					"name": "newOwner",
					"type": "address",
					"internalType": "address"
				}
			],
			"outputs": [],
			"stateMutability": "nonpayable"
		},
		{
			"type": "function",
			"name": "userDeposits",
			"inputs": [
				{
					"name": "",
					"type": "address",
					"internalType": "address"
				}
			],
			"outputs": [
				{
					"name": "",
					"type": "uint256",
					"internalType": "uint256"
				}
			],
			"stateMutability": "view"
		},
		{
			"type": "function",
			"name": "withdraw",
			"inputs": [],
			"outputs": [],
			"stateMutability": "nonpayable"
		},
		{
			"type": "event",
			"name": "Claimed",
			"inputs": [
				{
					"name": "user",
					"type": "address",
					"indexed": false,
					"internalType": "address"
				},
				{
					"name": "amount",
					"type": "uint256",
					"indexed": false,
					"internalType": "uint256"
				}
			],
			"anonymous": false
		},
		{
			"type": "event",
			"name": "Deposited",
			"inputs": [
				{
					"name": "user",
					"type": "address",
					"indexed": false,
					"internalType": "address"
				},
				{
					"name": "amount",
					"type": "uint256",
					"indexed": false,
					"internalType": "uint256"
				}
			],
			"anonymous": false
		},
		{
			"type": "event",
			"name": "OwnershipTransferred",
			"inputs": [
				{
					"name": "previousOwner",
					"type": "address",
					"indexed": true,
					"internalType": "address"
				},
				{
					"name": "newOwner",
					"type": "address",
					"indexed": true,
					"internalType": "address"
				}
			],
			"anonymous": false
		},
		{
			"type": "event",
			"name": "ProjectTokenDeposited",
			"inputs": [
				{
					"name": "projectOwner",
					"type": "address",
					"indexed": false,
					"internalType": "address"
				},
				{
					"name": "amount",
					"type": "uint256",
					"indexed": false,
					"internalType": "uint256"
				}
			],
			"anonymous": false
		},
		{
			"type": "event",
			"name": "Refund",
			"inputs": [
				{
					"name": "user",
					"type": "address",
					"indexed": false,
					"internalType": "address"
				},
				{
					"name": "amount",
					"type": "uint256",
					"indexed": false,
					"internalType": "uint256"
				}
			],
			"anonymous": false
		},
		{
			"type": "event",
			"name": "Withdraw",
			"inputs": [
				{
					"name": "projectOwner",
					"type": "address",
					"indexed": false,
					"internalType": "address"
				},
				{
					"name": "amount",
					"type": "uint256",
					"indexed": false,
					"internalType": "uint256"
				}
			],
			"anonymous": false
		},
		{
			"type": "error",
			"name": "ERC20TransferFailed",
			"inputs": []
		},
		{
			"type": "error",
			"name": "HardCapOverflow",
			"inputs": []
		},
		{
			"type": "error",
			"name": "IsNotDeposited",
			"inputs": []
		},
		{
			"type": "error",
			"name": "LaunchpadNotInTimeFrame",
			"inputs": []
		},
		{
			"type": "error",
			"name": "MaxInvestOverflow",
			"inputs": []
		},
		{
			"type": "error",
			"name": "MinInvestNotExceed",
			"inputs": []
		},
		{
			"type": "error",
			"name": "OwnableInvalidOwner",
			"inputs": [
				{
					"name": "owner",
					"type": "address",
					"internalType": "address"
				}
			]
		},
		{
			"type": "error",
			"name": "OwnableUnauthorizedAccount",
			"inputs": [
				{
					"name": "account",
					"type": "address",
					"internalType": "address"
				}
			]
		},
		{
			"type": "error",
			"name": "ReentrancyGuardReentrantCall",
			"inputs": []
		},
		{
			"type": "error",
			"name": "SafeERC20FailedOperation",
			"inputs": [
				{
					"name": "token",
					"type": "address",
					"internalType": "address"
				}
			]
		},
		{
			"type": "error",
			"name": "SoftCapNotReach",
			"inputs": []
		}
	],
	"bytecode": {
		"object": "0x60806040523461003f576100296100146101d6565b9b9a909a99919998929897939796949661051a565b610031610044565b612c866108d28239612c8690f35b61004a565b60405190565b5f80fd5b601f801991011690565b634e487b7160e01b5f52604160045260245ffd5b906100769061004e565b810190811060018060401b0382111761008e57604052565b610058565b906100a661009f610044565b928361006c565b565b5f80fd5b90565b6100b8816100ac565b036100bf57565b5f80fd5b905051906100d0826100af565b565b60018060a01b031690565b6100e6906100d2565b90565b6100f2816100dd565b036100f957565b5f80fd5b9050519061010a826100e9565b565b6101a0818303126101d157610123825f83016100c3565b9261013183602084016100fd565b9261013f81604085016100fd565b9261014d82606083016100fd565b9261015b83608084016100c3565b926101698160a085016100c3565b926101778260c083016100c3565b926101858360e084016100c3565b926101948161010085016100c3565b926101a38261012083016100c3565b926101ce6101b58461014085016100c3565b936101c48161016086016100c3565b93610180016100c3565b90565b6100a8565b6101f4613558803803806101e981610093565b92833981019061010c565b909192939495969798999a9b9c565b60209181520190565b60207f6d65000000000000000000000000000000000000000000000000000000000000917f53746172742074696d65206d757374206265206265666f726520656e642074695f8201520152565b6102666022604092610203565b61026f8161020c565b0190565b6102889060208101905f818303910152610259565b90565b1561029257565b61029a610044565b62461bcd60e51b8152806102b060048201610273565b0390fd5b60207f6361700000000000000000000000000000000000000000000000000000000000917f536f667420636170206d757374206265206c657373207468616e2068617264205f8201520152565b61030e6023604092610203565b610317816102b4565b0190565b6103309060208101905f818303910152610301565b90565b1561033a57565b610342610044565b62461bcd60e51b8152806103586004820161031b565b0390fd5b60207f7468616e206d6178696d756d20696e766573746d656e74000000000000000000917f4d696e696d756d20696e766573746d656e74206d757374206265206c657373205f8201520152565b6103b66037604092610203565b6103bf8161035c565b0190565b6103d89060208101905f8183039101526103a9565b90565b156103e257565b6103ea610044565b62461bcd60e51b815280610400600482016103c3565b0390fd5b5f1b90565b9061041a60018060a01b0391610404565b9181191691161790565b90565b61043b610436610440926100d2565b610424565b6100d2565b90565b61044c90610427565b90565b61045890610443565b90565b90565b9061047361046e61047a9261044f565b61045b565b8254610409565b9055565b9061048a5f1991610404565b9181191691161790565b6104a86104a36104ad926100ac565b610424565b6100ac565b90565b90565b906104c86104c36104cf92610494565b6104b0565b825461047e565b9055565b6104dc90610427565b90565b6104e8906104d3565b90565b6104f4906104d3565b90565b90565b9061050f61050a610516926104eb565b6104f7565b8254610409565b9055565b8a6106338b61066e9f969d6106679f95999c8f6106629f9d61065b9f8a9f9e6106569f8f926106519f610601906106479f61061f9861063d9f6105f8926105e46105ee926106299f8f9c6105d18f926106159f8f61060b9f8f6105cb936105b96105b36105da9a6105ad6105c5976105a76105a16105bf9861059b3361069c565b926100ac565b916100ac565b1061028b565b926100ac565b916100ac565b10610333565b926100ac565b916100ac565b106103db565b5f60040161045e565b60016004016104b3565b600260040161045e565b600360040161045e565b600480016104b3565b60056004016104b3565b60066004016104b3565b60076004016104b3565b60086004016104b3565b60096004016104b3565b600a6004016104b3565b600b6004016104b3565b600c6004016104b3565b6107bd565b6104df565b60026104fa565b6104df565b60036104fa565b565b90565b61068761068261068c92610670565b610424565b6100ac565b90565b6106996001610673565b90565b6106a590610706565b6106b76106b061068f565b60016104b3565b565b90565b6106d06106cb6106d5926106b9565b610424565b6100d2565b90565b6106e1906106bc565b90565b6106ed906100dd565b9052565b9190610704905f602085019401906106e4565b565b8061072161071b6107165f6106d8565b6100dd565b916100dd565b146107315761072f906107fe565b565b61075461073d5f6106d8565b5f918291631e4fbdf760e01b8352600483016106f1565b0390fd5b6107699061076461085d565b61076b565b565b8061078661078061077b5f6106d8565b6100dd565b916100dd565b1461079657610794906107fe565b565b6107b96107a25f6106d8565b5f918291631e4fbdf760e01b8352600483016106f1565b0390fd5b6107c690610758565b565b5f1c90565b60018060a01b031690565b6107e46107e9916107c8565b6107cd565b90565b6107f690546107d8565b90565b5f0190565b6108075f6107ec565b610811825f61045e565b9061084561083f7f8be0079c531659141344cd1fd0a4f28419497f9722a3daafe3b4186f6b6457e09361044f565b9161044f565b9161084e610044565b80610858816107f9565b0390a3565b6108656108af565b61087e6108786108736108c4565b6100dd565b916100dd565b0361088557565b6108a76108906108c4565b5f91829163118cdaa760e01b8352600483016106f1565b0390fd5b5f90565b6108b76108ab565b506108c15f6107ec565b90565b6108cc6108ab565b50339056fe60806040526004361015610013575b611104565b61001d5f356102dc565b806302669b52146102d757806306df7a4d146102d257806307a5254e146102cd5780630ba36dcd146102c857806310fe9ae8146102c35780631270e10c146102be5780631f786b00146102b957806326a4e8d2146102b457806327b12bb2146102af5780632a5bf6d2146102aa5780632bf2762f146102a55780633ccfd60b146102a05780633e0a322d1461029b578063439f5ac2146102965780634451d89f14610291578063451c3d801461028c5780634837c596146102875780634b60ce77146102825780634d52a5121461027d57806359baf5fa146102785780635cb732be14610273578063715018a61461026e578063724ae9d0146102695780637a6a4740146102645780638234e0e31461025f5780638da5cb5b1461025a5780638e75e4821461025557806394aef7a014610250578063a18f4ba01461024b578063a2416f7414610246578063a91098e514610241578063b6b55f251461023c578063ba7ed2ff14610237578063bf0a07bd14610232578063c4e41b221461022d578063c828371e14610228578063c92651a714610223578063ca1e97381461021e578063ccb98ffc14610219578063d18d944b14610214578063d5cf5c721461020f578063eb6d10da1461020a578063f2fde38b146102055763fb76e9780361000e576110d1565b61109e565b611069565b611036565b611003565b610fd0565b610f9b565b610f68565b610f33565b610efe565b610ec9565b610e96565b610e6d565b610e38565b610e05565b610dd0565b610d9c565b610d3a565b610d05565b610cd0565b610c9b565b610c66565b610c33565b610c00565b610bcb565b610b96565b610b61565b610b1d565b610ae8565b610a47565b610a12565b6109df565b6109ac565b610979565b610903565b6108ce565b610778565b61073e565b610709565b6106d4565b61068a565b6105c5565b61054f565b6104f5565b60e01c90565b60405190565b5f80fd5b5f80fd5b5f9103126102fa57565b6102ec565b5f1c90565b60018060a01b031690565b61031b610320916102ff565b610304565b90565b61032d905461030f565b90565b90565b61033f610344916102ff565b610330565b90565b6103519054610333565b90565b60046103615f8201610323565b9161036e60018301610347565b9161037b60028201610323565b9161038860038301610323565b9161039560048201610347565b916103a260058301610347565b916103af60068201610347565b916103bc60078301610347565b916103c960088201610347565b916103d660098301610347565b916103e3600a8201610347565b916103fc600c6103f5600b8501610347565b9301610347565b90565b60018060a01b031690565b610413906103ff565b90565b61041f9061040a565b9052565b90565b61042f90610423565b9052565b9a98969492909d9c9b99979593916101a08c019e5f8d0161045391610416565b60208c0161046091610426565b60408b0161046d91610416565b60608a0161047a91610416565b6080890161048791610426565b60a0880161049491610426565b60c087016104a191610426565b60e086016104ae91610426565b61010085016104bc91610426565b61012084016104ca91610426565b61014083016104d891610426565b61016082016104e691610426565b610180016104f391610426565b565b34610535576105053660046102f0565b610531610510610354565b996105289d9b9d9991999892989793979694966102e2565b9d8e9d8e610433565b0390f35b6102e8565b919061054d905f60208501940190610426565b565b3461057f5761055f3660046102f0565b61057b61056a6111c3565b6105726102e2565b9182918261053a565b0390f35b6102e8565b61058d8161040a565b0361059457565b5f80fd5b905035906105a582610584565b565b906020828203126105c0576105bd915f01610598565b90565b6102ec565b346105f5576105f16105e06105db3660046105a7565b6112fc565b6105e86102e2565b9182918261053a565b0390f35b6102e8565b90565b61061161060c610616926103ff565b6105fa565b6103ff565b90565b610622906105fd565b90565b61062e90610619565b90565b9061063b90610625565b5f5260205260405f2090565b1c90565b61065b9060086106609302610647565b610330565b90565b9061066e915461064b565b90565b610687906106826011915f92610631565b610663565b90565b346106ba576106b66106a56106a03660046105a7565b610671565b6106ad6102e2565b9182918261053a565b0390f35b6102e8565b91906106d2905f60208501940190610416565b565b34610704576106e43660046102f0565b6107006106ef61134e565b6106f76102e2565b918291826106bf565b0390f35b6102e8565b34610739576107193660046102f0565b610735610724611367565b61072c6102e2565b9182918261053a565b0390f35b6102e8565b3461076e5761074e3660046102f0565b61076a610759611380565b6107616102e2565b9182918261053a565b0390f35b6102e8565b5f0190565b346107a65761079061078b3660046105a7565b611406565b6107986102e2565b806107a281610773565b0390f35b6102e8565b6107b49061040a565b9052565b6107c190610423565b9052565b90610180806108b6936107de5f8201515f8601906107ab565b6107f0602082015160208601906107b8565b610802604082015160408601906107ab565b610814606082015160608601906107ab565b610826608082015160808601906107b8565b61083860a082015160a08601906107b8565b61084a60c082015160c08601906107b8565b61085c60e082015160e08601906107b8565b6108706101008201516101008601906107b8565b6108846101208201516101208601906107b8565b6108986101408201516101408601906107b8565b6108ac6101608201516101608601906107b8565b01519101906107b8565b565b91906108cc905f6101a085019401906107c5565b565b346108fe576108de3660046102f0565b6108fa6108e9611660565b6108f16102e2565b918291826108b8565b0390f35b6102e8565b346109335761092f61091e6109193660046105a7565b611676565b6109266102e2565b9182918261053a565b0390f35b6102e8565b61094181610423565b0361094857565b5f80fd5b9050359061095982610938565b565b9060208282031261097457610971915f0161094c565b90565b6102ec565b346109a75761099161098c36600461095b565b61170c565b6109996102e2565b806109a381610773565b0390f35b6102e8565b346109da576109bc3660046102f0565b6109c46119a4565b6109cc6102e2565b806109d681610773565b0390f35b6102e8565b34610a0d576109f76109f236600461095b565b6119d1565b6109ff6102e2565b80610a0981610773565b0390f35b6102e8565b34610a4257610a223660046102f0565b610a3e610a2d6119dc565b610a356102e2565b9182918261053a565b0390f35b6102e8565b34610a7557610a573660046102f0565b610a5f611d0d565b610a676102e2565b80610a7181610773565b0390f35b6102e8565b60018060a01b031690565b610a95906008610a9a9302610647565b610a7a565b90565b90610aa89154610a85565b90565b610ab760035f90610a9d565b90565b610ac390610619565b90565b610acf90610aba565b9052565b9190610ae6905f60208501940190610ac6565b565b34610b1857610af83660046102f0565b610b14610b03610aab565b610b0b6102e2565b91829182610ad3565b0390f35b6102e8565b34610b4d57610b2d3660046102f0565b610b49610b38611d1b565b610b406102e2565b91829182610ad3565b0390f35b6102e8565b610b5e60025f90610a9d565b90565b34610b9157610b713660046102f0565b610b8d610b7c610b52565b610b846102e2565b91829182610ad3565b0390f35b6102e8565b34610bc657610ba63660046102f0565b610bc2610bb1611d31565b610bb96102e2565b9182918261053a565b0390f35b6102e8565b34610bfb57610bdb3660046102f0565b610bf7610be6611d4a565b610bee6102e2565b9182918261053a565b0390f35b6102e8565b34610c2e57610c103660046102f0565b610c18611f10565b610c206102e2565b80610c2a81610773565b0390f35b6102e8565b34610c6157610c433660046102f0565b610c4b611f67565b610c536102e2565b80610c5d81610773565b0390f35b6102e8565b34610c9657610c763660046102f0565b610c92610c81611f71565b610c896102e2565b9182918261053a565b0390f35b6102e8565b34610ccb57610cab3660046102f0565b610cc7610cb6611f8a565b610cbe6102e2565b918291826108b8565b0390f35b6102e8565b34610d0057610ce03660046102f0565b610cfc610ceb611fa0565b610cf36102e2565b9182918261053a565b0390f35b6102e8565b34610d3557610d153660046102f0565b610d31610d2061203b565b610d286102e2565b918291826106bf565b0390f35b6102e8565b34610d6a57610d4a3660046102f0565b610d66610d55612050565b610d5d6102e2565b9182918261053a565b0390f35b6102e8565b9190604083820312610d975780610d8b610d94925f8601610598565b9360200161094c565b90565b6102ec565b34610dcb57610db5610daf366004610d6f565b90612093565b610dbd6102e2565b80610dc781610773565b0390f35b6102e8565b34610e0057610de03660046102f0565b610dfc610deb61209f565b610df36102e2565b91829182610ad3565b0390f35b6102e8565b34610e3357610e1d610e183660046105a7565b6120d7565b610e256102e2565b80610e2f81610773565b0390f35b6102e8565b34610e6857610e483660046102f0565b610e64610e536120e2565b610e5b6102e2565b918291826106bf565b0390f35b6102e8565b610e80610e7b36600461095b565b6125b7565b610e886102e2565b80610e9281610773565b0390f35b34610ec457610eae610ea936600461095b565b6125e5565b610eb66102e2565b80610ec081610773565b0390f35b6102e8565b34610ef957610ed93660046102f0565b610ef5610ee46125f0565b610eec6102e2565b9182918261053a565b0390f35b6102e8565b34610f2e57610f0e3660046102f0565b610f2a610f19612609565b610f216102e2565b9182918261053a565b0390f35b6102e8565b34610f6357610f433660046102f0565b610f5f610f4e612622565b610f566102e2565b9182918261053a565b0390f35b6102e8565b34610f9657610f80610f7b36600461095b565b61265e565b610f886102e2565b80610f9281610773565b0390f35b6102e8565b34610fcb57610fab3660046102f0565b610fc7610fb6612669565b610fbe6102e2565b9182918261053a565b0390f35b6102e8565b34610ffe57610fe8610fe336600461095b565b6126a4565b610ff06102e2565b80610ffa81610773565b0390f35b6102e8565b346110315761101b61101636600461095b565b6126d2565b6110236102e2565b8061102d81610773565b0390f35b6102e8565b346110645761104e61104936600461095b565b612700565b6110566102e2565b8061106081610773565b0390f35b6102e8565b34611099576110793660046102f0565b61109561108461270b565b61108c6102e2565b9182918261053a565b0390f35b6102e8565b346110cc576110b66110b13660046105a7565b612789565b6110be6102e2565b806110c881610773565b0390f35b6102e8565b346110ff576110e96110e436600461095b565b612938565b6110f16102e2565b806110fb81610773565b0390f35b6102e8565b5f80fd5b5f90565b61111861111d916102ff565b610a7a565b90565b61112a905461110c565b90565b61113690610619565b90565b601f801991011690565b634e487b7160e01b5f52604160045260245ffd5b9061116190611139565b810190811067ffffffffffffffff82111761117b57604052565b611143565b60e01b90565b9050519061119382610938565b565b906020828203126111ae576111ab915f01611186565b90565b6102ec565b6111bb6102e2565b3d5f823e3d90fd5b6111cb611108565b5061121560206111e36111de6003611120565b610aba565b6370a082319061120a6111f53061112d565b926111fe6102e2565b95869485938493611180565b8352600483016106bf565b03915afa908115611259575f9161122b575b5090565b61124c915060203d8111611252575b6112448183611157565b810190611195565b5f611227565b503d61123a565b6111b3565b634e487b7160e01b5f52601160045260245ffd5b61128161128791939293610423565b92610423565b91611293838202610423565b9281840414901517156112a257565b61125e565b90565b6112be6112b96112c3926112a7565b6105fa565b610423565b90565b634e487b7160e01b5f52601260045260245ffd5b6112e66112ec91610423565b91610423565b9081156112f7570490565b6112c6565b61133061131e61131961134793611311611108565b506011610631565b610347565b61132a60048001610347565b90611272565b611341670de0b6b3a76400006112aa565b906112da565b90565b5f90565b61135661134a565b506113646002600401610323565b90565b61136f611108565b5061137d6001600401610347565b90565b611388611108565b5061139d61139860113390610631565b610347565b90565b6113b1906113ac612943565b6113f6565b565b5f1b90565b906113c960018060a01b03916113b3565b9181191691161790565b90565b906113eb6113e66113f292610625565b6113d3565b82546113b8565b9055565b6114049060026004016113d6565b565b61140f906113a0565b565b9061142461141d6102e2565b9283611157565b565b6114316101a0611411565b90565b5f90565b5f90565b602090818080808080808080808080611453611426565b9d8e61145d611434565b815201611468611438565b815201611473611434565b81520161147e611434565b815201611489611438565b815201611494611438565b81520161149f611438565b8152016114aa611438565b8152016114b5611438565b8152016114c0611438565b8152016114cb611438565b8152016114d6611438565b8152016114e1611438565b81525050565b6114ef61143c565b90565b906114fc9061040a565b9052565b9061150a90610423565b9052565b90611652611648600c61151f611426565b9461153661152e5f8301610323565b5f88016114f2565b61154e61154560018301610347565b60208801611500565b61156661155d60028301610323565b604088016114f2565b61157e61157560038301610323565b606088016114f2565b61159661158d60048301610347565b60808801611500565b6115ae6115a560058301610347565b60a08801611500565b6115c66115bd60068301610347565b60c08801611500565b6115de6115d560078301610347565b60e08801611500565b6115f76115ed60088301610347565b6101008801611500565b61161061160660098301610347565b6101208801611500565b61162961161f600a8301610347565b6101408801611500565b611642611638600b8301610347565b6101608801611500565b01610347565b6101808401611500565b565b61165d9061150e565b90565b6116686114e7565b506116736004611654565b90565b61168d61169291611685611108565b506011610631565b610347565b90565b6116a6906116a1612943565b6116fd565b565b906116b45f19916113b3565b9181191691161790565b6116d26116cd6116d792610423565b6105fa565b610423565b90565b90565b906116f26116ed6116f9926116be565b6116da565b82546116a8565b9055565b61170a90600480016116dd565b565b61171590611695565b565b61171f612943565b611727611729565b565b611736600b600401610347565b61175461174e6117496007600401610347565b610423565b91610423565b106117635761176161177e565b565b5f6250b2a360e81b81528061177a60048201610773565b0390fd5b6117866129bd565b61178e61187d565b611796612a41565b565b90565b6117af6117aa6117b492611798565b6105fa565b610423565b90565b60209181520190565b5f7f4e6f2066756e647320746f207769746864726177000000000000000000000000910152565b6117f460146020926117b7565b6117fd816117c0565b0190565b6118169060208101905f8183039101526117e7565b90565b1561182057565b6118286102e2565b62461bcd60e51b81528061183e60048201611801565b0390fd5b61184b906105fd565b90565b61185790611842565b90565b91602061187b92949361187460408201965f830190610416565b0190610426565b565b6118a561188d600b600401610347565b61189f6118995f61179b565b91610423565b11611819565b6118ee60206118bc6118b76003611120565b610aba565b6370a08231906118e36118ce3061112d565b926118d76102e2565b95869485938493611180565b8352600483016106bf565b03915afa90811561199f575f91611971575b503361191861190e5f61179b565b600b6004016116dd565b61193561192d6119286003611120565b61184e565b828491612a92565b907f884edad9ce6fa2440d8a54cc123490eb96d2768479d49ff9c7366125a94243649161196c6119636102e2565b9283928361185a565b0390a1565b611992915060203d8111611998575b61198a8183611157565b810190611195565b5f611900565b503d611980565b6111b3565b6119ac611717565b565b6119bf906119ba612943565b6119c1565b565b6119cf9060056004016116dd565b565b6119da906119ae565b565b6119e4611108565b506119f26006600401610347565b90565b42611a14611a0e611a096006600401610347565b610423565b91610423565b10611a2357611a21611a3f565b565b5f630762b4a760e41b815280611a3b60048201610773565b0390fd5b611a53611a4e60113390610631565b610347565b611a65611a5f5f61179b565b91610423565b14611a7457611a72611a90565b565b5f6334c9a48960e11b815280611a8c60048201610773565b0390fd5b611a9d600b600401610347565b611abb611ab5611ab06007600401610347565b610423565b91610423565b10611aca57611ac8611ae5565b565b5f6250b2a360e81b815280611ae160048201610773565b0390fd5b611aed6129bd565b611af5611ba7565b611afd612a41565b565b60207f6365000000000000000000000000000000000000000000000000000000000000917f496e73756666696369656e742070726f6a65637420746f6b656e2062616c616e5f8201520152565b611b5960226040926117b7565b611b6281611aff565b0190565b611b7b9060208101905f818303910152611b4c565b90565b15611b8557565b611b8d6102e2565b62461bcd60e51b815280611ba360048201611b66565b0390fd5b611c08611bf133611bdf611bc5611bc060118490610631565b610347565b91611bda611bd25f61179b565b916011610631565b6116dd565b611beb60048001610347565b90611272565b611c02670de0b6b3a76400006112aa565b906112da565b611c516020611c1f611c1a6002611120565b610aba565b6370a0823190611c46611c313061112d565b92611c3a6102e2565b95869485938493611180565b8352600483016106bf565b03915afa8015611d0857611c80915f91611cda575b50611c79611c7384610423565b91610423565b1015611b7e565b611c9d611c95611c906002611120565b61184e565b338391612a92565b33907fd8138f8a3f377c5259ca548e70e4c2de94f129f5a11036a15b69513cba2b426a91611cd5611ccc6102e2565b9283928361185a565b0390a1565b611cfb915060203d8111611d01575b611cf38183611157565b810190611195565b5f611c66565b503d611ce9565b6111b3565b611d156119f5565b565b5f90565b611d23611d17565b50611d2e6002611120565b90565b611d39611108565b50611d476007600401610347565b90565b611d52611108565b50611d60600a600401610347565b90565b611d77611d7260113390610631565b610347565b611d89611d835f61179b565b91610423565b14611d9857611d96611db4565b565b5f6334c9a48960e11b815280611db060048201610773565b0390fd5b611dbc6129bd565b611dc4611e50565b611dcc612a41565b565b5f7f536f6674636170206e6f74207265616368656400000000000000000000000000910152565b611e0260136020926117b7565b611e0b81611dce565b0190565b611e249060208101905f818303910152611df5565b90565b15611e2e57565b611e366102e2565b62461bcd60e51b815280611e4c60048201611e0f565b0390fd5b611e85611e60600b600401610347565b611e7e611e78611e736007600401610347565b610423565b91610423565b1015611e27565b611e99611e9460113390610631565b610347565b611eb6611ea55f61179b565b611eb160113390610631565b6116dd565b611ed3611ecb611ec66003611120565b61184e565b338391612a92565b33907fbb28353e4598c3b9199101a66e0989549b659a59a54d2c27fbb183f1932c8e6d91611f0b611f026102e2565b9283928361185a565b0390a1565b611f18611d63565b565b611f22612943565b611f2a611f54565b565b611f40611f3b611f4592611798565b6105fa565b6103ff565b90565b611f5190611f2c565b90565b611f65611f605f611f48565b612ae0565b565b611f6f611f1a565b565b611f79611108565b50611f876009600401610347565b90565b611f926114e7565b50611f9d6004611654565b90565b611fa8611108565b50611ff26020611fc0611fbb6002611120565b610aba565b6370a0823190611fe7611fd23061112d565b92611fdb6102e2565b95869485938493611180565b8352600483016106bf565b03915afa908115612036575f91612008575b5090565b612029915060203d811161202f575b6120218183611157565b810190611195565b5f612004565b503d612017565b6111b3565b61204361134a565b5061204d5f610323565b90565b612058611108565b50612066600b600401610347565b90565b9061207b91612076612943565b61207d565b565b61208c61209192916011610631565b6116dd565b565b9061209d91612069565b565b6120a7611d17565b506120b26003611120565b90565b6120c6906120c1612943565b6120c8565b565b6120d5905f6004016113d6565b565b6120e0906120b5565b565b6120ea61134a565b506120f75f600401610323565b90565b61210b906121066129bd565b612325565b612113612a41565b565b91602061213692949361212f60408201965f830190610416565b0190610416565b565b60207f77616e6365000000000000000000000000000000000000000000000000000000917f496e73756666696369656e7420616363657074656420746f6b656e20616c6c6f5f8201520152565b61219260256040926117b7565b61219b81612138565b0190565b6121b49060208101905f818303910152612185565b90565b156121be57565b6121c66102e2565b62461bcd60e51b8152806121dc6004820161219f565b0390fd5b60207f6e63650000000000000000000000000000000000000000000000000000000000917f496e73756666696369656e7420616363657074656420746f6b656e2062616c615f8201520152565b61223a60236040926117b7565b612243816121e0565b0190565b61225c9060208101905f81830391015261222d565b90565b1561226657565b61226e6102e2565b62461bcd60e51b81528061228460048201612247565b0390fd5b61229761229d91939293610423565b92610423565b82018092116122a857565b61125e565b151590565b6122bb816122ad565b036122c257565b5f80fd5b905051906122d3826122b2565b565b906020828203126122ee576122eb915f016122c6565b90565b6102ec565b60409061231c612323949695939661231260608401985f850190610416565b6020830190610416565b0190610426565b565b6123376123326003611120565b610aba565b602063dd62ed3e91339061236561234d3061112d565b946123706123596102e2565b96879586948594611180565b845260048401612115565b03915afa80156125b25761239f915f91612584575b5061239861239284610423565b91610423565b10156121b7565b6123e060206123b66123b16003611120565b610aba565b6370a08231906123d533926123c96102e2565b95869485938493611180565b8352600483016106bf565b03915afa801561257f5761240f915f91612551575b5061240861240284610423565b91610423565b101561225f565b336124388261243261242360118590610631565b9161242d83610347565b612288565b906116dd565b61245982612453600b6004019161244e83610347565b612288565b906116dd565b602061246d6124686003611120565b610aba565b6323b872dd929061249a5f6124813061112d565b956124a58861248e6102e2565b98899788968795611180565b8552600485016122f3565b03925af1801561254c576124c1915f9161251e575b50156122ad565b6125025733907f2da466a7b24304f47e87fa2e1e5a81b9831ce54fec19055ce277ca2f39ba42c4916124fd6124f46102e2565b9283928361185a565b0390a1565b5f633c9fd93960e21b81528061251a60048201610773565b0390fd5b61253f915060203d8111612545575b6125378183611157565b8101906122d5565b5f6124ba565b503d61252d565b6111b3565b612572915060203d8111612578575b61256a8183611157565b810190611195565b5f6123f5565b503d612560565b6111b3565b6125a5915060203d81116125ab575b61259d8183611157565b810190611195565b5f612385565b503d612593565b6111b3565b6125c0906120fa565b565b6125d3906125ce612943565b6125d5565b565b6125e39060096004016116dd565b565b6125ee906125c2565b565b6125f8611108565b506126066008600401610347565b90565b612611611108565b5061261f600c600401610347565b90565b61262a611108565b506126386005600401610347565b90565b61264c90612647612943565b61264e565b565b61265c90600a6004016116dd565b565b6126679061263b565b565b612671611108565b5061267e60048001610347565b90565b6126929061268d612943565b612694565b565b6126a29060066004016116dd565b565b6126ad90612681565b565b6126c0906126bb612943565b6126c2565b565b6126d09060086004016116dd565b565b6126db906126af565b565b6126ee906126e9612943565b6126f0565b565b6126fe9060076004016116dd565b565b612709906126dd565b565b612713611108565b50612721600b600401610347565b90565b61273590612730612943565b612737565b565b8061275261274c6127475f611f48565b61040a565b9161040a565b146127625761276090612ae0565b565b61278561276e5f611f48565b5f918291631e4fbdf760e01b8352600483016106bf565b0390fd5b61279290612724565b565b6127a5906127a0612943565b612829565b565b5f7f496e73756666696369656e7420746f6b656e2062616c616e6365000000000000910152565b6127db601a6020926117b7565b6127e4816127a7565b0190565b6127fd9060208101905f8183039101526127ce565b90565b1561280757565b61280f6102e2565b62461bcd60e51b815280612825600482016127e8565b0390fd5b61285061283e6128396002611120565b61184e565b336128483061112d565b908492612b3f565b61289960206128676128626002611120565b610aba565b6370a082319061288e6128793061112d565b926128826102e2565b95869485938493611180565b8352600483016106bf565b03915afa8015612933576128c8915f91612905575b506128c16128bb84610423565b91610423565b1015612800565b33907f9acd03d943b0536fca9a5931886b9dde4344297899de5d17558004d6157f59d3916129006128f76102e2565b9283928361185a565b0390a1565b612926915060203d811161292c575b61291e8183611157565b810190611195565b5f6128ae565b503d612914565b6111b3565b61294190612794565b565b61294b61203b565b61296461295e612959612b8f565b61040a565b9161040a565b0361296b57565b61298d612976612b8f565b5f91829163118cdaa760e01b8352600483016106bf565b0390fd5b90565b6129a86129a36129ad92612991565b6105fa565b610423565b90565b6129ba6002612994565b90565b6129c76001610347565b6129e06129da6129d56129b0565b610423565b91610423565b146129f9576129f76129f06129b0565b60016116dd565b565b5f633ee5aeb560e01b815280612a1160048201610773565b0390fd5b90565b612a2c612a27612a3192612a15565b6105fa565b610423565b90565b612a3e6001612a18565b90565b612a53612a4c612a34565b60016116dd565b565b612a5e90610619565b90565b63ffffffff1690565b63ffffffff60e01b1690565b612a8a612a85612a8f92612a61565b611180565b612a6a565b90565b90612ad9612ade93612aca60049493612ab163a9059cbb919391612a76565b92612aba6102e2565b968794602086019081520161185a565b60208201810382520383611157565b612b9c565b565b612ae95f610323565b612af3825f6113d6565b90612b27612b217f8be0079c531659141344cd1fd0a4f28419497f9722a3daafe3b4186f6b6457e093610625565b91610625565b91612b306102e2565b80612b3a81610773565b0390a3565b600492612b79612b8d9593612b889394612b606323b872dd92949192612a76565b93612b696102e2565b97889560208701908152016122f3565b60208201810382520383611157565b612b9c565b565b612b9761134a565b503390565b905f602091612ba9611108565b50612bb2611108565b50828151910182855af115612c45573d5f5190612bd7612bd15f61179b565b91610423565b145f14612c2b5750612be881612a55565b3b612bfb612bf55f61179b565b91610423565b145b612c045750565b612c10612c2791612a55565b5f918291635274afe760e01b8352600483016106bf565b0390fd5b612c3e612c386001612a18565b91610423565b1415612bfd565b6040513d5f823e3d90fdfea2646970667358221220f4599dcdf6085263d474fad02f6e8b2e673f847f79a5db5dde9fe66b24ab148064736f6c634300081d0033",
		"linkReferences": {}
	},
	"methodIdentifiers": {
		"acceptedToken()": "451c3d80",
		"claimToken()": "4451d89f",
		"deposit(uint256)": "b6b55f25",
		"depositProjectTokens(uint256)": "fb76e978",
		"getAcceptedToken()": "a18f4ba0",
		"getAcceptedTokenBalance()": "06df7a4d",
		"getEndTime()": "439f5ac2",
		"getHardCap()": "bf0a07bd",
		"getLaunchpadAllInfo()": "7a6a4740",
		"getLaunchpadInfo()": "27b12bb2",
		"getMaxInvestment()": "59baf5fa",
		"getMinInvestment()": "724ae9d0",
		"getPricePerToken()": "ca1e9738",
		"getProjectId()": "1270e10c",
		"getProjectOwnerAddress()": "a91098e5",
		"getProjectOwnerBalance()": "eb6d10da",
		"getProjectToken()": "4837c596",
		"getProjectTokenBalance()": "8234e0e3",
		"getRaisedAmount()": "8e75e482",
		"getReceivableProjectTokenAmount(address)": "07a5254e",
		"getSoftCap()": "4d52a512",
		"getStartTime()": "c828371e",
		"getTokenAddress()": "10fe9ae8",
		"getTotalSupply()": "c4e41b22",
		"getUserDeposit()": "1f786b00",
		"getUserDeposits(address)": "2a5bf6d2",
		"launchpad()": "02669b52",
		"owner()": "8da5cb5b",
		"projectToken()": "4b60ce77",
		"refundToken()": "5cb732be",
		"renounceOwnership()": "715018a6",
		"setEndTime(uint256)": "ccb98ffc",
		"setHardCap(uint256)": "d18d944b",
		"setMaxInvestment(uint256)": "c92651a7",
		"setMinInvestment(uint256)": "ba7ed2ff",
		"setPricePerToken(uint256)": "2bf2762f",
		"setProjectOwner(address)": "a2416f74",
		"setSoftCap(uint256)": "d5cf5c72",
		"setStartTime(uint256)": "3e0a322d",
		"setTokenAddress(address)": "26a4e8d2",
		"setUserDeposits(address,uint256)": "94aef7a0",
		"transferOwnership(address)": "f2fde38b",
		"userDeposits(address)": "0ba36dcd",
		"withdraw()": "3ccfd60b"
	},
	"id": 30
}