{
	"abi": [
		{
			"type": "constructor",
			"inputs": [
				{
					"name": "_projectId",
					"type": "uint256",
					"internalType": "uint256"
				},
				{
					"name": "_projectOwner",
					"type": "address",
					"internalType": "address"
				},
				{
					"name": "_tokenAddress",
					"type": "address",
					"internalType": "address"
				},
				{
					"name": "_acceptedTokenAddress",
					"type": "address",
					"internalType": "address"
				},
				{
					"name": "_pricePerToken",
					"type": "uint256",
					"internalType": "uint256"
				},
				{
					"name": "_startTime",
					"type": "uint256",
					"internalType": "uint256"
				},
				{
					"name": "_endTime",
					"type": "uint256",
					"internalType": "uint256"
				},
				{
					"name": "_softCap",
					"type": "uint256",
					"internalType": "uint256"
				},
				{
					"name": "_hardCap",
					"type": "uint256",
					"internalType": "uint256"
				},
				{
					"name": "_minInvestment",
					"type": "uint256",
					"internalType": "uint256"
				},
				{
					"name": "_maxInvestment",
					"type": "uint256",
					"internalType": "uint256"
				},
				{
					"name": "_raisedAmount",
					"type": "uint256",
					"internalType": "uint256"
				},
				{
					"name": "_totalSupply",
					"type": "uint256",
					"internalType": "uint256"
				}
			],
			"stateMutability": "nonpayable"
		},
		{
			"type": "function",
			"name": "acceptedToken",
			"inputs": [],
			"outputs": [
				{
					"name": "",
					"type": "address",
					"internalType": "contract ERC20"
				}
			],
			"stateMutability": "view"
		},
		{
			"type": "function",
			"name": "claimToken",
			"inputs": [],
			"outputs": [],
			"stateMutability": "nonpayable"
		},
		{
			"type": "function",
			"name": "deposit",
			"inputs": [
				{
					"name": "amount",
					"type": "uint256",
					"internalType": "uint256"
				}
			],
			"outputs": [],
			"stateMutability": "payable"
		},
		{
			"type": "function",
			"name": "depositProjectTokens",
			"inputs": [
				{
					"name": "amount",
					"type": "uint256",
					"internalType": "uint256"
				}
			],
			"outputs": [],
			"stateMutability": "nonpayable"
		},
		{
			"type": "function",
			"name": "getAcceptedToken",
			"inputs": [],
			"outputs": [
				{
					"name": "",
					"type": "address",
					"internalType": "contract ERC20"
				}
			],
			"stateMutability": "view"
		},
		{
			"type": "function",
			"name": "getAcceptedTokenBalance",
			"inputs": [],
			"outputs": [
				{
					"name": "",
					"type": "uint256",
					"internalType": "uint256"
				}
			],
			"stateMutability": "view"
		},
		{
			"type": "function",
			"name": "getEndTime",
			"inputs": [],
			"outputs": [
				{
					"name": "",
					"type": "uint256",
					"internalType": "uint256"
				}
			],
			"stateMutability": "view"
		},
		{
			"type": "function",
			"name": "getHardCap",
			"inputs": [],
			"outputs": [
				{
					"name": "",
					"type": "uint256",
					"internalType": "uint256"
				}
			],
			"stateMutability": "view"
		},
		{
			"type": "function",
			"name": "getLaunchpadAllInfo",
			"inputs": [],
			"outputs": [
				{
					"name": "",
					"type": "tuple",
					"internalType": "struct Launchpad.LaunchpadInfo",
					"components": [
						{
							"name": "projectOwner",
							"type": "address",
							"internalType": "address"
						},
						{
							"name": "projectId",
							"type": "uint256",
							"internalType": "uint256"
						},
						{
							"name": "tokenAddress",
							"type": "address",
							"internalType": "address"
						},
						{
							"name": "acceptedTokenAddress",
							"type": "address",
							"internalType": "address"
						},
						{
							"name": "pricePerToken",
							"type": "uint256",
							"internalType": "uint256"
						},
						{
							"name": "startTime",
							"type": "uint256",
							"internalType": "uint256"
						},
						{
							"name": "endTime",
							"type": "uint256",
							"internalType": "uint256"
						},
						{
							"name": "softCap",
							"type": "uint256",
							"internalType": "uint256"
						},
						{
							"name": "hardCap",
							"type": "uint256",
							"internalType": "uint256"
						},
						{
							"name": "minInvestment",
							"type": "uint256",
							"internalType": "uint256"
						},
						{
							"name": "maxInvestment",
							"type": "uint256",
							"internalType": "uint256"
						},
						{
							"name": "raisedAmount",
							"type": "uint256",
							"internalType": "uint256"
						},
						{
							"name": "totalSupply",
							"type": "uint256",
							"internalType": "uint256"
						}
					]
				}
			],
			"stateMutability": "view"
		},
		{
			"type": "function",
			"name": "getLaunchpadInfo",
			"inputs": [],
			"outputs": [
				{
					"name": "",
					"type": "tuple",
					"internalType": "struct Launchpad.LaunchpadInfo",
					"components": [
						{
							"name": "projectOwner",
							"type": "address",
							"internalType": "address"
						},
						{
							"name": "projectId",
							"type": "uint256",
							"internalType": "uint256"
						},
						{
							"name": "tokenAddress",
							"type": "address",
							"internalType": "address"
						},
						{
							"name": "acceptedTokenAddress",
							"type": "address",
							"internalType": "address"
						},
						{
							"name": "pricePerToken",
							"type": "uint256",
							"internalType": "uint256"
						},
						{
							"name": "startTime",
							"type": "uint256",
							"internalType": "uint256"
						},
						{
							"name": "endTime",
							"type": "uint256",
							"internalType": "uint256"
						},
						{
							"name": "softCap",
							"type": "uint256",
							"internalType": "uint256"
						},
						{
							"name": "hardCap",
							"type": "uint256",
							"internalType": "uint256"
						},
						{
							"name": "minInvestment",
							"type": "uint256",
							"internalType": "uint256"
						},
						{
							"name": "maxInvestment",
							"type": "uint256",
							"internalType": "uint256"
						},
						{
							"name": "raisedAmount",
							"type": "uint256",
							"internalType": "uint256"
						},
						{
							"name": "totalSupply",
							"type": "uint256",
							"internalType": "uint256"
						}
					]
				}
			],
			"stateMutability": "view"
		},
		{
			"type": "function",
			"name": "getMaxInvestment",
			"inputs": [],
			"outputs": [
				{
					"name": "",
					"type": "uint256",
					"internalType": "uint256"
				}
			],
			"stateMutability": "view"
		},
		{
			"type": "function",
			"name": "getMinInvestment",
			"inputs": [],
			"outputs": [
				{
					"name": "",
					"type": "uint256",
					"internalType": "uint256"
				}
			],
			"stateMutability": "view"
		},
		{
			"type": "function",
			"name": "getPricePerToken",
			"inputs": [],
			"outputs": [
				{
					"name": "",
					"type": "uint256",
					"internalType": "uint256"
				}
			],
			"stateMutability": "view"
		},
		{
			"type": "function",
			"name": "getProjectId",
			"inputs": [],
			"outputs": [
				{
					"name": "",
					"type": "uint256",
					"internalType": "uint256"
				}
			],
			"stateMutability": "view"
		},
		{
			"type": "function",
			"name": "getProjectOwnerAddress",
			"inputs": [],
			"outputs": [
				{
					"name": "",
					"type": "address",
					"internalType": "address"
				}
			],
			"stateMutability": "view"
		},
		{
			"type": "function",
			"name": "getProjectOwnerBalance",
			"inputs": [],
			"outputs": [
				{
					"name": "",
					"type": "uint256",
					"internalType": "uint256"
				}
			],
			"stateMutability": "view"
		},
		{
			"type": "function",
			"name": "getProjectToken",
			"inputs": [],
			"outputs": [
				{
					"name": "",
					"type": "address",
					"internalType": "contract ERC20"
				}
			],
			"stateMutability": "view"
		},
		{
			"type": "function",
			"name": "getProjectTokenBalance",
			"inputs": [],
			"outputs": [
				{
					"name": "",
					"type": "uint256",
					"internalType": "uint256"
				}
			],
			"stateMutability": "view"
		},
		{
			"type": "function",
			"name": "getRaisedAmount",
			"inputs": [],
			"outputs": [
				{
					"name": "",
					"type": "uint256",
					"internalType": "uint256"
				}
			],
			"stateMutability": "view"
		},
		{
			"type": "function",
			"name": "getSoftCap",
			"inputs": [],
			"outputs": [
				{
					"name": "",
					"type": "uint256",
					"internalType": "uint256"
				}
			],
			"stateMutability": "view"
		},
		{
			"type": "function",
			"name": "getStartTime",
			"inputs": [],
			"outputs": [
				{
					"name": "",
					"type": "uint256",
					"internalType": "uint256"
				}
			],
			"stateMutability": "view"
		},
		{
			"type": "function",
			"name": "getTokenAddress",
			"inputs": [],
			"outputs": [
				{
					"name": "",
					"type": "address",
					"internalType": "address"
				}
			],
			"stateMutability": "view"
		},
		{
			"type": "function",
			"name": "getTotalSupply",
			"inputs": [],
			"outputs": [
				{
					"name": "",
					"type": "uint256",
					"internalType": "uint256"
				}
			],
			"stateMutability": "view"
		},
		{
			"type": "function",
			"name": "getUserDeposit",
			"inputs": [],
			"outputs": [
				{
					"name": "",
					"type": "uint256",
					"internalType": "uint256"
				}
			],
			"stateMutability": "view"
		},
		{
			"type": "function",
			"name": "getUserDeposits",
			"inputs": [
				{
					"name": "user",
					"type": "address",
					"internalType": "address"
				}
			],
			"outputs": [
				{
					"name": "",
					"type": "uint256",
					"internalType": "uint256"
				}
			],
			"stateMutability": "view"
		},
		{
			"type": "function",
			"name": "launchpad",
			"inputs": [],
			"outputs": [
				{
					"name": "projectOwner",
					"type": "address",
					"internalType": "address"
				},
				{
					"name": "projectId",
					"type": "uint256",
					"internalType": "uint256"
				},
				{
					"name": "tokenAddress",
					"type": "address",
					"internalType": "address"
				},
				{
					"name": "acceptedTokenAddress",
					"type": "address",
					"internalType": "address"
				},
				{
					"name": "pricePerToken",
					"type": "uint256",
					"internalType": "uint256"
				},
				{
					"name": "startTime",
					"type": "uint256",
					"internalType": "uint256"
				},
				{
					"name": "endTime",
					"type": "uint256",
					"internalType": "uint256"
				},
				{
					"name": "softCap",
					"type": "uint256",
					"internalType": "uint256"
				},
				{
					"name": "hardCap",
					"type": "uint256",
					"internalType": "uint256"
				},
				{
					"name": "minInvestment",
					"type": "uint256",
					"internalType": "uint256"
				},
				{
					"name": "maxInvestment",
					"type": "uint256",
					"internalType": "uint256"
				},
				{
					"name": "raisedAmount",
					"type": "uint256",
					"internalType": "uint256"
				},
				{
					"name": "totalSupply",
					"type": "uint256",
					"internalType": "uint256"
				}
			],
			"stateMutability": "view"
		},
		{
			"type": "function",
			"name": "owner",
			"inputs": [],
			"outputs": [
				{
					"name": "",
					"type": "address",
					"internalType": "address"
				}
			],
			"stateMutability": "view"
		},
		{
			"type": "function",
			"name": "projectToken",
			"inputs": [],
			"outputs": [
				{
					"name": "",
					"type": "address",
					"internalType": "contract ERC20"
				}
			],
			"stateMutability": "view"
		},
		{
			"type": "function",
			"name": "refundToken",
			"inputs": [],
			"outputs": [],
			"stateMutability": "nonpayable"
		},
		{
			"type": "function",
			"name": "renounceOwnership",
			"inputs": [],
			"outputs": [],
			"stateMutability": "nonpayable"
		},
		{
			"type": "function",
			"name": "setEndTime",
			"inputs": [
				{
					"name": "_endTime",
					"type": "uint256",
					"internalType": "uint256"
				}
			],
			"outputs": [],
			"stateMutability": "nonpayable"
		},
		{
			"type": "function",
			"name": "setHardCap",
			"inputs": [
				{
					"name": "_hardCap",
					"type": "uint256",
					"internalType": "uint256"
				}
			],
			"outputs": [],
			"stateMutability": "nonpayable"
		},
		{
			"type": "function",
			"name": "setMaxInvestment",
			"inputs": [
				{
					"name": "_maxInvestment",
					"type": "uint256",
					"internalType": "uint256"
				}
			],
			"outputs": [],
			"stateMutability": "nonpayable"
		},
		{
			"type": "function",
			"name": "setMinInvestment",
			"inputs": [
				{
					"name": "_minInvestment",
					"type": "uint256",
					"internalType": "uint256"
				}
			],
			"outputs": [],
			"stateMutability": "nonpayable"
		},
		{
			"type": "function",
			"name": "setPricePerToken",
			"inputs": [
				{
					"name": "_pricePerToken",
					"type": "uint256",
					"internalType": "uint256"
				}
			],
			"outputs": [],
			"stateMutability": "nonpayable"
		},
		{
			"type": "function",
			"name": "setProjectOwner",
			"inputs": [
				{
					"name": "_projectOwner",
					"type": "address",
					"internalType": "address"
				}
			],
			"outputs": [],
			"stateMutability": "nonpayable"
		},
		{
			"type": "function",
			"name": "setSoftCap",
			"inputs": [
				{
					"name": "_softCap",
					"type": "uint256",
					"internalType": "uint256"
				}
			],
			"outputs": [],
			"stateMutability": "nonpayable"
		},
		{
			"type": "function",
			"name": "setStartTime",
			"inputs": [
				{
					"name": "_startTime",
					"type": "uint256",
					"internalType": "uint256"
				}
			],
			"outputs": [],
			"stateMutability": "nonpayable"
		},
		{
			"type": "function",
			"name": "setTokenAddress",
			"inputs": [
				{
					"name": "_tokenAddress",
					"type": "address",
					"internalType": "address"
				}
			],
			"outputs": [],
			"stateMutability": "nonpayable"
		},
		{
			"type": "function",
			"name": "setUserDeposits",
			"inputs": [
				{
					"name": "user",
					"type": "address",
					"internalType": "address"
				},
				{
					"name": "amount",
					"type": "uint256",
					"internalType": "uint256"
				}
			],
			"outputs": [],
			"stateMutability": "nonpayable"
		},
		{
			"type": "function",
			"name": "transferOwnership",
			"inputs": [
				{
					"name": "newOwner",
					"type": "address",
					"internalType": "address"
				}
			],
			"outputs": [],
			"stateMutability": "nonpayable"
		},
		{
			"type": "function",
			"name": "userDeposits",
			"inputs": [
				{
					"name": "",
					"type": "address",
					"internalType": "address"
				}
			],
			"outputs": [
				{
					"name": "",
					"type": "uint256",
					"internalType": "uint256"
				}
			],
			"stateMutability": "view"
		},
		{
			"type": "function",
			"name": "withdraw",
			"inputs": [],
			"outputs": [],
			"stateMutability": "nonpayable"
		},
		{
			"type": "event",
			"name": "Claimed",
			"inputs": [
				{
					"name": "user",
					"type": "address",
					"indexed": false,
					"internalType": "address"
				},
				{
					"name": "amount",
					"type": "uint256",
					"indexed": false,
					"internalType": "uint256"
				}
			],
			"anonymous": false
		},
		{
			"type": "event",
			"name": "Deposited",
			"inputs": [
				{
					"name": "user",
					"type": "address",
					"indexed": false,
					"internalType": "address"
				},
				{
					"name": "amount",
					"type": "uint256",
					"indexed": false,
					"internalType": "uint256"
				}
			],
			"anonymous": false
		},
		{
			"type": "event",
			"name": "OwnershipTransferred",
			"inputs": [
				{
					"name": "previousOwner",
					"type": "address",
					"indexed": true,
					"internalType": "address"
				},
				{
					"name": "newOwner",
					"type": "address",
					"indexed": true,
					"internalType": "address"
				}
			],
			"anonymous": false
		},
		{
			"type": "event",
			"name": "ProjectTokenDeposited",
			"inputs": [
				{
					"name": "projectOwner",
					"type": "address",
					"indexed": false,
					"internalType": "address"
				},
				{
					"name": "amount",
					"type": "uint256",
					"indexed": false,
					"internalType": "uint256"
				}
			],
			"anonymous": false
		},
		{
			"type": "event",
			"name": "Refund",
			"inputs": [
				{
					"name": "user",
					"type": "address",
					"indexed": false,
					"internalType": "address"
				},
				{
					"name": "amount",
					"type": "uint256",
					"indexed": false,
					"internalType": "uint256"
				}
			],
			"anonymous": false
		},
		{
			"type": "event",
			"name": "Withdraw",
			"inputs": [
				{
					"name": "projectOwner",
					"type": "address",
					"indexed": false,
					"internalType": "address"
				},
				{
					"name": "amount",
					"type": "uint256",
					"indexed": false,
					"internalType": "uint256"
				}
			],
			"anonymous": false
		},
		{
			"type": "error",
			"name": "ERC20TransferFailed",
			"inputs": []
		},
		{
			"type": "error",
			"name": "HardCapOverflow",
			"inputs": []
		},
		{
			"type": "error",
			"name": "IsNotDeposited",
			"inputs": []
		},
		{
			"type": "error",
			"name": "LaunchpadNotInTimeFrame",
			"inputs": []
		},
		{
			"type": "error",
			"name": "MaxInvestOverflow",
			"inputs": []
		},
		{
			"type": "error",
			"name": "MinInvestNotExceed",
			"inputs": []
		},
		{
			"type": "error",
			"name": "OwnableInvalidOwner",
			"inputs": [
				{
					"name": "owner",
					"type": "address",
					"internalType": "address"
				}
			]
		},
		{
			"type": "error",
			"name": "OwnableUnauthorizedAccount",
			"inputs": [
				{
					"name": "account",
					"type": "address",
					"internalType": "address"
				}
			]
		},
		{
			"type": "error",
			"name": "ReentrancyGuardReentrantCall",
			"inputs": []
		},
		{
			"type": "error",
			"name": "SafeERC20FailedOperation",
			"inputs": [
				{
					"name": "token",
					"type": "address",
					"internalType": "address"
				}
			]
		},
		{
			"type": "error",
			"name": "SoftCapNotReach",
			"inputs": []
		}
	],
	"bytecode": {
		"object": "0x60806040523461003f576100296100146101d6565b9b9a909a99919998929897939796949661051a565b610031610044565b612a886107e28239612a8890f35b61004a565b60405190565b5f80fd5b601f801991011690565b634e487b7160e01b5f52604160045260245ffd5b906100769061004e565b810190811060018060401b0382111761008e57604052565b610058565b906100a661009f610044565b928361006c565b565b5f80fd5b90565b6100b8816100ac565b036100bf57565b5f80fd5b905051906100d0826100af565b565b60018060a01b031690565b6100e6906100d2565b90565b6100f2816100dd565b036100f957565b5f80fd5b9050519061010a826100e9565b565b6101a0818303126101d157610123825f83016100c3565b9261013183602084016100fd565b9261013f81604085016100fd565b9261014d82606083016100fd565b9261015b83608084016100c3565b926101698160a085016100c3565b926101778260c083016100c3565b926101858360e084016100c3565b926101948161010085016100c3565b926101a38261012083016100c3565b926101ce6101b58461014085016100c3565b936101c48161016086016100c3565b93610180016100c3565b90565b6100a8565b6101f461326a803803806101e981610093565b92833981019061010c565b909192939495969798999a9b9c565b60209181520190565b60207f6d65000000000000000000000000000000000000000000000000000000000000917f53746172742074696d65206d757374206265206265666f726520656e642074695f8201520152565b6102666022604092610203565b61026f8161020c565b0190565b6102889060208101905f818303910152610259565b90565b1561029257565b61029a610044565b62461bcd60e51b8152806102b060048201610273565b0390fd5b60207f6361700000000000000000000000000000000000000000000000000000000000917f536f667420636170206d757374206265206c657373207468616e2068617264205f8201520152565b61030e6023604092610203565b610317816102b4565b0190565b6103309060208101905f818303910152610301565b90565b1561033a57565b610342610044565b62461bcd60e51b8152806103586004820161031b565b0390fd5b60207f7468616e206d6178696d756d20696e766573746d656e74000000000000000000917f4d696e696d756d20696e766573746d656e74206d757374206265206c657373205f8201520152565b6103b66037604092610203565b6103bf8161035c565b0190565b6103d89060208101905f8183039101526103a9565b90565b156103e257565b6103ea610044565b62461bcd60e51b815280610400600482016103c3565b0390fd5b5f1b90565b9061041a60018060a01b0391610404565b9181191691161790565b90565b61043b610436610440926100d2565b610424565b6100d2565b90565b61044c90610427565b90565b61045890610443565b90565b90565b9061047361046e61047a9261044f565b61045b565b8254610409565b9055565b9061048a5f1991610404565b9181191691161790565b6104a86104a36104ad926100ac565b610424565b6100ac565b90565b90565b906104c86104c36104cf92610494565b6104b0565b825461047e565b9055565b6104dc90610427565b90565b6104e8906104d3565b90565b6104f4906104d3565b90565b90565b9061050f61050a610516926104eb565b6104f7565b8254610409565b9055565b896106228a6106629f9861065b9f979e959b8f6106569f9c61064f9f8a9f9461064a9f6106409e6105f161060e966106369f8f9061062c9f6105dd906105d36106189e6105ca8f966105c48f6106049f9d8f6105fa9f6105b26105ac6105e79e6105a66105be976105a061059a6105b89861059433610690565b926100ac565b916100ac565b1061028b565b926100ac565b916100ac565b10610333565b926100ac565b916100ac565b106103db565b5f60040161045e565b60016004016104b3565b600260040161045e565b600360040161045e565b600480016104b3565b60056004016104b3565b60066004016104b3565b60076004016104b3565b60086004016104b3565b60096004016104b3565b600a6004016104b3565b600b6004016104b3565b600c6004016104b3565b6104df565b60026104fa565b6104df565b60036104fa565b565b90565b61067b61067661068092610664565b610424565b6100ac565b90565b61068d6001610667565b90565b610699906106fa565b6106ab6106a4610683565b60016104b3565b565b90565b6106c46106bf6106c9926106ad565b610424565b6100d2565b90565b6106d5906106b0565b90565b6106e1906100dd565b9052565b91906106f8905f602085019401906106d8565b565b8061071561070f61070a5f6106cc565b6100dd565b916100dd565b146107255761072390610782565b565b6107486107315f6106cc565b5f918291631e4fbdf760e01b8352600483016106e5565b0390fd5b5f1c90565b60018060a01b031690565b61076861076d9161074c565b610751565b90565b61077a905461075c565b90565b5f0190565b61078b5f610770565b610795825f61045e565b906107c96107c37f8be0079c531659141344cd1fd0a4f28419497f9722a3daafe3b4186f6b6457e09361044f565b9161044f565b916107d2610044565b806107dc8161077d565b0390a356fe60806040526004361015610013575b6110bf565b61001d5f356102cc565b806302669b52146102c757806306df7a4d146102c25780630ba36dcd146102bd57806310fe9ae8146102b85780631270e10c146102b35780631f786b00146102ae57806326a4e8d2146102a957806327b12bb2146102a45780632a5bf6d21461029f5780632bf2762f1461029a5780633ccfd60b146102955780633e0a322d14610290578063439f5ac21461028b5780634451d89f14610286578063451c3d80146102815780634837c5961461027c5780634b60ce77146102775780634d52a5121461027257806359baf5fa1461026d5780635cb732be14610268578063715018a614610263578063724ae9d01461025e5780637a6a4740146102595780638234e0e3146102545780638da5cb5b1461024f5780638e75e4821461024a57806394aef7a014610245578063a18f4ba014610240578063a2416f741461023b578063a91098e514610236578063b6b55f2514610231578063ba7ed2ff1461022c578063bf0a07bd14610227578063c4e41b2214610222578063c828371e1461021d578063c92651a714610218578063ca1e973814610213578063ccb98ffc1461020e578063d18d944b14610209578063d5cf5c7214610204578063eb6d10da146101ff578063f2fde38b146101fa5763fb76e9780361000e5761108c565b611059565b611024565b610ff1565b610fbe565b610f8b565b610f56565b610f23565b610eee565b610eb9565b610e84565b610e51565b610e28565b610df3565b610dc0565b610d8b565b610d57565b610cf5565b610cc0565b610c8b565b610c56565b610c21565b610bee565b610bbb565b610b86565b610b51565b610b1c565b610ad8565b610aa3565b610a02565b6109cd565b61099a565b610967565b610934565b6108be565b610889565b610733565b6106f9565b6106c4565b61068f565b610645565b61053f565b6104e5565b60e01c90565b60405190565b5f80fd5b5f80fd5b5f9103126102ea57565b6102dc565b5f1c90565b60018060a01b031690565b61030b610310916102ef565b6102f4565b90565b61031d90546102ff565b90565b90565b61032f610334916102ef565b610320565b90565b6103419054610323565b90565b60046103515f8201610313565b9161035e60018301610337565b9161036b60028201610313565b9161037860038301610313565b9161038560048201610337565b9161039260058301610337565b9161039f60068201610337565b916103ac60078301610337565b916103b960088201610337565b916103c660098301610337565b916103d3600a8201610337565b916103ec600c6103e5600b8501610337565b9301610337565b90565b60018060a01b031690565b610403906103ef565b90565b61040f906103fa565b9052565b90565b61041f90610413565b9052565b9a98969492909d9c9b99979593916101a08c019e5f8d0161044391610406565b60208c0161045091610416565b60408b0161045d91610406565b60608a0161046a91610406565b6080890161047791610416565b60a0880161048491610416565b60c0870161049191610416565b60e0860161049e91610416565b61010085016104ac91610416565b61012084016104ba91610416565b61014083016104c891610416565b61016082016104d691610416565b610180016104e391610416565b565b34610525576104f53660046102e0565b610521610500610344565b996105189d9b9d9991999892989793979694966102d2565b9d8e9d8e610423565b0390f35b6102d8565b919061053d905f60208501940190610416565b565b3461056f5761054f3660046102e0565b61056b61055a61117e565b6105626102d2565b9182918261052a565b0390f35b6102d8565b61057d816103fa565b0361058457565b5f80fd5b9050359061059582610574565b565b906020828203126105b0576105ad915f01610588565b90565b6102dc565b90565b6105cc6105c76105d1926103ef565b6105b5565b6103ef565b90565b6105dd906105b8565b90565b6105e9906105d4565b90565b906105f6906105e0565b5f5260205260405f2090565b1c90565b61061690600861061b9302610602565b610320565b90565b906106299154610606565b90565b6106429061063d6011915f926105ec565b61061e565b90565b346106755761067161066061065b366004610597565b61062c565b6106686102d2565b9182918261052a565b0390f35b6102d8565b919061068d905f60208501940190610406565b565b346106bf5761069f3660046102e0565b6106bb6106aa61121d565b6106b26102d2565b9182918261067a565b0390f35b6102d8565b346106f4576106d43660046102e0565b6106f06106df611236565b6106e76102d2565b9182918261052a565b0390f35b6102d8565b34610729576107093660046102e0565b61072561071461124f565b61071c6102d2565b9182918261052a565b0390f35b6102d8565b5f0190565b346107615761074b610746366004610597565b6112d5565b6107536102d2565b8061075d8161072e565b0390f35b6102d8565b61076f906103fa565b9052565b61077c90610413565b9052565b9061018080610871936107995f8201515f860190610766565b6107ab60208201516020860190610773565b6107bd60408201516040860190610766565b6107cf60608201516060860190610766565b6107e160808201516080860190610773565b6107f360a082015160a0860190610773565b61080560c082015160c0860190610773565b61081760e082015160e0860190610773565b61082b610100820151610100860190610773565b61083f610120820151610120860190610773565b610853610140820151610140860190610773565b610867610160820151610160860190610773565b0151910190610773565b565b9190610887905f6101a08501940190610780565b565b346108b9576108993660046102e0565b6108b56108a461152f565b6108ac6102d2565b91829182610873565b0390f35b6102d8565b346108ee576108ea6108d96108d4366004610597565b611545565b6108e16102d2565b9182918261052a565b0390f35b6102d8565b6108fc81610413565b0361090357565b5f80fd5b90503590610914826108f3565b565b9060208282031261092f5761092c915f01610907565b90565b6102dc565b346109625761094c610947366004610916565b6115db565b6109546102d2565b8061095e8161072e565b0390f35b6102d8565b34610995576109773660046102e0565b61097f611873565b6109876102d2565b806109918161072e565b0390f35b6102d8565b346109c8576109b26109ad366004610916565b6118a0565b6109ba6102d2565b806109c48161072e565b0390f35b6102d8565b346109fd576109dd3660046102e0565b6109f96109e86118ab565b6109f06102d2565b9182918261052a565b0390f35b6102d8565b34610a3057610a123660046102e0565b610a1a611c32565b610a226102d2565b80610a2c8161072e565b0390f35b6102d8565b60018060a01b031690565b610a50906008610a559302610602565b610a35565b90565b90610a639154610a40565b90565b610a7260035f90610a58565b90565b610a7e906105d4565b90565b610a8a90610a75565b9052565b9190610aa1905f60208501940190610a81565b565b34610ad357610ab33660046102e0565b610acf610abe610a66565b610ac66102d2565b91829182610a8e565b0390f35b6102d8565b34610b0857610ae83660046102e0565b610b04610af3611c40565b610afb6102d2565b91829182610a8e565b0390f35b6102d8565b610b1960025f90610a58565b90565b34610b4c57610b2c3660046102e0565b610b48610b37610b0d565b610b3f6102d2565b91829182610a8e565b0390f35b6102d8565b34610b8157610b613660046102e0565b610b7d610b6c611c56565b610b746102d2565b9182918261052a565b0390f35b6102d8565b34610bb657610b963660046102e0565b610bb2610ba1611c6f565b610ba96102d2565b9182918261052a565b0390f35b6102d8565b34610be957610bcb3660046102e0565b610bd3611e7f565b610bdb6102d2565b80610be58161072e565b0390f35b6102d8565b34610c1c57610bfe3660046102e0565b610c06611ed6565b610c0e6102d2565b80610c188161072e565b0390f35b6102d8565b34610c5157610c313660046102e0565b610c4d610c3c611ee0565b610c446102d2565b9182918261052a565b0390f35b6102d8565b34610c8657610c663660046102e0565b610c82610c71611ef9565b610c796102d2565b91829182610873565b0390f35b6102d8565b34610cbb57610c9b3660046102e0565b610cb7610ca6611f0f565b610cae6102d2565b9182918261052a565b0390f35b6102d8565b34610cf057610cd03660046102e0565b610cec610cdb611faa565b610ce36102d2565b9182918261067a565b0390f35b6102d8565b34610d2557610d053660046102e0565b610d21610d10611fbf565b610d186102d2565b9182918261052a565b0390f35b6102d8565b9190604083820312610d525780610d46610d4f925f8601610588565b93602001610907565b90565b6102dc565b34610d8657610d70610d6a366004610d2a565b90612002565b610d786102d2565b80610d828161072e565b0390f35b6102d8565b34610dbb57610d9b3660046102e0565b610db7610da661200e565b610dae6102d2565b91829182610a8e565b0390f35b6102d8565b34610dee57610dd8610dd3366004610597565b612046565b610de06102d2565b80610dea8161072e565b0390f35b6102d8565b34610e2357610e033660046102e0565b610e1f610e0e612051565b610e166102d2565b9182918261067a565b0390f35b6102d8565b610e3b610e36366004610916565b61243b565b610e436102d2565b80610e4d8161072e565b0390f35b34610e7f57610e69610e64366004610916565b612469565b610e716102d2565b80610e7b8161072e565b0390f35b6102d8565b34610eb457610e943660046102e0565b610eb0610e9f612474565b610ea76102d2565b9182918261052a565b0390f35b6102d8565b34610ee957610ec93660046102e0565b610ee5610ed461248d565b610edc6102d2565b9182918261052a565b0390f35b6102d8565b34610f1e57610efe3660046102e0565b610f1a610f096124a6565b610f116102d2565b9182918261052a565b0390f35b6102d8565b34610f5157610f3b610f36366004610916565b6124e2565b610f436102d2565b80610f4d8161072e565b0390f35b6102d8565b34610f8657610f663660046102e0565b610f82610f716124ed565b610f796102d2565b9182918261052a565b0390f35b6102d8565b34610fb957610fa3610f9e366004610916565b612528565b610fab6102d2565b80610fb58161072e565b0390f35b6102d8565b34610fec57610fd6610fd1366004610916565b612556565b610fde6102d2565b80610fe88161072e565b0390f35b6102d8565b3461101f57611009611004366004610916565b612584565b6110116102d2565b8061101b8161072e565b0390f35b6102d8565b34611054576110343660046102e0565b61105061103f61258f565b6110476102d2565b9182918261052a565b0390f35b6102d8565b346110875761107161106c366004610597565b61260d565b6110796102d2565b806110838161072e565b0390f35b6102d8565b346110ba576110a461109f366004610916565b61273a565b6110ac6102d2565b806110b68161072e565b0390f35b6102d8565b5f80fd5b5f90565b6110d36110d8916102ef565b610a35565b90565b6110e590546110c7565b90565b6110f1906105d4565b90565b601f801991011690565b634e487b7160e01b5f52604160045260245ffd5b9061111c906110f4565b810190811067ffffffffffffffff82111761113657604052565b6110fe565b60e01b90565b9050519061114e826108f3565b565b9060208282031261116957611166915f01611141565b90565b6102dc565b6111766102d2565b3d5f823e3d90fd5b6111866110c3565b506111d0602061119e61119960036110db565b610a75565b6370a08231906111c56111b0306110e8565b926111b96102d2565b9586948593849361113b565b83526004830161067a565b03915afa908115611214575f916111e6575b5090565b611207915060203d811161120d575b6111ff8183611112565b810190611150565b5f6111e2565b503d6111f5565b61116e565b5f90565b611225611219565b506112336002600401610313565b90565b61123e6110c3565b5061124c6001600401610337565b90565b6112576110c3565b5061126c611267601133906105ec565b610337565b90565b6112809061127b612745565b6112c5565b565b5f1b90565b9061129860018060a01b0391611282565b9181191691161790565b90565b906112ba6112b56112c1926105e0565b6112a2565b8254611287565b9055565b6112d39060026004016112a5565b565b6112de9061126f565b565b906112f36112ec6102d2565b9283611112565b565b6113006101a06112e0565b90565b5f90565b5f90565b6020908180808080808080808080806113226112f5565b9d8e61132c611303565b815201611337611307565b815201611342611303565b81520161134d611303565b815201611358611307565b815201611363611307565b81520161136e611307565b815201611379611307565b815201611384611307565b81520161138f611307565b81520161139a611307565b8152016113a5611307565b8152016113b0611307565b81525050565b6113be61130b565b90565b906113cb906103fa565b9052565b906113d990610413565b9052565b90611521611517600c6113ee6112f5565b946114056113fd5f8301610313565b5f88016113c1565b61141d61141460018301610337565b602088016113cf565b61143561142c60028301610313565b604088016113c1565b61144d61144460038301610313565b606088016113c1565b61146561145c60048301610337565b608088016113cf565b61147d61147460058301610337565b60a088016113cf565b61149561148c60068301610337565b60c088016113cf565b6114ad6114a460078301610337565b60e088016113cf565b6114c66114bc60088301610337565b61010088016113cf565b6114df6114d560098301610337565b61012088016113cf565b6114f86114ee600a8301610337565b61014088016113cf565b611511611507600b8301610337565b61016088016113cf565b01610337565b61018084016113cf565b565b61152c906113dd565b90565b6115376113b6565b506115426004611523565b90565b61155c611561916115546110c3565b5060116105ec565b610337565b90565b61157590611570612745565b6115cc565b565b906115835f1991611282565b9181191691161790565b6115a161159c6115a692610413565b6105b5565b610413565b90565b90565b906115c16115bc6115c89261158d565b6115a9565b8254611577565b9055565b6115d990600480016115ac565b565b6115e490611564565b565b6115ee612745565b6115f66115f8565b565b611605600b600401610337565b61162361161d6116186007600401610337565b610413565b91610413565b106116325761163061164d565b565b5f6250b2a360e81b8152806116496004820161072e565b0390fd5b6116556127bf565b61165d61174c565b611665612843565b565b90565b61167e61167961168392611667565b6105b5565b610413565b90565b60209181520190565b5f7f4e6f2066756e647320746f207769746864726177000000000000000000000000910152565b6116c36014602092611686565b6116cc8161168f565b0190565b6116e59060208101905f8183039101526116b6565b90565b156116ef57565b6116f76102d2565b62461bcd60e51b81528061170d600482016116d0565b0390fd5b61171a906105b8565b90565b61172690611711565b90565b91602061174a92949361174360408201965f830190610406565b0190610416565b565b61177461175c600b600401610337565b61176e6117685f61166a565b91610413565b116116e8565b6117bd602061178b61178660036110db565b610a75565b6370a08231906117b261179d306110e8565b926117a66102d2565b9586948593849361113b565b83526004830161067a565b03915afa90811561186e575f91611840575b50336117e76117dd5f61166a565b600b6004016115ac565b6118046117fc6117f760036110db565b61171d565b828491612894565b907f884edad9ce6fa2440d8a54cc123490eb96d2768479d49ff9c7366125a94243649161183b6118326102d2565b92839283611729565b0390a1565b611861915060203d8111611867575b6118598183611112565b810190611150565b5f6117cf565b503d61184f565b61116e565b61187b6115e6565b565b61188e90611889612745565b611890565b565b61189e9060056004016115ac565b565b6118a99061187d565b565b6118b36110c3565b506118c16006600401610337565b90565b426118e36118dd6118d86006600401610337565b610413565b91610413565b106118f2576118f061190e565b565b5f630762b4a760e41b81528061190a6004820161072e565b0390fd5b61192261191d601133906105ec565b610337565b61193461192e5f61166a565b91610413565b146119435761194161195f565b565b5f6334c9a48960e11b81528061195b6004820161072e565b0390fd5b61196c600b600401610337565b61198a61198461197f6007600401610337565b610413565b91610413565b10611999576119976119b4565b565b5f6250b2a360e81b8152806119b06004820161072e565b0390fd5b6119bc6127bf565b6119c4611acf565b6119cc612843565b565b634e487b7160e01b5f52601160045260245ffd5b6119f16119f791939293610413565b92610413565b91611a03838202610413565b928184041490151715611a1257565b6119ce565b634e487b7160e01b5f52601260045260245ffd5b611a37611a3d91610413565b91610413565b908115611a48570490565b611a17565b5f7f496e73756666696369656e7420746f6b656e2062616c616e6365000000000000910152565b611a81601a602092611686565b611a8a81611a4d565b0190565b611aa39060208101905f818303910152611a74565b90565b15611aad57565b611ab56102d2565b62461bcd60e51b815280611acb60048201611a8e565b0390fd5b611b2d611b1a33611b07611aed611ae8601184906105ec565b610337565b91611b02611afa5f61166a565b9160116105ec565b6115ac565b611b14600c600401610337565b906119e2565b611b27600b600401610337565b90611a2b565b611b766020611b44611b3f60026110db565b610a75565b6370a0823190611b6b611b56306110e8565b92611b5f6102d2565b9586948593849361113b565b83526004830161067a565b03915afa8015611c2d57611ba5915f91611bff575b50611b9e611b9884610413565b91610413565b1015611aa6565b611bc2611bba611bb560026110db565b61171d565b338391612894565b33907fd8138f8a3f377c5259ca548e70e4c2de94f129f5a11036a15b69513cba2b426a91611bfa611bf16102d2565b92839283611729565b0390a1565b611c20915060203d8111611c26575b611c188183611112565b810190611150565b5f611b8b565b503d611c0e565b61116e565b611c3a6118c4565b565b5f90565b611c48611c3c565b50611c5360026110db565b90565b611c5e6110c3565b50611c6c6007600401610337565b90565b611c776110c3565b50611c85600a600401610337565b90565b611c9c611c97601133906105ec565b610337565b611cae611ca85f61166a565b91610413565b14611cbd57611cbb611cd9565b565b5f6334c9a48960e11b815280611cd56004820161072e565b0390fd5b42611cf8611cf2611ced6006600401610337565b610413565b91610413565b10611d0757611d05611d23565b565b5f630762b4a760e41b815280611d1f6004820161072e565b0390fd5b611d2b6127bf565b611d33611dbf565b611d3b612843565b565b5f7f536f6674636170206e6f74207265616368656400000000000000000000000000910152565b611d716013602092611686565b611d7a81611d3d565b0190565b611d939060208101905f818303910152611d64565b90565b15611d9d57565b611da56102d2565b62461bcd60e51b815280611dbb60048201611d7e565b0390fd5b611df4611dcf600b600401610337565b611ded611de7611de26007600401610337565b610413565b91610413565b1015611d96565b611e08611e03601133906105ec565b610337565b611e25611e145f61166a565b611e20601133906105ec565b6115ac565b611e42611e3a611e3560036110db565b61171d565b338391612894565b33907fbb28353e4598c3b9199101a66e0989549b659a59a54d2c27fbb183f1932c8e6d91611e7a611e716102d2565b92839283611729565b0390a1565b611e87611c88565b565b611e91612745565b611e99611ec3565b565b611eaf611eaa611eb492611667565b6105b5565b6103ef565b90565b611ec090611e9b565b90565b611ed4611ecf5f611eb7565b6128e2565b565b611ede611e89565b565b611ee86110c3565b50611ef66009600401610337565b90565b611f016113b6565b50611f0c6004611523565b90565b611f176110c3565b50611f616020611f2f611f2a60026110db565b610a75565b6370a0823190611f56611f41306110e8565b92611f4a6102d2565b9586948593849361113b565b83526004830161067a565b03915afa908115611fa5575f91611f77575b5090565b611f98915060203d8111611f9e575b611f908183611112565b810190611150565b5f611f73565b503d611f86565b61116e565b611fb2611219565b50611fbc5f610313565b90565b611fc76110c3565b50611fd5600b600401610337565b90565b90611fea91611fe5612745565b611fec565b565b611ffb612000929160116105ec565b6115ac565b565b9061200c91611fd8565b565b612016611c3c565b5061202160036110db565b90565b61203590612030612745565b612037565b565b612044905f6004016112a5565b565b61204f90612024565b565b612059611219565b506120665f600401610313565b90565b8061208861208261207d6009600401610337565b610413565b91610413565b1061209857612096906120d9565b565b5f63cc46f61560e01b8152806120b06004820161072e565b0390fd5b6120c36120c991939293610413565b92610413565b82018092116120d457565b6119ce565b6120f6816120f16120ec601133906105ec565b610337565b6120b4565b61211461210e612109600a600401610337565b610413565b91610413565b116121245761212290612140565b565b5f633e3f5e7f60e21b81528061213c6004820161072e565b0390fd5b61215681612151600b600401610337565b6120b4565b61217461216e6121696008600401610337565b610413565b91610413565b1161218457612182906121a0565b565b5f630281384560e31b81528061219c6004820161072e565b0390fd5b426121bf6121b96121b46006600401610337565b610413565b91610413565b1180156121f2575b6121d6576121d490612218565b565b5f630762b4a760e41b8152806121ee6004820161072e565b0390fd5b504261221261220c6122076005600401610337565b610413565b91610413565b106121c7565b612229906122246127bf565b6122ca565b612231612843565b565b90565b61224a61224561224f92612233565b6105b5565b610413565b90565b151590565b61226081612252565b0361226757565b5f80fd5b9050519061227882612257565b565b9060208282031261229357612290915f0161226b565b90565b6102dc565b6040906122c16122c894969593966122b760608401985f850190610406565b6020830190610406565b0190610416565b565b336122f3826122ed6122de601185906105ec565b916122e883610337565b6120b4565b906115ac565b6123148261230e600b6004019161230983610337565b6120b4565b906115ac565b602061232861232360036110db565b610a75565b6323b872dd92906123845f61233c306110e8565b9561238f6123706123598a61235360048001610337565b906119e2565b61236a670de0b6b3a7640000612236565b90611a2b565b6123786102d2565b9889978896879561113b565b855260048501612298565b03925af18015612436576123ab915f91612408575b5015612252565b6123ec5733907f2da466a7b24304f47e87fa2e1e5a81b9831ce54fec19055ce277ca2f39ba42c4916123e76123de6102d2565b92839283611729565b0390a1565b5f633c9fd93960e21b8152806124046004820161072e565b0390fd5b612429915060203d811161242f575b6124218183611112565b81019061227a565b5f6123a4565b503d612417565b61116e565b61244490612069565b565b61245790612452612745565b612459565b565b6124679060096004016115ac565b565b61247290612446565b565b61247c6110c3565b5061248a6008600401610337565b90565b6124956110c3565b506124a3600c600401610337565b90565b6124ae6110c3565b506124bc6005600401610337565b90565b6124d0906124cb612745565b6124d2565b565b6124e090600a6004016115ac565b565b6124eb906124bf565b565b6124f56110c3565b5061250260048001610337565b90565b61251690612511612745565b612518565b565b6125269060066004016115ac565b565b61253190612505565b565b6125449061253f612745565b612546565b565b6125549060086004016115ac565b565b61255f90612533565b565b6125729061256d612745565b612574565b565b6125829060076004016115ac565b565b61258d90612561565b565b6125976110c3565b506125a5600b600401610337565b90565b6125b9906125b4612745565b6125bb565b565b806125d66125d06125cb5f611eb7565b6103fa565b916103fa565b146125e6576125e4906128e2565b565b6126096125f25f611eb7565b5f918291631e4fbdf760e01b83526004830161067a565b0390fd5b612616906125a8565b565b61262990612624612745565b61262b565b565b61265261264061263b60026110db565b61171d565b3361264a306110e8565b908492612941565b61269b602061266961266460026110db565b610a75565b6370a082319061269061267b306110e8565b926126846102d2565b9586948593849361113b565b83526004830161067a565b03915afa8015612735576126ca915f91612707575b506126c36126bd84610413565b91610413565b1015611aa6565b33907f9acd03d943b0536fca9a5931886b9dde4344297899de5d17558004d6157f59d3916127026126f96102d2565b92839283611729565b0390a1565b612728915060203d811161272e575b6127208183611112565b810190611150565b5f6126b0565b503d612716565b61116e565b61274390612618565b565b61274d611faa565b61276661276061275b612991565b6103fa565b916103fa565b0361276d57565b61278f612778612991565b5f91829163118cdaa760e01b83526004830161067a565b0390fd5b90565b6127aa6127a56127af92612793565b6105b5565b610413565b90565b6127bc6002612796565b90565b6127c96001610337565b6127e26127dc6127d76127b2565b610413565b91610413565b146127fb576127f96127f26127b2565b60016115ac565b565b5f633ee5aeb560e01b8152806128136004820161072e565b0390fd5b90565b61282e61282961283392612817565b6105b5565b610413565b90565b612840600161281a565b90565b61285561284e612836565b60016115ac565b565b612860906105d4565b90565b63ffffffff1690565b63ffffffff60e01b1690565b61288c61288761289192612863565b61113b565b61286c565b90565b906128db6128e0936128cc600494936128b363a9059cbb919391612878565b926128bc6102d2565b9687946020860190815201611729565b60208201810382520383611112565b61299e565b565b6128eb5f610313565b6128f5825f6112a5565b906129296129237f8be0079c531659141344cd1fd0a4f28419497f9722a3daafe3b4186f6b6457e0936105e0565b916105e0565b916129326102d2565b8061293c8161072e565b0390a3565b60049261297b61298f959361298a93946129626323b872dd92949192612878565b9361296b6102d2565b9788956020870190815201612298565b60208201810382520383611112565b61299e565b565b612999611219565b503390565b905f6020916129ab6110c3565b506129b46110c3565b50828151910182855af115612a47573d5f51906129d96129d35f61166a565b91610413565b145f14612a2d57506129ea81612857565b3b6129fd6129f75f61166a565b91610413565b145b612a065750565b612a12612a2991612857565b5f918291635274afe760e01b83526004830161067a565b0390fd5b612a40612a3a600161281a565b91610413565b14156129ff565b6040513d5f823e3d90fdfea264697066735822122042d102bb8c3de9b3048f4492345e8955c99912c720dee3d5a34b3dab954033f664736f6c634300081a0033",
		"linkReferences": {}
	},
	"methodIdentifiers": {
		"acceptedToken()": "451c3d80",
		"claimToken()": "4451d89f",
		"deposit(uint256)": "b6b55f25",
		"depositProjectTokens(uint256)": "fb76e978",
		"getAcceptedToken()": "a18f4ba0",
		"getAcceptedTokenBalance()": "06df7a4d",
		"getEndTime()": "439f5ac2",
		"getHardCap()": "bf0a07bd",
		"getLaunchpadAllInfo()": "7a6a4740",
		"getLaunchpadInfo()": "27b12bb2",
		"getMaxInvestment()": "59baf5fa",
		"getMinInvestment()": "724ae9d0",
		"getPricePerToken()": "ca1e9738",
		"getProjectId()": "1270e10c",
		"getProjectOwnerAddress()": "a91098e5",
		"getProjectOwnerBalance()": "eb6d10da",
		"getProjectToken()": "4837c596",
		"getProjectTokenBalance()": "8234e0e3",
		"getRaisedAmount()": "8e75e482",
		"getSoftCap()": "4d52a512",
		"getStartTime()": "c828371e",
		"getTokenAddress()": "10fe9ae8",
		"getTotalSupply()": "c4e41b22",
		"getUserDeposit()": "1f786b00",
		"getUserDeposits(address)": "2a5bf6d2",
		"launchpad()": "02669b52",
		"owner()": "8da5cb5b",
		"projectToken()": "4b60ce77",
		"refundToken()": "5cb732be",
		"renounceOwnership()": "715018a6",
		"setEndTime(uint256)": "ccb98ffc",
		"setHardCap(uint256)": "d18d944b",
		"setMaxInvestment(uint256)": "c92651a7",
		"setMinInvestment(uint256)": "ba7ed2ff",
		"setPricePerToken(uint256)": "2bf2762f",
		"setProjectOwner(address)": "a2416f74",
		"setSoftCap(uint256)": "d5cf5c72",
		"setStartTime(uint256)": "3e0a322d",
		"setTokenAddress(address)": "26a4e8d2",
		"setUserDeposits(address,uint256)": "94aef7a0",
		"transferOwnership(address)": "f2fde38b",
		"userDeposits(address)": "0ba36dcd",
		"withdraw()": "3ccfd60b"
	},
	"id": 32
}