{
	"abi": [
		{
			"type": "constructor",
			"inputs": [],
			"stateMutability": "nonpayable"
		},
		{
			"type": "function",
			"name": "checkPoolIsValid",
			"inputs": [
				{
					"name": "poolAddress",
					"type": "address",
					"internalType": "address"
				}
			],
			"outputs": [
				{
					"name": "",
					"type": "bool",
					"internalType": "bool"
				}
			],
			"stateMutability": "view"
		},
		{
			"type": "function",
			"name": "createLaunchpad",
			"inputs": [
				{
					"name": "tokenAdress",
					"type": "address",
					"internalType": "address"
				},
				{
					"name": "projectOwner",
					"type": "address",
					"internalType": "address"
				},
				{
					"name": "pricePerToken",
					"type": "uint256",
					"internalType": "uint256"
				},
				{
					"name": "startTime",
					"type": "uint256",
					"internalType": "uint256"
				},
				{
					"name": "endTime",
					"type": "uint256",
					"internalType": "uint256"
				},
				{
					"name": "softCap",
					"type": "uint256",
					"internalType": "uint256"
				},
				{
					"name": "hardCap",
					"type": "uint256",
					"internalType": "uint256"
				},
				{
					"name": "minInvestment",
					"type": "uint256",
					"internalType": "uint256"
				},
				{
					"name": "maxInvestment",
					"type": "uint256",
					"internalType": "uint256"
				},
				{
					"name": "totalSupply",
					"type": "uint256",
					"internalType": "uint256"
				}
			],
			"outputs": [
				{
					"name": "",
					"type": "address",
					"internalType": "address"
				}
			],
			"stateMutability": "nonpayable"
		},
		{
			"type": "function",
			"name": "getCurrentProjectId",
			"inputs": [],
			"outputs": [
				{
					"name": "",
					"type": "uint256",
					"internalType": "uint256"
				}
			],
			"stateMutability": "view"
		},
		{
			"type": "function",
			"name": "getLaunchpadAddress",
			"inputs": [
				{
					"name": "projectId",
					"type": "uint256",
					"internalType": "uint256"
				}
			],
			"outputs": [
				{
					"name": "",
					"type": "address",
					"internalType": "address"
				}
			],
			"stateMutability": "view"
		},
		{
			"type": "function",
			"name": "owner",
			"inputs": [],
			"outputs": [
				{
					"name": "",
					"type": "address",
					"internalType": "address"
				}
			],
			"stateMutability": "view"
		},
		{
			"type": "function",
			"name": "renounceOwnership",
			"inputs": [],
			"outputs": [],
			"stateMutability": "nonpayable"
		},
		{
			"type": "function",
			"name": "transferOwnership",
			"inputs": [
				{
					"name": "newOwner",
					"type": "address",
					"internalType": "address"
				}
			],
			"outputs": [],
			"stateMutability": "nonpayable"
		},
		{
			"type": "event",
			"name": "LaunchpadCreated",
			"inputs": [
				{
					"name": "launchpad",
					"type": "address",
					"indexed": true,
					"internalType": "address"
				}
			],
			"anonymous": false
		},
		{
			"type": "event",
			"name": "OwnershipTransferred",
			"inputs": [
				{
					"name": "previousOwner",
					"type": "address",
					"indexed": true,
					"internalType": "address"
				},
				{
					"name": "newOwner",
					"type": "address",
					"indexed": true,
					"internalType": "address"
				}
			],
			"anonymous": false
		},
		{
			"type": "error",
			"name": "LaunchpadAlreadyExists",
			"inputs": []
		},
		{
			"type": "error",
			"name": "OwnableInvalidOwner",
			"inputs": [
				{
					"name": "owner",
					"type": "address",
					"internalType": "address"
				}
			]
		},
		{
			"type": "error",
			"name": "OwnableUnauthorizedAccount",
			"inputs": [
				{
					"name": "account",
					"type": "address",
					"internalType": "address"
				}
			]
		},
		{
			"type": "error",
			"name": "ReentrancyGuardReentrantCall",
			"inputs": []
		}
	],
	"bytecode": {
		"object": "0x608060405234610027576100116100b5565b61001961002c565b6137746102bc823961377490f35b610032565b60405190565b5f80fd5b90565b90565b90565b61005361004e61005892610036565b61003c565b610039565b90565b5f1b90565b9061006c5f199161005b565b9181191691161790565b61008a61008561008f92610039565b61003c565b610039565b90565b90565b906100aa6100a56100b192610076565b610092565b8254610060565b9055565b6100be336100e1565b6100d26100cb600161003f565b6004610095565b565b6100de600161003f565b90565b6100ea90610162565b6100fc6100f56100d4565b6001610095565b565b90565b60018060a01b031690565b61012061011b610125926100fe565b61003c565b610101565b90565b6101319061010c565b90565b61013d90610101565b90565b61014990610134565b9052565b9190610160905f60208501940190610140565b565b8061017d6101776101725f610128565b610134565b91610134565b1461018d5761018b9061025c565b565b6101b06101995f610128565b5f918291631e4fbdf760e01b83526004830161014d565b0390fd5b5f1c90565b60018060a01b031690565b6101d06101d5916101b4565b6101b9565b90565b6101e290546101c4565b90565b906101f660018060a01b039161005b565b9181191691161790565b61021461020f61021992610101565b61003c565b610101565b90565b61022590610200565b90565b6102319061021c565b90565b90565b9061024c61024761025392610228565b610234565b82546101e5565b9055565b5f0190565b6102655f6101d8565b61026f825f610237565b906102a361029d7f8be0079c531659141344cd1fd0a4f28419497f9722a3daafe3b4186f6b6457e093610228565b91610228565b916102ac61002c565b806102b681610257565b0390a356fe60806040526004361015610013575b6103d4565b61001d5f3561008c565b806343cd34ba14610087578063715018a6146100825780638da5cb5b1461007d578063c426f95014610078578063c868ba9a14610073578063f2fde38b1461006e5763fc56620e0361000e5761039f565b610345565b6102f2565b61028e565b610199565b610166565b61011d565b60e01c90565b60405190565b5f80fd5b5f80fd5b90565b6100ac816100a0565b036100b357565b5f80fd5b905035906100c4826100a3565b565b906020828203126100df576100dc915f016100b7565b90565b61009c565b60018060a01b031690565b6100f8906100e4565b90565b610104906100ef565b9052565b919061011b905f602085019401906100fb565b565b3461014d576101496101386101333660046100c6565b61053b565b610140610092565b91829182610108565b0390f35b610098565b5f91031261015c57565b61009c565b5f0190565b3461019457610176366004610152565b61017e61059f565b610186610092565b8061019081610161565b0390f35b610098565b346101c9576101a9366004610152565b6101c56101b46105a9565b6101bc610092565b91829182610108565b0390f35b610098565b6101d7816100ef565b036101de57565b5f80fd5b905035906101ef826101ce565b565b6101408183031261028957610208825f83016101e2565b9261021683602084016101e2565b9261022481604085016100b7565b9261023282606083016100b7565b9261024083608084016100b7565b9261024e8160a085016100b7565b9261025c8260c083016100b7565b9261028661026d8460e085016100b7565b9361027c8161010086016100b7565b93610120016100b7565b90565b61009c565b346102cb576102c76102b66102a43660046101f1565b98979097969196959295949394610806565b6102be610092565b91829182610108565b0390f35b610098565b6102d9906100a0565b9052565b91906102f0905f602085019401906102d0565b565b3461032257610302366004610152565b61031e61030d610923565b610315610092565b918291826102dd565b0390f35b610098565b906020828203126103405761033d915f016101e2565b90565b61009c565b346103735761035d610358366004610327565b61099e565b610365610092565b8061036f81610161565b0390f35b610098565b151590565b61038690610378565b9052565b919061039d905f6020850194019061037d565b565b346103cf576103cb6103ba6103b5366004610327565b6109d4565b6103c2610092565b9182918261038a565b0390f35b610098565b5f80fd5b5f90565b5f1c90565b90565b6103f06103f5916103dc565b6103e1565b90565b61040290546103e4565b90565b60209181520190565b5f7f496e76616c69642070726f6a6563742049440000000000000000000000000000910152565b6104426012602092610405565b61044b8161040e565b0190565b6104649060208101905f818303910152610435565b90565b1561046e57565b610476610092565b62461bcd60e51b81528061048c6004820161044f565b0390fd5b906104bf916104ba826104b46104ae6104a960046103f8565b6100a0565b916100a0565b10610467565b610523565b90565b90565b6104d96104d46104de926100a0565b6104c2565b6100a0565b90565b906104eb906104c5565b5f5260205260405f2090565b60018060a01b031690565b61050e610513916103dc565b6104f7565b90565b6105209054610502565b90565b61053891610533915060026104e1565b610516565b90565b61054c906105476103d8565b610490565b90565b610557610a07565b61055f61058c565b565b90565b61057861057361057d92610561565b6104c2565b6100e4565b90565b61058990610564565b90565b61059d6105985f610580565b610a55565b565b6105a761054f565b565b6105b16103d8565b506105bb5f610516565b90565b634e487b7160e01b5f52604160045260245ffd5b6105e66105e16105eb92610561565b6104c2565b6100a0565b90565b6105f7906105d2565b9052565b99979593919c9b9a98969492909c6101808b019d5f8c0161061b916102d0565b60208b01610628916100fb565b60408a01610635916100fb565b60608901610642916102d0565b6080880161064f916102d0565b60a0870161065c916102d0565b60c08601610669916102d0565b60e08501610676916102d0565b6101008401610684916102d0565b6101208301610692916102d0565b61014082016106a0916105ee565b610160016106ad916102d0565b565b6106b7610092565b3d5f823e3d90fd5b6106d36106ce6106d8926100e4565b6104c2565b6100e4565b90565b6106e4906106bf565b90565b6106f0906106db565b90565b5f1b90565b9061070960018060a01b03916106f3565b9181191691161790565b61071c906106db565b90565b90565b9061073761073261073e92610713565b61071f565b82546106f8565b9055565b9061074c90610713565b5f5260205260405f2090565b9061076460ff916106f3565b9181191691161790565b61077790610378565b90565b90565b9061079261078d6107999261076e565b61077a565b8254610758565b9055565b634e487b7160e01b5f52601160045260245ffd5b6107ba906100a0565b5f1981146107c85760010190565b61079d565b906107d95f19916106f3565b9181191691161790565b90565b906107fb6107f6610802926104c5565b6107e3565b82546107cd565b9055565b9691989497929590976108176103d8565b5061082260046103f8565b989799969490919293945f9697610837610092565b9b612c7d8d019a8d8c1067ffffffffffffffff8d111761091a578d9c6108669c8e612c7d90610ac290396105fb565b03905ff08015610915576109129061087d816106e7565b61089b81610896600261089060046103f8565b906104e1565b610722565b6108b160016108ac60038490610742565b61077d565b6108db7f6c609cd15c5d8c38ee4d6addf46ca8d289008474fcf5d0430da7d1499242547691610713565b906108e4610092565b806108ee81610161565b0390a261090d61090661090160046103f8565b6107b1565b60046107e6565b6106e7565b90565b6106af565b6105be565b5f90565b61092b61091f565b5061093660046103f8565b90565b61094a90610945610a07565b61094c565b565b8061096761096161095c5f610580565b6100ef565b916100ef565b146109775761097590610a55565b565b61099a6109835f610580565b5f918291631e4fbdf760e01b835260048301610108565b0390fd5b6109a790610939565b565b5f90565b60ff1690565b6109bf6109c4916103dc565b6109ad565b90565b6109d190546109b3565b90565b6109eb6109f0916109e36109a9565b506003610742565b6109c7565b610a036109fd6001610378565b91610378565b1490565b610a0f6105a9565b610a28610a22610a1d610ab4565b6100ef565b916100ef565b03610a2f57565b610a51610a3a610ab4565b5f91829163118cdaa760e01b835260048301610108565b0390fd5b610a5e5f610516565b610a68825f610722565b90610a9c610a967f8be0079c531659141344cd1fd0a4f28419497f9722a3daafe3b4186f6b6457e093610713565b91610713565b91610aa5610092565b80610aaf81610161565b0390a3565b610abc6103d8565b50339056fe60806040523461003f576100296100146101c9565b9a99909998919897929796939695949561050c565b610031610044565b6124ce6107af82396124ce90f35b61004a565b60405190565b5f80fd5b601f801991011690565b634e487b7160e01b5f52604160045260245ffd5b906100769061004e565b810190811060018060401b0382111761008e57604052565b610058565b906100a661009f610044565b928361006c565b565b5f80fd5b90565b6100b8816100ac565b036100bf57565b5f80fd5b905051906100d0826100af565b565b60018060a01b031690565b6100e6906100d2565b90565b6100f2816100dd565b036100f957565b5f80fd5b9050519061010a826100e9565b565b9091610180828403126101c457610125835f84016100c3565b9261013381602085016100fd565b9261014182604083016100fd565b9261014f83606084016100c3565b9261015d81608085016100c3565b9261016b8260a083016100c3565b926101798360c084016100c3565b926101878160e085016100c3565b926101968261010083016100c3565b926101c16101a88461012085016100c3565b936101b78161014086016100c3565b93610160016100c3565b90565b6100a8565b6101e7612c7d803803806101dc81610093565b92833981019061010c565b909192939495969798999a9b565b60209181520190565b60207f6d65000000000000000000000000000000000000000000000000000000000000917f53746172742074696d65206d757374206265206265666f726520656e642074695f8201520152565b61025860226040926101f5565b610261816101fe565b0190565b61027a9060208101905f81830391015261024b565b90565b1561028457565b61028c610044565b62461bcd60e51b8152806102a260048201610265565b0390fd5b60207f6361700000000000000000000000000000000000000000000000000000000000917f536f667420636170206d757374206265206c657373207468616e2068617264205f8201520152565b61030060236040926101f5565b610309816102a6565b0190565b6103229060208101905f8183039101526102f3565b90565b1561032c57565b610334610044565b62461bcd60e51b81528061034a6004820161030d565b0390fd5b60207f7468616e206d6178696d756d20696e766573746d656e74000000000000000000917f4d696e696d756d20696e766573746d656e74206d757374206265206c657373205f8201520152565b6103a860376040926101f5565b6103b18161034e565b0190565b6103ca9060208101905f81830391015261039b565b90565b156103d457565b6103dc610044565b62461bcd60e51b8152806103f2600482016103b5565b0390fd5b5f1b90565b9061040c60018060a01b03916103f6565b9181191691161790565b90565b61042d610428610432926100d2565b610416565b6100d2565b90565b61043e90610419565b90565b61044a90610435565b90565b90565b9061046561046061046c92610441565b61044d565b82546103fb565b9055565b9061047c5f19916103f6565b9181191691161790565b61049a61049561049f926100ac565b610416565b6100ac565b90565b90565b906104ba6104b56104c192610486565b6104a2565b8254610470565b9055565b6104ce90610419565b90565b6104da906104c5565b90565b6104e6906104c5565b90565b90565b906105016104fc610508926104dd565b6104e9565b82546103fb565b9055565b876105f1886105e761062f9f9b996106289f9a889f999a6106239f9861060f9c6106199f6106059c6105c08f9c6105b68f966105fb9f6105ad906105a76105a16105d39b8f6105dd9f8f61058f6105ca9e61058961059b9561058361057d610595966105773361065d565b926100ac565b916100ac565b1061027d565b926100ac565b916100ac565b10610325565b926100ac565b916100ac565b106103cd565b5f600301610450565b60016003016104a5565b6002600301610450565b600380016104a5565b60046003016104a5565b60056003016104a5565b60066003016104a5565b60076003016104a5565b60086003016104a5565b60096003016104a5565b600a6003016104a5565b600b6003016104a5565b6104d1565b60026104ec565b565b90565b61064861064361064d92610631565b610416565b6100ac565b90565b61065a6001610634565b90565b610666906106c7565b610678610671610650565b60016104a5565b565b90565b61069161068c6106969261067a565b610416565b6100d2565b90565b6106a29061067d565b90565b6106ae906100dd565b9052565b91906106c5905f602085019401906106a5565b565b806106e26106dc6106d75f610699565b6100dd565b916100dd565b146106f2576106f09061074f565b565b6107156106fe5f610699565b5f918291631e4fbdf760e01b8352600483016106b2565b0390fd5b5f1c90565b60018060a01b031690565b61073561073a91610719565b61071e565b90565b6107479054610729565b90565b5f0190565b6107585f61073d565b610762825f610450565b906107966107907f8be0079c531659141344cd1fd0a4f28419497f9722a3daafe3b4186f6b6457e093610441565b91610441565b9161079f610044565b806107a98161074a565b0390a356fe60806040526004361015610013575b610fb5565b61001d5f3561029c565b806302669b52146102975780630ba36dcd1461029257806310fe9ae81461028d5780631270e10c146102885780631f786b001461028357806321df0da71461027e57806326a4e8d21461027957806327b12bb2146102745780632a5bf6d21461026f5780632bf2762f1461026a5780633ccfd60b146102655780633e0a322d14610260578063439f5ac21461025b5780634451d89f146102565780634d52a5121461025157806359baf5fa1461024c5780635cb732be146102475780636f9fb98a14610242578063715018a61461023d578063724ae9d0146102385780637a6a47401461023357806382b2e2571461022e5780638da5cb5b146102295780638e75e4821461022457806394aef7a01461021f578063a2416f741461021a578063a91098e514610215578063ba7ed2ff14610210578063bf0a07bd1461020b578063c4e41b2214610206578063c828371e14610201578063c92651a7146101fc578063ca1e9738146101f7578063ccb98ffc146101f2578063d0e30db0146101ed578063d18d944b146101e8578063d5cf5c72146101e3578063eb6d10da146101de578063f2fde38b146101d95763fc0c546a0361000e57610f80565b610f0d565b610ed8565b610ea5565b610e72565b610e49565b610e16565b610de1565b610dae565b610d79565b610d44565b610d0f565b610cdc565b610ca7565b610c74565b610c40565b610bde565b610ba9565b610b74565b610b3f565b610b0a565b610ad7565b610aa2565b610a6f565b610a3a565b610a05565b6109d2565b61099d565b61096a565b610937565b610904565b61088e565b610859565b610717565b6106dd565b61067a565b610645565b610610565b6105c6565b61049b565b60e01c90565b60405190565b5f80fd5b5f80fd5b5f9103126102ba57565b6102ac565b5f1c90565b60018060a01b031690565b6102db6102e0916102bf565b6102c4565b90565b6102ed90546102cf565b90565b90565b6102ff610304916102bf565b6102f0565b90565b61031190546102f3565b90565b6003906103225f83016102e3565b9161032f60018201610307565b9161033c600283016102e3565b9161034960038201610307565b9161035660048301610307565b9161036360058201610307565b9161037060068301610307565b9161037d60078201610307565b9161038a60088301610307565b9161039760098201610307565b916103b0600b6103a9600a8501610307565b9301610307565b90565b60018060a01b031690565b6103c7906103b3565b90565b6103d3906103be565b9052565b90565b6103e3906103d7565b9052565b99979593919c9b9a98969492909c6101808b019d5f8c01610407916103ca565b60208b01610414916103da565b60408a01610421916103ca565b6060890161042e916103da565b6080880161043b916103da565b60a08701610448916103da565b60c08601610455916103da565b60e08501610462916103da565b6101008401610470916103da565b610120830161047e916103da565b610140820161048c916103da565b61016001610499916103da565b565b346104db576104ab3660046102b0565b6104d76104b6610314565b986104ce9c9a9c9891989792979693969594956102a2565b9c8d9c8d6103e7565b0390f35b6102a8565b6104e9816103be565b036104f057565b5f80fd5b90503590610501826104e0565b565b9060208282031261051c57610519915f016104f4565b90565b6102ac565b90565b61053861053361053d926103b3565b610521565b6103b3565b90565b61054990610524565b90565b61055590610540565b90565b906105629061054c565b5f5260205260405f2090565b1c90565b610582906008610587930261056e565b6102f0565b90565b906105959154610572565b90565b6105ae906105a9600f915f92610558565b61058a565b90565b91906105c4905f602085019401906103da565b565b346105f6576105f26105e16105dc366004610503565b610598565b6105e96102a2565b918291826105b1565b0390f35b6102a8565b919061060e905f602085019401906103ca565b565b34610640576106203660046102b0565b61063c61062b610fbd565b6106336102a2565b918291826105fb565b0390f35b6102a8565b34610675576106553660046102b0565b610671610660610fda565b6106686102a2565b918291826105b1565b0390f35b6102a8565b346106aa5761068a3660046102b0565b6106a6610695610ff3565b61069d6102a2565b918291826105b1565b0390f35b6102a8565b6106b890610540565b90565b6106c4906106af565b9052565b91906106db905f602085019401906106bb565b565b3461070d576106ed3660046102b0565b6107096106f8611038565b6107006102a2565b918291826106c8565b0390f35b6102a8565b5f0190565b346107455761072f61072a366004610503565b6110b4565b6107376102a2565b8061074181610712565b0390f35b6102a8565b610753906103be565b9052565b610760906103d7565b9052565b90610160806108419361077d5f8201515f86019061074a565b61078f60208201516020860190610757565b6107a16040820151604086019061074a565b6107b360608201516060860190610757565b6107c560808201516080860190610757565b6107d760a082015160a0860190610757565b6107e960c082015160c0860190610757565b6107fb60e082015160e0860190610757565b61080f610100820151610100860190610757565b610823610120820151610120860190610757565b610837610140820151610140860190610757565b0151910190610757565b565b9190610857905f6101808501940190610764565b565b34610889576108693660046102b0565b61088561087461132f565b61087c6102a2565b91829182610843565b0390f35b6102a8565b346108be576108ba6108a96108a4366004610503565b611345565b6108b16102a2565b918291826105b1565b0390f35b6102a8565b6108cc816103d7565b036108d357565b5f80fd5b905035906108e4826108c3565b565b906020828203126108ff576108fc915f016108d7565b90565b6102ac565b346109325761091c6109173660046108e6565b6113db565b6109246102a2565b8061092e81610712565b0390f35b6102a8565b34610965576109473660046102b0565b61094f61162c565b6109576102a2565b8061096181610712565b0390f35b6102a8565b346109985761098261097d3660046108e6565b611659565b61098a6102a2565b8061099481610712565b0390f35b6102a8565b346109cd576109ad3660046102b0565b6109c96109b8611664565b6109c06102a2565b918291826105b1565b0390f35b6102a8565b34610a00576109e23660046102b0565b6109ea611a35565b6109f26102a2565b806109fc81610712565b0390f35b6102a8565b34610a3557610a153660046102b0565b610a31610a20611a3f565b610a286102a2565b918291826105b1565b0390f35b6102a8565b34610a6a57610a4a3660046102b0565b610a66610a55611a58565b610a5d6102a2565b918291826105b1565b0390f35b6102a8565b34610a9d57610a7f3660046102b0565b610a87611bc7565b610a8f6102a2565b80610a9981610712565b0390f35b6102a8565b34610ad257610ab23660046102b0565b610ace610abd611bd1565b610ac56102a2565b918291826105b1565b0390f35b6102a8565b34610b0557610ae73660046102b0565b610aef611c34565b610af76102a2565b80610b0181610712565b0390f35b6102a8565b34610b3a57610b1a3660046102b0565b610b36610b25611c3e565b610b2d6102a2565b918291826105b1565b0390f35b6102a8565b34610b6f57610b4f3660046102b0565b610b6b610b5a611c57565b610b626102a2565b91829182610843565b0390f35b6102a8565b34610ba457610b843660046102b0565b610ba0610b8f611c6d565b610b976102a2565b918291826105b1565b0390f35b6102a8565b34610bd957610bb93660046102b0565b610bd5610bc4611d08565b610bcc6102a2565b918291826105fb565b0390f35b6102a8565b34610c0e57610bee3660046102b0565b610c0a610bf9611d1d565b610c016102a2565b918291826105b1565b0390f35b6102a8565b9190604083820312610c3b5780610c2f610c38925f86016104f4565b936020016108d7565b90565b6102ac565b34610c6f57610c59610c53366004610c13565b90611d60565b610c616102a2565b80610c6b81610712565b0390f35b6102a8565b34610ca257610c8c610c87366004610503565b611d8e565b610c946102a2565b80610c9e81610712565b0390f35b6102a8565b34610cd757610cb73660046102b0565b610cd3610cc2611d99565b610cca6102a2565b918291826105fb565b0390f35b6102a8565b34610d0a57610cf4610cef3660046108e6565b611dd4565b610cfc6102a2565b80610d0681610712565b0390f35b6102a8565b34610d3f57610d1f3660046102b0565b610d3b610d2a611ddf565b610d326102a2565b918291826105b1565b0390f35b6102a8565b34610d7457610d543660046102b0565b610d70610d5f611df8565b610d676102a2565b918291826105b1565b0390f35b6102a8565b34610da957610d893660046102b0565b610da5610d94611e11565b610d9c6102a2565b918291826105b1565b0390f35b6102a8565b34610ddc57610dc6610dc13660046108e6565b611e4d565b610dce6102a2565b80610dd881610712565b0390f35b6102a8565b34610e1157610df13660046102b0565b610e0d610dfc611e58565b610e046102a2565b918291826105b1565b0390f35b6102a8565b34610e4457610e2e610e293660046108e6565b611e93565b610e366102a2565b80610e4081610712565b0390f35b6102a8565b610e543660046102b0565b610e5c6120ec565b610e646102a2565b80610e6e81610712565b0390f35b34610ea057610e8a610e853660046108e6565b612119565b610e926102a2565b80610e9c81610712565b0390f35b6102a8565b34610ed357610ebd610eb83660046108e6565b612147565b610ec56102a2565b80610ecf81610712565b0390f35b6102a8565b34610f0857610ee83660046102b0565b610f04610ef3612152565b610efb6102a2565b918291826105b1565b0390f35b6102a8565b34610f3b57610f25610f20366004610503565b6121d0565b610f2d6102a2565b80610f3781610712565b0390f35b6102a8565b60018060a01b031690565b610f5b906008610f60930261056e565b610f40565b90565b90610f6e9154610f4b565b90565b610f7d60025f90610f63565b90565b34610fb057610f903660046102b0565b610fac610f9b610f71565b610fa36102a2565b918291826106c8565b0390f35b6102a8565b5f80fd5b5f90565b610fc5610fb9565b50610fd360026003016102e3565b90565b5f90565b610fe2610fd6565b50610ff06001600301610307565b90565b610ffb610fd6565b5061101061100b600f3390610558565b610307565b90565b5f90565b611023611028916102bf565b610f40565b90565b6110359054611017565b90565b611040611013565b5061104b600261102b565b90565b61105f9061105a6121db565b6110a4565b565b5f1b90565b9061107760018060a01b0391611061565b9181191691161790565b90565b906110996110946110a09261054c565b611081565b8254611066565b9055565b6110b2906002600301611084565b565b6110bd9061104e565b565b601f801991011690565b634e487b7160e01b5f52604160045260245ffd5b906110e7906110bf565b810190811067ffffffffffffffff82111761110157604052565b6110c9565b906111196111126102a2565b92836110dd565b565b611126610180611106565b90565b5f90565b5f90565b61113961111b565b90602080808080808080808080808d611150611129565b81520161115b61112d565b815201611166611129565b81520161117161112d565b81520161117c61112d565b81520161118761112d565b81520161119261112d565b81520161119d61112d565b8152016111a861112d565b8152016111b361112d565b8152016111be61112d565b8152016111c961112d565b81525050565b6111d7611131565b90565b906111e4906103be565b9052565b906111f2906103d7565b9052565b90611321611317600b61120761111b565b9461121e6112165f83016102e3565b5f88016111da565b61123661122d60018301610307565b602088016111e8565b61124e611245600283016102e3565b604088016111da565b61126661125d60038301610307565b606088016111e8565b61127e61127560048301610307565b608088016111e8565b61129661128d60058301610307565b60a088016111e8565b6112ae6112a560068301610307565b60c088016111e8565b6112c66112bd60078301610307565b60e088016111e8565b6112df6112d560088301610307565b61010088016111e8565b6112f86112ee60098301610307565b61012088016111e8565b611311611307600a8301610307565b61014088016111e8565b01610307565b61016084016111e8565b565b61132c906111f6565b90565b6113376111cf565b506113426003611323565b90565b61135c61136191611354610fd6565b50600f610558565b610307565b90565b611375906113706121db565b6113cc565b565b906113835f1991611061565b9181191691161790565b6113a161139c6113a6926103d7565b610521565b6103d7565b90565b90565b906113c16113bc6113c89261138d565b6113a9565b8254611377565b9055565b6113d990600380016113ac565b565b6113e490611364565b565b6113ee6121db565b6113f66113f8565b565b611405600a600301610307565b61142361141d6114186006600301610307565b6103d7565b916103d7565b106114325761143061144d565b565b5f6250b2a360e81b81528061144960048201610712565b0390fd5b611455612255565b61145d611574565b6114656122d9565b565b90565b61147e61147961148392611467565b610521565b6103d7565b90565b60209181520190565b5f7f4e6f2066756e647320746f207769746864726177000000000000000000000000910152565b6114c36014602092611486565b6114cc8161148f565b0190565b6114e59060208101905f8183039101526114b6565b90565b156114ef57565b6114f76102a2565b62461bcd60e51b81528061150d600482016114d0565b0390fd5b61151a90610540565b90565b61152690610524565b90565b6115329061151d565b90565b61153e90610540565b90565b6115496102a2565b3d5f823e3d90fd5b91602061157292949361156b60408201965f8301906103ca565b01906103da565b565b61159c611584600a600301610307565b6115966115905f61146a565b916103d7565b116114e8565b6115a530611511565b31336115bd6115b35f61146a565b600a6003016113ac565b5f8080806115d26115cd86611529565b611535565b8690828215611623575bf11561161e57907f884edad9ce6fa2440d8a54cc123490eb96d2768479d49ff9c7366125a9424364916116196116106102a2565b92839283611551565b0390a1565b611541565b506108fc6115dc565b6116346113e6565b565b611647906116426121db565b611649565b565b6116579060046003016113ac565b565b61166290611636565b565b61166c610fd6565b5061167a6005600301610307565b90565b4261169c6116966116916005600301610307565b6103d7565b916103d7565b106116ab576116a96116c7565b565b5f630762b4a760e41b8152806116c360048201610712565b0390fd5b6116db6116d6600f3390610558565b610307565b6116ed6116e75f61146a565b916103d7565b146116fc576116fa611718565b565b5f6334c9a48960e11b81528061171460048201610712565b0390fd5b611725600a600301610307565b61174361173d6117386006600301610307565b6103d7565b916103d7565b106117525761175061176d565b565b5f6250b2a360e81b81528061176960048201610712565b0390fd5b611775612255565b61177d6118d3565b6117856122d9565b565b634e487b7160e01b5f52601160045260245ffd5b6117aa6117b0919392936103d7565b926103d7565b916117bc8382026103d7565b9281840414901517156117cb57565b611787565b634e487b7160e01b5f52601260045260245ffd5b6117f06117f6916103d7565b916103d7565b908115611801570490565b6117d0565b60e01b90565b90505190611819826108c3565b565b9060208282031261183457611831915f0161180c565b90565b6102ac565b5f7f496e73756666696369656e7420746f6b656e2062616c616e6365000000000000910152565b61186d601a602092611486565b61187681611839565b0190565b61188f9060208101905f818303910152611860565b90565b1561189957565b6118a16102a2565b62461bcd60e51b8152806118b76004820161187a565b0390fd5b6118c490610524565b90565b6118d0906118bb565b90565b61193061191d6118ed6118e8600f3390610558565b610307565b61190a6118f95f61146a565b611905600f3390610558565b6113ac565b611917600b600301610307565b9061179b565b61192a600a600301610307565b906117e4565b6119796020611947611942600261102b565b6106af565b6370a082319061196e61195930611511565b926119626102a2565b95869485938493611806565b8352600483016105fb565b03915afa8015611a30576119a8915f91611a02575b506119a161199b846103d7565b916103d7565b1015611892565b6119c56119bd6119b8600261102b565b6118c7565b33839161232a565b33907fd8138f8a3f377c5259ca548e70e4c2de94f129f5a11036a15b69513cba2b426a916119fd6119f46102a2565b92839283611551565b0390a1565b611a23915060203d8111611a29575b611a1b81836110dd565b81019061181b565b5f61198e565b503d611a11565b611541565b611a3d61167d565b565b611a47610fd6565b50611a556006600301610307565b90565b611a60610fd6565b50611a6e6009600301610307565b90565b611a85611a80600f3390610558565b610307565b611a97611a915f61146a565b916103d7565b14611aa657611aa4611ac2565b565b5f6334c9a48960e11b815280611abe60048201610712565b0390fd5b42611ae1611adb611ad66005600301610307565b6103d7565b916103d7565b10611af057611aee611b0c565b565b5f630762b4a760e41b815280611b0860048201610712565b0390fd5b611b14612255565b611b1c611b26565b611b246122d9565b565b611b3a611b35600f3390610558565b610307565b611b57611b465f61146a565b611b52600f3390610558565b6113ac565b5f808080611b6c611b6733611529565b611535565b8590828215611bbe575bf115611bb95733907fbb28353e4598c3b9199101a66e0989549b659a59a54d2c27fbb183f1932c8e6d91611bb4611bab6102a2565b92839283611551565b0390a1565b611541565b506108fc611b76565b611bcf611a71565b565b611bd9610fd6565b50611be330611511565b3190565b611bef6121db565b611bf7611c21565b565b611c0d611c08611c1292611467565b610521565b6103b3565b90565b611c1e90611bf9565b90565b611c32611c2d5f611c15565b612378565b565b611c3c611be7565b565b611c46610fd6565b50611c546008600301610307565b90565b611c5f6111cf565b50611c6a6003611323565b90565b611c75610fd6565b50611cbf6020611c8d611c88600261102b565b6106af565b6370a0823190611cb4611c9f30611511565b92611ca86102a2565b95869485938493611806565b8352600483016105fb565b03915afa908115611d03575f91611cd5575b5090565b611cf6915060203d8111611cfc575b611cee81836110dd565b81019061181b565b5f611cd1565b503d611ce4565b611541565b611d10610fb9565b50611d1a5f6102e3565b90565b611d25610fd6565b50611d33600a600301610307565b90565b90611d4891611d436121db565b611d4a565b565b611d59611d5e9291600f610558565b6113ac565b565b90611d6a91611d36565b565b611d7d90611d786121db565b611d7f565b565b611d8c905f600301611084565b565b611d9790611d6c565b565b611da1610fb9565b50611dae5f6003016102e3565b90565b611dc290611dbd6121db565b611dc4565b565b611dd29060086003016113ac565b565b611ddd90611db1565b565b611de7610fd6565b50611df56007600301610307565b90565b611e00610fd6565b50611e0e600b600301610307565b90565b611e19610fd6565b50611e276004600301610307565b90565b611e3b90611e366121db565b611e3d565b565b611e4b9060096003016113ac565b565b611e5690611e2a565b565b611e60610fd6565b50611e6d60038001610307565b90565b611e8190611e7c6121db565b611e83565b565b611e919060056003016113ac565b565b611e9c90611e70565b565b34611ebd611eb7611eb26008600301610307565b6103d7565b916103d7565b10611ecc57611eca611f0d565b565b5f63cc46f61560e01b815280611ee460048201610712565b0390fd5b611ef7611efd919392936103d7565b926103d7565b8201809211611f0857565b611787565b611f2b611f24611f1f600f3390610558565b610307565b3490611ee8565b611f49611f43611f3e6009600301610307565b6103d7565b916103d7565b11611f5857611f56611f74565b565b5f633e3f5e7f60e21b815280611f7060048201610712565b0390fd5b611f8b611f84600a600301610307565b3490611ee8565b611fa9611fa3611f9e6007600301610307565b6103d7565b916103d7565b1015611fb957611fb7611fd5565b565b5f630281384560e31b815280611fd160048201610712565b0390fd5b42611ff4611fee611fe96005600301610307565b6103d7565b916103d7565b118015612026575b61200a5761200861204c565b565b5f630762b4a760e41b81528061202260048201610712565b0390fd5b504261204661204061203b6004600301610307565b6103d7565b916103d7565b10611ffc565b612054612255565b61205c612066565b6120646122d9565b565b61208e34612088612079600f3390610558565b9161208383610307565b611ee8565b906113ac565b6120af346120a9600a600301916120a483610307565b611ee8565b906113ac565b33347f2da466a7b24304f47e87fa2e1e5a81b9831ce54fec19055ce277ca2f39ba42c4916120e76120de6102a2565b92839283611551565b0390a1565b6120f4611e9e565b565b612107906121026121db565b612109565b565b6121179060076003016113ac565b565b612122906120f6565b565b612135906121306121db565b612137565b565b6121459060066003016113ac565b565b61215090612124565b565b61215a610fd6565b50612168600a600301610307565b90565b61217c906121776121db565b61217e565b565b8061219961219361218e5f611c15565b6103be565b916103be565b146121a9576121a790612378565b565b6121cc6121b55f611c15565b5f918291631e4fbdf760e01b8352600483016105fb565b0390fd5b6121d99061216b565b565b6121e3611d08565b6121fc6121f66121f16123d7565b6103be565b916103be565b0361220357565b61222561220e6123d7565b5f91829163118cdaa760e01b8352600483016105fb565b0390fd5b90565b61224061223b61224592612229565b610521565b6103d7565b90565b612252600261222c565b90565b61225f6001610307565b61227861227261226d612248565b6103d7565b916103d7565b146122915761228f612288612248565b60016113ac565b565b5f633ee5aeb560e01b8152806122a960048201610712565b0390fd5b90565b6122c46122bf6122c9926122ad565b610521565b6103d7565b90565b6122d660016122b0565b90565b6122eb6122e46122cc565b60016113ac565b565b6122f690610540565b90565b63ffffffff1690565b63ffffffff60e01b1690565b61232261231d612327926122f9565b611806565b612302565b90565b90612371612376936123626004949361234963a9059cbb91939161230e565b926123526102a2565b9687946020860190815201611551565b602082018103825203836110dd565b6123e4565b565b6123815f6102e3565b61238b825f611084565b906123bf6123b97f8be0079c531659141344cd1fd0a4f28419497f9722a3daafe3b4186f6b6457e09361054c565b9161054c565b916123c86102a2565b806123d281610712565b0390a3565b6123df610fb9565b503390565b905f6020916123f1610fd6565b506123fa610fd6565b50828151910182855af11561248d573d5f519061241f6124195f61146a565b916103d7565b145f146124735750612430816122ed565b3b61244361243d5f61146a565b916103d7565b145b61244c5750565b61245861246f916122ed565b5f918291635274afe760e01b8352600483016105fb565b0390fd5b61248661248060016122b0565b916103d7565b1415612445565b6040513d5f823e3d90fdfea2646970667358221220312797caff8ffd0502c44c2ae787288d0ba5b8ff8d93402762f7f8a7bb30e7e264736f6c634300081a0033a264697066735822122017547b3efa8564bc9ab7c4e6f2116c3b8d65a84256440baf01cb66890e128b0564736f6c634300081a0033",
		"linkReferences": {}
	},
	"methodIdentifiers": {
		"checkPoolIsValid(address)": "fc56620e",
		"createLaunchpad(address,address,uint256,uint256,uint256,uint256,uint256,uint256,uint256,uint256)": "c426f950",
		"getCurrentProjectId()": "c868ba9a",
		"getLaunchpadAddress(uint256)": "43cd34ba",
		"owner()": "8da5cb5b",
		"renounceOwnership()": "715018a6",
		"transferOwnership(address)": "f2fde38b"
	},
	"id": 32
}